:020000040800F2
:10000000005000203D830008858300088583000898
:1000100085830008858300088583000800000000B0
:1000200000000000000000000000000085830008C0
:100030008583000800000000858300087B6C0008B1
:100040008583000885830008858300088583000870
:100050008583000885830008696D00086F6D0008BE
:10006000756D00087B6D0008816D000885830008B0
:100070008583000885830008858300088583000840
:100080008583000885830008858300088583000830
:10009000858300088583000885830008876D000834
:1000A000858300086D6A000885830008816A00085E
:1000B000856A0008996A0008AD6A00089529000859
:1000C000A1290008AD290008B92900088583000886
:1000D00085830008A1790008B9790008D57900085E
:1000E000AF6D0008858300088583000800000000CC
:1000F0000000000000000000000000000000000000
:0C01000000000000000000005FF808F1A3
:10011000034613F8012B002AFBD1181A0138704747
:1001200081F0004102E000BF83F0004330B54FEAA8
:1001300041044FEA430594EA050F08BF90EA020F15
:100140001FBF54EA000C55EA020C7FEA645C7FEAA8
:10015000655C00F0E2804FEA5454D4EB5555B8BFCB
:100160006D420CDD2C4480EA020281EA030382EA3C
:10017000000083EA010180EA020281EA0303362DCE
:1001800088BF30BD11F0004F4FEA01314FF4801CA1
:100190004CEA113102D0404261EB410113F0004FB3
:1001A0004FEA03334CEA133302D0524263EB43036A
:1001B00094EA050F00F0A780A4F10104D5F1200E08
:1001C0000DDB02FA0EFC22FA05F2801841F1000163
:1001D00003FA0EF2801843FA05F359410EE0A5F137
:1001E00020050EF1200E012A03FA0EFC28BF4CF068
:1001F000020C43FA05F3C01851EBE37101F000451E
:1002000007D54FF0000EDCF1000C7EEB00006EEB2A
:100210000101B1F5801F1BD3B1F5001F0CD34908B4
:100220005FEA30004FEA3C0C04F101044FEA44520B
:1002300012F5800F80F09A80BCF1004F08BF5FEA92
:10024000500C50F1000041EB045141EA050130BD72
:100250005FEA4C0C404141EB0101013C28BFB1F584
:10026000801FE9D291F0000F04BF01460020B1FACF
:1002700081F308BF2033A3F10B03B3F120020CDAA2
:100280000C3208DD02F1140CC2F10C0201FA0CF080
:1002900021FA02F10CE002F11402D8BFC2F1200CE5
:1002A00001FA02F120FA0CFCDCBF41EA0C0190409B
:1002B000E41AA2BF01EB0451294330BD6FEA0404E4
:1002C0001F3C1CDA0C340EDC04F11404C4F12002CF
:1002D00020FA04F001FA02F340EA030021FA04F3E1
:1002E00045EA030130BDC4F10C04C4F1200220FA38
:1002F00002F001FA04F340EA0300294630BD21FA76
:1003000004F0294630BD94F0000F83F4801306BF3B
:1003100081F480110134013D4EE77FEA645C18BF2F
:100320007FEA655C29D094EA050F08BF90EA020FC6
:1003300005D054EA000C04BF1946104630BD91EABE
:10034000030F1EBF0021002030BD5FEA545C05D1C1
:100350004000494128BF41F0004130BD14F5800400
:100360003CBF01F5801130BD01F0004545F0FE4174
:1003700041F470014FF0000030BD7FEA645C1ABFA9
:10038000194610467FEA655C1CBF0B46024650EAE0
:10039000013406BF52EA033591EA030F41F400210C
:1003A00030BD00BF90F0000F04BF0021704730B592
:1003B0004FF4806404F132044FF000054FF0000167
:1003C00050E700BF90F0000F04BF0021704730B528
:1003D0004FF4806404F1320410F0004548BF4042FD
:1003E0004FF000013EE700BF42004FEAE2014FEA52
:1003F00031014FEA02701FBF12F07F4393F07F4F2D
:1004000081F06051704732F07F4208BF704793F02F
:100410007F4F04BF41F40021704730B54FF4607442
:1004200001F0004521F000411CE700BF50EA010245
:1004300008BF704730B54FF000050AE050EA0102EE
:1004400008BF704730B511F0004502D5404261EB5E
:1004500041014FF4806404F132045FEA915C3FF49F
:10046000D8AE4FF003025FEADC0C18BF03325FEA3C
:10047000DC0C18BF033202EBDC02C2F1200300FAED
:1004800003FC20FA02F001FA03FE40EA0E0021FA12
:1004900002F11444BDE600BF70B54FF0FF0C4CF400
:1004A000E06C1CEA11541DBF1CEA135594EA0C0FB2
:1004B00095EA0C0F00F0DEF82C4481EA030621EAED
:1004C0004C5123EA4C5350EA013518BF52EA033528
:1004D00041F4801143F4801338D0A0FB02CE4FF0DA
:1004E0000005E1FB02E506F00042E0FB03E54FF00A
:1004F0000006E1FB03569CF0000F18BF4EF0010E02
:10050000A4F1FF04B6F5007F64F5407404D25FEAFD
:100510004E0E6D4146EB060642EAC62141EA5551B0
:100520004FEAC52040EA5E504FEACE2EB4F1FD0CF2
:1005300088BFBCF5E06F1ED8BEF1004F08BF5FEA70
:10054000500E50F1000041EB045170BD06F0004622
:1005500046EA010140EA020081EA0301B4EB5C04CF
:10056000C2BFD4EB0C0541EA045170BD41F48011C7
:100570004FF0000E013C00F3AB8014F1360FDEBFEC
:10058000002001F0004170BDC4F10004203C35DAC8
:100590000C341BDC04F11404C4F1200500FA05F34B
:1005A00020FA04F001FA05F240EA020001F00042EC
:1005B00021F0004110EBD37021FA04F642EB060162
:1005C0005EEA430E08BF20EAD37070BDC4F10C048C
:1005D000C4F1200500FA04F320FA05F001FA04F250
:1005E00040EA020001F0004110EBD37041F100013C
:1005F0005EEA430E08BF20EAD37070BDC4F1200547
:1006000000FA05F24EEA020E20FA04F301FA05F2AE
:1006100043EA020321FA04F001F0004121FA04F256
:1006200020EA020000EBD3705EEA430E08BF20EA26
:10063000D37070BD94F0000F0FD101F00046400060
:1006400041EB010111F4801F08BF013CF7D041EAE2
:10065000060195F0000F18BF704703F000465200E6
:1006600043EB030313F4801F08BF013DF7D043EAB7
:100670000603704794EA0C0F0CEA135518BF95EA6D
:100680000C0F0CD050EA410618BF52EA4306D1D1F4
:1006900081EA030101F000414FF0000070BD50EA13
:1006A000410606BF1046194652EA430619D094EA9D
:1006B0000C0F02D150EA013613D195EA0C0F05D187
:1006C00052EA03361CBF104619460AD181EA0301DB
:1006D00001F0004141F0FE4141F470014FF0000093
:1006E00070BD41F0FE4141F4780170BD70B54FF02E
:1006F000FF0C4CF4E06C1CEA11541DBF1CEA1355AE
:1007000094EA0C0F95EA0C0F00F0A7F8A4EB05048F
:1007100081EA030E52EA03354FEA013100F0888086
:100720004FEA03334FF0805545EA131343EA12634F
:100730004FEA022245EA111545EA10654FEA002604
:100740000EF000419D4208BF964244F1FD0404F5BD
:10075000407402D25B084FEA3202B61A65EB030519
:100760005B084FEA32024FF480104FF4002CB6EBD6
:10077000020E75EB030E22BFB61A754640EA0C0056
:100780005B084FEA3202B6EB020E75EB030E22BF96
:10079000B61A754640EA5C005B084FEA3202B6EBD7
:1007A000020E75EB030E22BFB61A754640EA9C0096
:1007B0005B084FEA3202B6EB020E75EB030E22BF66
:1007C000B61A754640EADC0055EA060E18D04FEA24
:1007D000051545EA16754FEA06164FEAC30343EAC4
:1007E00052734FEAC2025FEA1C1CC0D111F4801F91
:1007F0000BD141EA00014FF000004FF0004CB6E78A
:1008000011F4801F04BF01430020B4F1FD0C88BF28
:10081000BCF5E06F3FF6AFAEB5EB030C04BFB6EB33
:10082000020C5FEA500C50F1000041EB045170BD26
:100830000EF0004E4EEA113114EB5C04C2BFD4EB53
:100840000C0541EA045170BD41F480114FF0000ED7
:10085000013C90E645EA060E8DE60CEA135594EA53
:100860000C0F08BF95EA0C0F3FF43BAF94EA0C0F56
:100870000AD150EA01347FF434AF95EA0C0F7FF4CB
:1008800025AF104619462CE795EA0C0F06D152EA1F
:1008900003353FF4FDAE1046194622E750EA410603
:1008A00018BF52EA43067FF4C5AE50EA41047FF414
:1008B0000DAF52EA43057FF4EBAE12E74FF0FF3C79
:1008C00006E000BF4FF0010C02E000BF4FF0010C4A
:1008D0004DF804CD4FEA410C7FEA6C5C4FEA430CC3
:1008E00018BF7FEA6C5C1BD001B050EA410C0CBF12
:1008F00052EA430C91EA030F02BF90EA020F002074
:10090000704710F1000F91EA030F58BF994208BFDA
:1009100090422CBFD8176FEAE37040F00100704797
:100920004FEA410C7FEA6C5C02D150EA013C07D1EE
:100930004FEA430C7FEA6C5CD6D152EA033CD3D039
:100940005DF8040B704700BF8446104662468C4633
:100950001946634600E000BF01B5FFF7B7FF002866
:1009600048BF10F1000F01BD4DF808EDFFF7F4FF8F
:100970000CBF012000205DF808FB00BF4DF808ED1A
:10098000FFF7EAFF34BF012000205DF808FB00BF3D
:100990004DF808EDFFF7E0FF94BF012000205DF85F
:1009A00008FB00BF4DF808EDFFF7CEFF94BF012014
:1009B00000205DF808FB00BF4DF808EDFFF7C4FF0D
:1009C00034BF012000205DF808FB00BF4A0011D2AF
:1009D00012F5001211D20DD56FF47873B3EB625299
:1009E0000ED44FEAC12343F0004343EA505323FAA5
:1009F00002F070474FF00000704750EA013002D11A
:100A00004FF0FF3070474FF0000070474FEA41024F
:100A1000B2F1E04324BFB3F5001CDCF1FE5C0DD95C
:100A200001F0004C4FEAC0024CEA5070B2F1004FA6
:100A300040EB830008BF20F00100704711F0804FA9
:100A400021D113F13872BCBF01F00040704741F46E
:100A500080114FEA5252C2F11802C2F1200C10FA72
:100A60000CF320FA02F018BF40F001004FEAC12356
:100A70004FEAD32303FA0CFC40EA0C0023FA02F3FA
:100A80004FEA4303CCE77FEA625307D150EA0133D0
:100A90001EBF4FF0FE4040F44000704701F00040A0
:100AA00040F0FE4040F40000704700BF80F000407E
:100AB00002E000BF81F0004142001FBF5FEA410336
:100AC00092EA030F7FEA226C7FEA236C6AD04FEA36
:100AD0001262D2EB1363C1BFD2184140484041407B
:100AE000B8BF5B42192B88BF704710F0004F40F42D
:100AF000000020F07F4018BF404211F0004F41F449
:100B0000000121F07F4118BF494292EA030F3FD014
:100B1000A2F1010241FA03FC10EB0C00C3F1200327
:100B200001FA03F100F0004302D5494260EB4000B6
:100B3000B0F5000F13D3B0F1807F06D340084FEA21
:100B4000310102F10102FE2A51D2B1F1004F40EB16
:100B5000C25008BF20F0010040EA0300704749007E
:100B600040EB0000013A28BFB0F5000FEDD2B0FA1B
:100B700080FCACF1080CB2EB0C0200FA0CF0AABF3E
:100B800000EBC25052421843BCBFD04018437047DC
:100B900092F0000F81F4000106BF80F400000132E2
:100BA000013BB5E74FEA41037FEA226C18BF7FEAB9
:100BB000236C21D092EA030F04D092F0000F08BFFB
:100BC0000846704790EA010F1CBF0020704712F0E2
:100BD0007F4F04D1400028BF40F00040704712F121
:100BE00000723CBF00F50000704700F0004343F086
:100BF000FE4040F4000070477FEA226216BF0846BC
:100C00007FEA23630146420206BF5FEA412390EA7E
:100C1000010F40F4800070474FF0000304E000BF74
:100C200010F0004348BF40425FEA000C08BF704725
:100C300043F0964301464FF000001CE050EA0102E9
:100C400008BF70474FF000030AE000BF50EA0102FE
:100C500008BF704711F0004302D5404261EB4101EB
:100C60005FEA010C02BF84460146002043F0B64310
:100C700008BFA3F18053A3F50003BCFA8CF2083A35
:100C8000A3EBC25310DB01FA02FC634400FA02FC3E
:100C9000C2F12002BCF1004F20FA02F243EB020045
:100CA00008BF20F00100704702F1200201FA02FCA7
:100CB000C2F1200250EA4C0021FA02F243EB02009A
:100CC00008BF20EADC7070474FF0FF0C1CEAD052DE
:100CD0001EBF1CEAD15392EA0C0F93EA0C0F6FD09F
:100CE0001A4480EA010C400218BF5FEA41211ED07D
:100CF0004FF0006343EA501043EA5111A0FB013169
:100D00000CF00040B1F5000F3EBF490041EAD3713D
:100D10005B0040EA010062F17F02FD2A1DD8B3F1B9
:100D2000004F40EBC25008BF20F00100704790F028
:100D3000000F0CF0004C08BF49024CEA502040EA7A
:100D400051207F3AC2BFD2F1FF0340EAC250704740
:100D500040F400004FF00003013A5DDC12F1190F7E
:100D6000DCBF00F000407047C2F10002410021FAF0
:100D700002F1C2F1200200FA02FC5FEA310040F108
:100D8000000053EA4C0308BF20EADC70704792F081
:100D9000000F00F0004C02BF400010F4000F013AB9
:100DA000F9D040EA0C0093F0000F01F0004C02BFB4
:100DB000490011F4000F013BF9D041EA0C018FE723
:100DC0000CEAD15392EA0C0F18BF93EA0C0F0AD029
:100DD00030F0004C18BF31F0004CD8D180EA01004F
:100DE00000F00040704790F0000F17BF90F0004FE8
:100DF000084691F0000F91F0004F14D092EA0C0FCA
:100E000001D142020FD193EA0C0F03D14B0218BF5C
:100E1000084608D180EA010000F0004040F0FE40A2
:100E200040F40000704740F0FE4040F4400070473E
:100E30004FF0FF0C1CEAD0521EBF1CEAD15392EABD
:100E40000C0F93EA0C0F69D0A2EB030280EA010CAD
:100E500049024FEA402037D04FF0805343EA111146
:100E600043EA10130CF000408B4238BF5B0042F1A4
:100E70007D024FF4000C8B4224BF5B1A40EA0C0049
:100E8000B3EB510F24BFA3EB510340EA5C00B3EB7B
:100E9000910F24BFA3EB910340EA9C00B3EBD10F69
:100EA00024BFA3EBD10340EADC001B0118BF5FEABB
:100EB0001C1CE0D1FD2A3FF650AF8B4240EBC250E4
:100EC00008BF20F0010070470CF0004C4CEA5020A5
:100ED0007F32C2BFD2F1FF0340EAC250704740F4F4
:100EE00000004FF00003013A37E792F0000F00F0E6
:100EF000004C02BF400010F4000F013AF9D040EA64
:100F00000C0093F0000F01F0004C02BF490011F4F7
:100F1000000F013BF9D041EA0C0195E70CEAD153EF
:100F200092EA0C0F08D142027FF47DAF93EA0C0FD6
:100F30007FF470AF084676E793EA0C0F04D14B02BA
:100F40003FF44CAF08466EE730F0004C18BF31F06C
:100F5000004CCAD130F000427FF45CAF31F0004366
:100F60007FF43CAF5FE700BF4FF0FF3C06E000BFFF
:100F70004FF0010C02E000BF4FF0010C4DF804CD22
:100F80004FEA40024FEA41037FEA226C18BF7FEA32
:100F9000236C11D001B052EA530C18BF90EA010F34
:100FA00058BFB2EB030088BFC81738BF6FEAE170C3
:100FB00018BF40F0010070477FEA226C02D15FEA5F
:100FC000402C05D17FEA236CE4D15FEA412CE1D0CB
:100FD0005DF8040B704700BF844608466146FFE792
:100FE0000FB5FFF7C9FF002848BF10F1000F0FBD74
:100FF0004DF808EDFFF7F4FF0CBF012000205DF86D
:1010000008FB00BF4DF808EDFFF7EAFF34BF0120F1
:1010100000205DF808FB00BF4DF808EDFFF7E0FF8A
:1010200094BF012000205DF808FB00BF4DF808EDDB
:10103000FFF7D2FF94BF012000205DF808FB00BF3E
:101040004DF808EDFFF7C8FF34BF012000205DF820
:1010500008FB00BF4FEA40024FEA41037FEA226CDF
:1010600002D15FEA402C08D17FEA236C02D15FEA0B
:10107000412C02D14FF0000070474FF00100704743
:1010800042000ED2B2F1FE4F0BD34FF09E03B3EBF2
:10109000126209D44FEA002343F0004323FA02F01E
:1010A00070474FF00000704712F1610F01D142020A
:1010B00002D14FF0FF3070474FF00000704700BF83
:1010C00010B5054C237833B9044B13B10448AFF382
:1010D00000800123237010BD70020020000000007A
:1010E00068B3000808B5034B1BB103490348AFF3CD
:1010F000008008BD000000007402002068B30008F2
:1011000007B506224FF4E1310E4806F06BFE0622C9
:101110004FF416510C4806F065FE00210B4801F013
:1011200009FA01233C2202210093094802F01AFC2B
:10113000074802F009FC3721064803B05DF804EBCC
:1011400003F05CB8400800206804002080050020FF
:10115000E8030020540400202DE9F043002585B069
:101160002E4F06462E4901A83D602C4607F01BF87D
:10117000DFF8B080B368AB4205D801A806F0D1FF14
:1011800005B0BDE8F0832946304607F08BF80378B8
:101190002C2B09D104F10109B9F1030F17DC204907
:1011A00001A807F02BF80FE02946304607F07AF83F
:1011B00003782A2BEED02946304607F073F80178E1
:1011C00001A807F043F8A1464C460135D2E7E31EDB
:1011D0003C6813F003034FEA041405D101A807F09B
:1011E0006FF848F80400DAE7012B0BD101A807F0EB
:1011F00073F844446060D2E701A807F06DF84444F6
:10120000A060CCE7022BF7D001A807F065F83B6897
:1012100044440133E0603B60C1E700BFA40200200A
:101220006ABA0008A802002038B50446224802F035
:101230008BFB0121204801F088FF00231E4D1F4930
:101240002B614FF0011328466B6106F061FE1C4BC9
:1012500002221968284606F021FF40231949284632
:101260002B6106F055FE184B02221968284606F03D
:1012700015FF4FF44023154928462B6106F048FE20
:10128000134B02221968284606F008FF4FF4B013EA
:101290002B6144B928460F4906F03AFEBDE83840B4
:1012A000054802F0EBBE012C02D10B490248F3E7DE
:1012B000022CF3D10949F9E7E803002090B80008AF
:1012C0009402002093B800089002002096B800080D
:1012D0008C0200209BB80008A1B80008AAB800083A
:1012E0001FB500220E490F4806F0FEFC06230B2214
:1012F000C1210D4802F072FF0C4B0D4A8021CDE94F
:1013000001324FF0FF33202200930A480A4B02F0CB
:1013100013FA0A490A4805B05DF804EB06F043BF2A
:10132000003801406804002054040020801A0600A0
:10133000A0860100E8030020800500206ABA0008AA
:101340009802002008B5044806F0EBFEBDE808400E
:10135000024802F01FBA00BF98020020E8030020F4
:101360001FB5164806F0BAFB08B904B010BD134803
:1013700006F086FDC1B20A291BD1114901A806F069
:1013800012FF104801A906F084FF044601A806F0E8
:10139000C8FE4CB10B4901A806F026FF01A8FFF7D3
:1013A000DBFE01A806F0BDFE0749064806F026FF51
:1013B000D7E7044806F04AFFD3E700BF68040020DF
:1013C000B5B80008980200206ABA00082DE9F0417B
:1013D00094B0FFF7C5FF00222E48114602F0CCFF63
:1013E000DFF8B4800021C8F800002A4803F04CF868
:1013F0002A4C2B4F2B4E38603168204600F08AF87B
:10140000294B05461860D8F80000FEF7EDFFCDE93E
:1014100006013868FEF7E8FFCDE90801A068FEF78D
:10142000E3FFCDE90A016068FEF7DEFFCDE90C01BC
:101430002846FEF7D9FFCDE90E012068FEF7C2FF6E
:10144000CDE910013068FEF7BDFFCDE91201694614
:1014500006A800F0ADF8DDE90023DDE90201FFF7A1
:10146000ABFA041E18BF0124DDE9040114AB03EB41
:10147000C40353E91423FFF79FFA00280CBF20464A
:101480000220FFF7D1FE4FF4FA6007F055F814B0D0
:10149000BDE8F0815404002094020020A80200203E
:1014A00090020020A40200208C0200207FB504AC32
:1014B00004E90F00431E1F2B20D8019D1149284627
:1014C000FFF7A0FD0446C8B928460F49FFF7B8FD4D
:1014D000B0B9029E00213046FFF794FD044668B97A
:1014E00030460A49FFF7ACFD50B909490398FFF7A8
:1014F000A7FDB0FA80F0400904B070BD0020FBE702
:101500002046F9E70000204100008C420000B4436F
:10151000000070422DE9F0410E46044600270025E8
:10152000B74202DB2846BDE8F08194E80F00FFF7E0
:10153000BDFF38B1D4F80C8029464046FFF780FD46
:1015400000B1454601371034EAE72DE9F04117466E
:101550004FF00008A0F10804A1F10805A3F1080666
:10156000B84501DBBDE8F081F5E90223F4E90201A9
:10157000FEF7DCFD08F10108E6E90201F0E72DE9DC
:10158000F843904699460027099D089EA0F108045B
:10159000083DB74201DBBDE8F883F4E902014246A9
:1015A0004B46FEF779FF0137E5E90201F1E700005C
:1015B0002DE9F04F84A3D3E90023D0E90645D0E913
:1015C0000AABC1B00646039120462946FFF7E0F971
:1015D000002800F09B80D6E908897DA3D3E9002389
:1015E00040464946FFF7D4F9B8B37BA3D3E90023BB
:1015F00040464946FFF7CCF900B3D6E90001002286
:101600008D4BFFF7C5F93AAFA8B1DFF830C2BCE89F
:101610000F000FC79CE8030087E803000DF1700C72
:101620000DF1E80EBEE80F00ACE80F0097E80300EC
:101630008CE8030039E1DFF808C2E8E7404668A318
:10164000D3E900234946FFF7A3F93AAF10B1DFF819
:10165000F4C1DCE7DFF8F0C1D9E7504662A3D3E973
:1016600000235946FFF794F970B161A3D3E9002331
:1016700020462946FFF78CF93AAF10B1DFF8CCC10C
:10168000C5E7DFF8CCC1C2E740465BA3D3E900233E
:101690004946FFF77DF93AAFA8B3DFF8B8C1BCE817
:1016A0000F000FC79CE8030087E803000DF1700CE2
:1016B0000DF1E80EBEE80F00ACE80F0097E803005C
:1016C0008CE80300002250465946634BFFF760F94F
:1016D000002800F0BE814AA3D3E90023D6E908011F
:1016E000FFF756F948A3D3E90023002800F0A581AD
:1016F00050465946FFF74CF9002800F09581DFF875
:101700005CC13AAF46E1DFF858C1C8E740A3D3E96E
:101710000023D6E90001FFF73BF900283DD0D6E9C8
:1017200008893DA3D3E9002340464946FFF730F935
:1017300070B13BA3D3E9002340464946FFF728F99F
:101740003AAF10B1DFF81CC161E7DFF81CC15EE7FA
:10175000504635A3D3E900235946FFF719F93AAFAC
:1017600010B1DFF808C152E7DFF804C1BCE80F0090
:101770000FC79CE8030087E803000DF1700C0DF122
:10178000E80EBEE80F00ACE80F0097E803008CE815
:101790000300DFF8E0C03AAFFCE0204624A3D3E921
:1017A00000232946FFF7F4F800286BD000225046AA
:1017B0005946314BFFF7ECF83AAF10B1DFF8BCC037
:1017C00025E7DFF8BCC0D1E70000000094613D4090
:1017D0000000000000285540000000E07A2C544032
:1017E000000000305CE754400000000000C04040B2
:1017F000000000B047013D40000000F0515057404C
:10180000000000A070CD4F40000000C04157424092
:1018100000000020854B3F4000000080EB615040FD
:1018200000000010AE1750400000000000C046400D
:10183000000000E051983F4000003D4080B30008A8
:1018400098B30008B0B30008C8B30008E0B30008BC
:10185000F8B3000810B400080040454048B500083F
:1018600028B4000840B4000858B4000870B4000858
:1018700088B40008D8B5000800404640A0B400086D
:10188000B8B4000886A3D3E90023D6E90801FFF71E
:101890007FF8002877D00022974BCDE91C23002247
:1018A0000023CDE91E23CDE92023002250465946CE
:1018B000924BFFF76DF800283FF404AFD6E9088992
:1018C00079A3D3E9002340464946FFF761F8002891
:1018D00000F0888076A3D3E9002340464946FFF70D
:1018E00057F800286AD074A3D3E90023404649463C
:1018F000FFF74EF800284AD00022002300207E493E
:10190000CDE92223CDE92401CDE92623032216AB1C
:1019100022A91CA8FFF719FED6E9088968A3D3E914
:10192000002340464946FFF733F8002800F05B816A
:1019300065A3D3E9002340464946FFF729F800286C
:1019400000F0458162A3D3E9002320462946FFF732
:101950001FF8002800F0F080DFF8A4C13AAFBCE81F
:101960000F000FC79CE8030087E803000DF1A00CEF
:101970000DF1E80EBEE80F00ACE80F0097E8030099
:101980008CE80300E2E0DFF87CC13AAF3FE6DFF825
:1019900078C13AAFBCE80F000FC79CE8030087E8A6
:1019A00003000DF1880C0DF1E80EBEE80F00ACE865
:1019B0000F0097E803008CE80300A7E700225046D9
:1019C0005946524BFEF7E4FF40B100220023CDE917
:1019D0002223CDE924230022474B95E7DFF830C1CD
:1019E0003AAFD7E70022504659464A4BFEF7D0FFA0
:1019F00060B139A3D3E9002320462946FEF7C8FF8A
:101A00000028E2D1DFF810C13AAFC3E7204634A383
:101A1000D3E900232946FEF7BBFF00283FF46CAF53
:101A2000DFF8F8C03AAFB5E70022334BCDE9222307
:101A300000220023CDE9242366E750465946FEF7ED
:101A4000A7FF3AAF10B1DFF8D8C0A3E7DFF8D4C0E2
:101A5000A0E7002250465946334BFEF799FF70B17C
:101A600021A3D3E90023D6E90201FEF791FF3AAFA3
:101A700010B1DFF8B8C08DE7DFF8B4C08AE72046C0
:101A80001BA3D3E900232946FEF782FF00283FF479
:101A900080AEDFF8A0C03AAF7CE700BFAFF30080B4
:101AA000000000703D3A4D4000000050B8365440F0
:101AB00000000000AAF35140000000E04DD4514066
:101AC00000000090EB3150400000002085DB4F40CB
:101AD00000000080EBF13C40000000E0A3703C40BF
:101AE0000000006023643D40000000703D6A4C40EF
:101AF00000000010AE273D400000F03F00803F4056
:101B0000F0B50008D0B40008E8B4000800803B40FD
:101B100000B5000800803D4018B5000830B5000849
:101B200060B5000878B500080040464090B5000850
:101B3000A8B50008C0B500080022B54BCDE92823A0
:101B400000220023CDE92A23CDE92C23032210AB68
:101B500028A916A8FFF7F9FC002250465946AD4BBC
:101B6000FEF716FF002800F0E4808DA3D3E90023E0
:101B700020462946FEF70CFF002800F09B808AA330
:101B8000D3E9002340464946FEF702FF002800F053
:101B9000838087A3D3E9002340464946FEF7F8FE39
:101BA0000DF1E80C002875D09B4F0FCFACE80F006B
:101BB00097E803008CE803000DF1B80E3AAF0FCFA1
:101BC000AEE80F009CE803008EE803007CE00022F2
:101BD00050465946914BFEF7DBFE0028ACD0DFF8AB
:101BE00040C23AAFBBE6002250465946894BFEF749
:101BF000CFFE48B370A3D3E9002320462946FEF761
:101C0000C7FEA0B16EA3D3E9002340464946FEF7C4
:101C1000BFFE40B10022002300207D49CDE92823EA
:101C2000CDE92A0190E7DFF8FCC13AAF97E62046FC
:101C300065A3D3E900232946FEF7AAFE0028E9D0D0
:101C4000DFF8E4C13AAF8AE6204661A3D3E9002376
:101C50002946FEF79DFE70B15FA3D3E90023D6E9C4
:101C60000001FEF795FE3AAF10B1DFF8C0C176E68D
:101C7000DFF8BCC173E6504659A3D3E900235946A7
:101C8000FEF786FE3AAF10B1DFF8A8C167E6DFF8CD
:101C9000A8C164E6694F88E753A3D3E90023D6E9D6
:101CA0000201FEF775FE0DF1E80C08B1644F7CE708
:101CB000644F7AE70022002300205549CDE92E2306
:101CC000CDE93001CDE932230AAF3B4603222EA9EC
:101CD00010A8FFF73AFC0022504659464D4BFEF73C
:101CE00057FE002800F01B8133A3D3E900232046D0
:101CF0002946FEF74DFE002800F0DE803CA3D3E924
:101D00000023D6E90001FEF743FE002800F0C8805A
:101D1000474D3AAC0FCD0FC495E8030084E80300AB
:101D200034AD3AAE0FCE0FC594E8030085E803004A
:101D3000D7E0002250465946434BFEF729FE0028C3
:101D400000F08A802CA3D3E9002340464946FEF7E1
:101D50001FFE68B12AA3D3E9002320462946FEF7D7
:101D600017FE0DF1E80C08B1384F1EE7384F1CE79D
:101D7000204625A3D3E900232946FEF709FE40B1FA
:101D800000220023CDE92E23CDE930230022204B71
:101D900098E7304F0DF1E80C07E700BFAFF3008084
:101DA000000000E07A943D40000000000010544024
:101DB00000000000AAF351400000006023643D4091
:101DC000000000A043A551400000002085AB3D402D
:101DD000000000E07A143940000000B0707D3E4001
:101DE0000000000000C04640000000303373334064
:101DF00000000090C2F5F03F000000A070CD4F4001
:101E000000000040E17A3D40000000D0A3103940BE
:101E10000000F03F00803F40B0B6000800004540A1
:101E200008B6000820B6000838B6000850B600080A
:101E300068B6000880B6000898B60008C8B6000862
:101E4000E0B60008F8B600080040454010B70008AA
:101E500028B7000840B70008204659A3D3E900235B
:101E60002946FEF795FD68B157A3D3E90023204624
:101E70002946FEF78DFD0DF1E80C08B1664F94E69A
:101E8000664F92E6204652A3D3E900232946FEF787
:101E90007FFD0DF1E80C08B1614F86E6614F84E6E5
:101EA000002250465946604BFEF772FD3AAC08B12D
:101EB0005E4D2FE75E4D2DE7204647A3D3E9002373
:101EC0002946FEF765FD10B15A4D3AAC22E70022D3
:101ED000002300205849CDE93423CDE93601CDE96E
:101EE0003823032238463AAB34A9FFF72EFB0323ED
:101EF00004AC009301943AA3D3E900233AA8FFF776
:101F00003EFB2246039B144603CCBC42186059603A
:101F1000224603F10803F6D141B0BDE8F08F4046F8
:101F200031A3D3E900234946FEF732FD40B330A385
:101F3000D3E90023D6E90401FEF72AFD60B12EA300
:101F4000D3E9002320462946FEF722FD3AAC08B12A
:101F50003A4DDFE63A4DDDE6204629A3D3E90023DA
:101F60002946FEF715FD10B1364D3AACD2E60022F7
:101F7000314BCDE9342300220023CDE93623AEE7EF
:101F8000002250465946304BFEF702FD60B11EA3B9
:101F9000D3E9002320462946FEF7FAFC3AAC08B103
:101FA0002A4DB7E62A4DB5E6404619A3D3E90023EA
:101FB0004946FEF7EDFC002889D0264D3AACA9E64B
:101FC00000000010D7233D40000000D0F5C83C4081
:101FD000000000D0A3503F40000000E07A943D4054
:101FE0009A9999999999C93F000000909969504030
:101FF00000000000D751764000000010D7C33C40DD
:1020000000000090C2353E40000000706606394076
:1020100000000080BE41524058B7000870B7000869
:1020200088B70008A0B7000800803E40B8B7000895
:10203000D0B70008E8B700080000F03F00B800087B
:1020400018B8000830B800080040474048B80008F9
:1020500060B8000878B8000800207047028BC08A7A
:10206000101A70470346C28A018B914281BF0169F1
:10207000885C0132DA8298BF4FF0FF307047028BE4
:10208000C38A9A4286BF0269D05C4FF0FF30704726
:10209000806DD0F8DC302BB10023D43020F8B23C76
:1020A000C36818477047836810B5044613B103220C
:1020B00001469847204610BD70B54FF47A730E461E
:1020C0000021C0E90113034615462B4A044643F894
:1020D000C42BC0F8C4109C22C3E90111C0E934111B
:1020E000C0E93611C0F8E010283007F0CDFAF3B29D
:1020F000222B19D8214A06F4E06652F823301E43F9
:10210000EBB2222BC4F8846022D81C4A05F4E065A7
:1021100052F823301D4300232046C4F88850E36161
:1021200023842361A38270BD06F0C002C02A0CD1B3
:10213000C92B0AD8124B06F03F0253F822200F4B4E
:1021400006F4E06653F82230D9E74FF0FF36D7E7C0
:1021500005F0C002C02A0CD1C92B0AD8084B05F0E3
:102160003F0253F82220054B05F4E06553F8223076
:10217000D0E74FF0FF35CEE784BA0008C4C90008A5
:102180009CC9000838B50446283000F09FFAE06981
:1021900018B106F0FFF90023E361002520692584CA
:1021A00010B106F0F7F92561A58238BD38B50546AE
:1021B0000446074B45F8D43BFFF7E4FF2846FFF7FA
:1021C00072FF04F1C400FFF76EFF204638BD00BF68
:1021D00084BA000838B5044600F12805284600F006
:1021E000B3FA94F8BE304BB92846054900F065FBB8
:1021F0002846BDE83840034900F058BB38BD00BF51
:10220000912000083D2200080123994080F82430E5
:10221000002381764384704738B5838A05468B4214
:102220000C4609D2202938BF20240069214606F037
:1022300067FA10B12861AC8238BDFEE773B5846DD2
:102240000546D4F8CC30866EE3B1E28A238B9A42FD
:1022500018D331462046FFF7DFFF3246206905F1EB
:10226000740107F0B6FA0023E382D4F8CC30268359
:1022700001960BB909F074F8D4F8D03001A904F133
:10228000C400984702B070BDB1F5806F70B50546C7
:102290000C4610D8038C99420AD920290E4638BF23
:1022A0002026C069314606F02BFA18B1E8612E8469
:1022B000204670BDFEE70024FAE713B590F82430FD
:1022C00004468DF807107BB1418C0131FFF7DCFF2C
:1022D00040B10120638C9DF80710E269D154638CF2
:1022E0000133638402B010BD01220DF107012830D3
:1022F00000F052FAB0FA80F04009F3E770B590F8B8
:10230000243004460E46154693B1418C1144FFF724
:10231000BBFF10B90025284670BD638CE0692A46D2
:102320001844314607F055FA638C2B446384F2E776
:1023300092B2283000F030FA0028EBD1EBE70346E8
:10234000006918B100219A8A07F09EB970470346C8
:10235000C06918B100211A8C07F096B9704738B5DA
:102360000446D1B94FF42A03A36594F8BE30012B7B
:1023700016D1638CE269A17E04F1280000F045FAD1
:10238000042828BF0420C5B22046FFF7E0FF002341
:10239000638484F82430284638BD4FF02A43E3E7AD
:1023A0000425F8E70121FFF7DABF38B50025044618
:1023B000C5820583FFF7C3FF20466584FFF7C7FF8B
:1023C00038BD0000F8B50446D0F8840005F09CFF45
:1023D000002105F0D9FFD4F88420C2F30313042BA5
:1023E00048D8284D284E55F8233002F00F029B683C
:1023F00056F82220DB4303EA12239BB2002B3FD086
:10240000D4F8880005F080FF012105F0BDFF1F4BC7
:10241000D4F888001B681E4CC0F30311B3FBF4F31F
:102420000A24042904FB03F300F00F0225D8142723
:1024300056F82220174CC2F30F2255F821C0CCF8D1
:102440001420D4F804E06668A6EB0E06B342FADC6A
:10245000CCF81020D4F804C06668A6EB0C06B34292
:10246000FADC013FE9D105F04FFF3946BDE8F840FD
:1024700005F08ABF00239B68FFDE00235B61FBE75A
:10248000F8BD00BF0800002030C50008240000206F
:1024900040420F00001000E02DE9F0410025044605
:1024A000C58205831F460E469046FFF748FF20462B
:1024B0006584A576FFF74BFFD4F8DC30C4F8804084
:1024C00033B104F1D401032208469847C4E93755D3
:1024D0000023012E84F824304FEA460384F8253087
:1024E0000CBF0123002384F8BF8084F8BE3084F839
:1024F000C07002D12046FFF765FF04F12805284689
:1025000094F82520084900F029F894F8BE304BB91A
:102510002846064900F0D1F92846BDE8F0410449B3
:1025200000F0C4B9BDE8F081A08601009120000848
:102530003D2200080A4600230121FFF7ADBF00003D
:10254000032202210148FFF7B7BD00BF800500202C
:102550000148FFF72BBE00BF80050020F7B50D46F0
:1025600017460446002800F09F805049C06D04F0D3
:10257000B5FE4F490646206E04F0B0FE0146002E1F
:1025800000F09280002800F08F80304604F0BDFEFD
:102590002060002800F08880464B261D984260D1BC
:1025A00003F5DE33DA6942F40012DA61DA6902F423
:1025B00000120092009A1A6942F400121A611A6914
:1025C00022F400121A6142F21F03A4F864303A4B5D
:1025D0001E603749206E04F069FE3449E06D04F056
:1025E00065FE364B21689D4258D9354B9D4203D933
:1025F000344B9D4288BF00234FF480420025C4E93C
:1026000001134FF48043C4E9053594F89730022153
:102610005B1B18BF01239B01236294F89830C4E927
:1026200003275B1B18BF0123DB0163622A4694F971
:102630006400E56184F8415001F0BCFF94F9640046
:1026400001F0E8FF2A46022194F9650001F0B2FF8B
:1026500094F9650001F0DEFF304602F0F9F8F8B1B8
:10266000FEE7194B9842B4D103F5DC33DA6942F442
:102670008002DA61DA6902F480020192019A1A6931
:1026800042F480021A611A6922F480021A6142F24D
:102690002123A4F86430084B5E609AE70022ADE77E
:1026A0000223A06684F8953003B0F0BD6CC9000821
:1026B0003CC900080054004064060020A0860100C8
:1026C000801A060040420F000058004010B5044632
:1026D00090F9640001F0ACFF94F9650001F0A8FFE7
:1026E000201D02F05EF90321206E04F01FFD03217E
:1026F000E06D04F01BFD2368104A93420DD1104B8E
:102700001A6942F400121A611A6922F400121A615D
:10271000DA6922F40012DA6110BD0A4A9342FBD151
:10272000074B1A6942F480021A611A6922F4800286
:102730001A61DA6922F48002EDE700BF005400401C
:102740000010024000580040104B10B5994204465A
:1027500006D90F4B994203D90E4B994288BF0023EB
:102760006068026822F001020260A360074B201D2E
:10277000994294BF002101218903E16002F068F8C9
:102780006268136843F00103136010BDA086010066
:10279000801A060040420F00202A30B514D80023CA
:1027A0009CB2A24207D890F894301344DBB280F870
:1027B0009430002030BD90F89440CD5C1C4404441B
:1027C00084F874500133EBE70120F3E710B564237C
:1027D0000446043002F0FEF8022810D0032806D088
:1027E00090B194F84130202B18BF042004E094F8F5
:1027F0004130202B18BF052008BF022004E094F8C8
:102800004130202B18BF062010BD2DE9F3470446A8
:102810000E4691461F4601F0B5FE80463FB90122A3
:102820003146204602B0BDE8F047FFF7CFBF002594
:10283000D4F830A004343B464A4631462046CDF811
:1028400000A002F073F9022807D101F09BFEA0EB73
:102850000805642DEFD906201FE008BB01F092FEA9
:102860000646204603F0BAF8202809D0632D07D881
:1028700001F088FE851B204603F0B3F80028F0D055
:10288000204603F0AEF8632D0CD882060AD4430725
:102890000AD4003818BF0120800002B0BDE8F087DC
:1028A0000420FAE70520F8E70320F6E720B119B184
:1028B000C166043002F018BA704720B119B101673F
:1028C000043002F011BA704770B590F891300446A8
:1028D000012B0D46A0F1040609D1436E3BB1836E76
:1028E00030469847022384F89130002363668DB9FF
:1028F000E36E84F891501BB1304684F890509847AD
:10290000204694F8902004F170012023BDE8704027
:1029100002F074B900230122636684F89120616E8D
:102920002046743131440423BDE8704002F0A1B95F
:1029300010B590F891300446012B04D1436E13B1C9
:10294000836E04389847022384F891300023204690
:102950006366BDE8104002F0C7B9436E1F2BDEBFAF
:10296000436E0133436690F89130012BDAB205D102
:10297000416E04237031014402F07BB9704700239B
:1029800080F89030704790F892300BB902F0ACB9F3
:1029900070470000014B186802F026BB6406002057
:1029A000014B186802F07ABF64060020014B58689A
:1029B00002F01ABB64060020014B586802F06EBF9B
:1029C0006406002070472DE9F04F1E4685B0BDF922
:1029D0003840A6EB0109A4EB0208B8F1000FB8BF1C
:1029E000C8F10008B9F1000FBDF83C30B8BFC9F11B
:1029F0000009C8451746154600938246A44632464C
:102A00000B4605DC22463B4634460F4666462946C1
:102A1000A74208DC1D4613462A4635460E4629467F
:102A200025463C462F469B1A3D1B83EAE372A8B21B
:102A3000A2EBE3722BB2C5F3C0351D448E42B4BF86
:102A400001234FF0FF33019002926D100393BC42BB
:102A500002DD05B0BDE8F08FDAF80030C845C7BF29
:102A60002246314632462146D3F818B05046009BE4
:102A7000D847029BED1AABB22DB2002D05DA039AAE
:102A80001644019A36B213441DB2013424B2DEE773
:102A9000704710B404682469A44610BC604730B481
:102AA000BDF8085004680295A46BA44630BC60478A
:102AB00030B4BDF8085004680295E46BA44630BCFD
:102AC000604770B4BDF90C50BDF810600468CDE9E2
:102AD0000356246CA44670BC60472DE9F3411C46A4
:102AE000164605460F460368013CBDF820805B6929
:102AF0003444984724B22B68CDF8048000942846CB
:102B00009C6A32463B463946A04728462B68DB6A1A
:102B100002B0BDE8F04118472DE9F34104461746DD
:102B20001D460E460368BDF820805B699847226801
:102B3000CDE900786B1E33442046956A31463A460B
:102B40001BB2A84720462368DB6A02B0BDE8F0410B
:102B500018472DE9F3471E4603680C465B69054696
:102B60001746BDF92880BDF82C9098472644B442FA
:102B70002B6805DB2846DB6A02B0BDE8F047184742
:102B8000CDF800902146D3F820A03A464346284687
:102B90000134D04724B2EAE713B50191B0F90E1021
:102BA00002680091146C0022B0F90C301146A04765
:102BB00002B010BD2DE9F34704460F4616461D46E8
:102BC0000368BDF82C805B69BDF92890984723689D
:102BD000CDF80080324639462046D3F824A02B4653
:102BE000D047236809F1FF32CDF8008032443946DE
:102BF0002046D3F824A012B22B46D0472368CDF844
:102C00000080324639462046D3F820A04B46D047B4
:102C1000013D2368E919CDF8008020461D6A32463F
:102C20004B4609B2A84720462368DB6A02B0BDE8DC
:102C3000F047184770472DE9F74399421546074674
:102C40000C469846BDF92860BDF82C90026810D15A
:102C5000B542DEBF33462E461D46CDF828906B1C8C
:102C6000956B3246AC469B1B1BB203B0BDE8F043EC
:102C70006047B5420ED19942DCBF1C468846CDF86C
:102C80002890D66B0134A4EB08042A464146B4468A
:102C900023B2EAE7536998473B68CDE900693846B3
:102CA0009E6A2A4643462146B04738463B68DB6A5F
:102CB00003B0BDE8F043184701F003038376B0F991
:102CC0000830C90758BF1946B0F90A205CBF13463F
:102CD0000A46C3818281704730B500240181818119
:102CE0004FF0FF31054D4281C281054A4460C0E981
:102CF0000512056004610477046230BDB0BA0008B3
:102D0000010100012DE9F04F0026B046354687B09D
:102D10000393BDF84830BDF9409004930368CDE9B2
:102D200001125B690446BDF944A0984719F10703F5
:102D300048BF09F10E03DB100093029B03EB08026E
:102D40000FFA88F39A4512B221DD039B002703EBAB
:102D5000060B14E059070BBFDB106D001BF8035086
:102D6000EDB22B060AD5019B0592D919236820469E
:102D70009B6909B29C46049BE047059A01373BB228
:102D80004B45E7DB009B08F101081E44D5E72046D0
:102D90002368DB6A07B0BDE8F04F18472DE9F04F14
:102DA00093B01E460392BDF87030026A8246BDF8A9
:102DB00074709DF878509DF87C4005910493002A2A
:102DC00040F0B980B0F90C308B4240F33881B0F953
:102DD0000E30039A934240F33281062303FB05131E
:102DE000002B40F32C81039B03EBC403002B40F327
:102DF0002681037F1BB9AF2E84BF0136F6B2DAF805
:102E0000003050465B69984705234FF000080A934D
:102E10008C4B06EB860633440E93BDF80C300693BC
:102E20000E9BBDF8146013F808304FF000090793AB
:102E30001FFA88F3089305FB03631BB20993082369
:102E40000B932BB20C9323B20D93079ADAF8003050
:102E5000D2074ED5012D06991FFA89F23BD1012CDC
:102E600039D10A440899D3F818B0049B314450462C
:102E700012B209B2D847079B09F101095B08079311
:102E80000B9B4FFA89F9013B13F0FF030B93DCD145
:102E90000A9B08F10108013B13F0FF034FFA88F881
:102EA0000A93BDD1049BBB420DD0012DDAF800304E
:102EB00034D1012C32D1711D00971C6A5046082371
:102EC000039A09B2A0475046DAF80030DB6A13B023
:102ED000BDE8F04F184702FB0412049901910D99C7
:102EE00050460091D3F81CB009990C9B12B2D847F8
:102EF000C1E7049ABA42BED0012D06991FFA89F2A1
:102F000008D1012C06D10A440899D3F818B03144ED
:102F10003B46ACE702FB04120197E0E705EB8502B4
:102F2000E400B11801970094DC6950462B46039ADF
:102F300009B2A047C7E70027137A5168F61A12684A
:102F4000F6B20C9231F8362001EBC60306929A785D
:102F500093F905600892DA7893F90630B946099337
:102F600045EA0403012B98BF4FF0000BB8460368F5
:102F70000D925B698ABF0796CDF81CB0DDF824B0CE
:102F80009847BDF814300A93334411930D9B98452C
:102F900099D2BDF80C3000260593059A08EB0B0377
:102FA00003FB04232AB21BB20F9222B20B9310929E
:102FB0003B4629E05A1CD2B25B070E9207D1069B12
:102FC00006990C9A01339BB212F80190069319F0FE
:102FD000800F12D0012DDAF800301FD1012C1DD145
:102FE0000999059A9B690A441199424471189C46B3
:102FF0005046049B12B209B2E0474FEA4909013634
:103000000E9B5FFA89F9F6B2089A9642D2D317441A
:1030100008F10108FFB25FFA88F8B7E7079A50464F
:1030200091190A9A01FB0521049A09B20192109A9A
:103030000092DB690B9A9C460F9BE047DDE713B0DB
:10304000BDE8F08F00BB0008F0B5026A04460B46ED
:1030500085B0002A34D10A2908D1438A0282427EEF
:1030600003EBC2036382012005B0F0BD0D29FAD045
:10307000E17E007E657E71B10626B4F9101006FB74
:103080000011B4F90C60B142C1BFB4F91210228230
:1030900001EBC5026282CDE90205E28A2046019277
:1030A000A28A0092B4F91220B4F91010FFF776FE4C
:1030B000237E228A03EB430302EB43032382D2E7FE
:1030C0000A2907D100230382417E127B438A01FB38
:1030D0000233C7E70D29C6D0117A8B42C3D3907A49
:1030E0009842C0D35568591AC9B205EBC105A978F1
:1030F00029B3E87818B3E07E267E677E90B195F913
:1031000005000844B4F9101006FB0011B4F90C00D6
:10311000814207DD00202082B4F91210127B02FBED
:1031200007126282CDE90267E28A20460192A28AF2
:103130000092B4F91220B4F91010FFF72FFE29798C
:10314000227E238A01FB0233B8E7012938BF01211F
:1031500001764176704700002DE9F0411C460123BD
:103160001646434A0D46C0E91B2300215C22074650
:10317000DDF8188006F088FAF3B2222B28D83D4AF1
:1031800006F4E06652F823301E43EBB2222BFE65B4
:1031900032D8384A05F4E06552F823301D43E3B2D3
:1031A000222B3D663CD8334A04F4E06452F82330C5
:1031B0001C435FFA88F2222A7C6645D82D4908F420
:1031C000E06351F8222013433846BB66BDE8F08126
:1031D00006F0C002C02A0CD1C92B0AD8264B06F033
:1031E0003F0253F82220234B06F4E06653F82230C6
:1031F000CAE74FF0FF36C8E705F0C002C02A0CD17D
:10320000C92B0AD81C4B05F03F0253F82220194B5A
:1032100005F4E06553F82230C0E74FF0FF35BEE714
:1032200004F0C002C02A0CD1C92B0AD8124B04F0FA
:103230003F0253F822200F4B04F4E06453F822308D
:10324000B6E74FF0FF34B4E708F0C003C02B0CD151
:10325000C92A0AD8084B08F03F0253F82210054A41
:1032600008F4E06352F82120ADE74FF0FF33ABE7FD
:1032700000093D00C4C900089CC9000837B50123F6
:103280000D460022074980F85120C16680F8703051
:1032900080F8712080F87250009500F075F803B046
:1032A00030BD00BF00093D001FB502AB83E806003A
:1032B000C16E029A0446914205D1026F03994A40B9
:1032C00032F07F4210D09A8802989B79E066A4F889
:1032D000702084F872300093204694F8703094F88F
:1032E0007120E16E00F050F804B010BD704707B5D2
:1032F000002A8DF807100DF107014FF001030CBFF4
:103300000A46002200F080F99DF8070003B05DF83E
:1033100004FB0000232307B5C6220093C721C52361
:103320000248FFF719FF03B05DF804FB6C060020AC
:1033300091FAA1F3B3FA83F370B50D0E0F2691FA4B
:10334000A1F1B1FA81F144599B0006FA03F3890017
:1033500024EA03048A402243425170BD0346074ACF
:1033600010684BB1064A934201D102F0ABBD054A49
:10337000934201D102F096BD704700BF24000020A7
:1033800000300140003800402DE9F74F0E46154649
:103390001F460446002800F0F2809249006E03F0B8
:1033A0009DFF91498146E06D03F098FF8F49834668
:1033B000606E03F093FF8E498046A06E03F08EFF8F
:1033C0008246B9F1000F00F0DA80BBF1000F00F087
:1033D000D680B8F1000F00F0D2805946484603F07D
:1033E00094FF51468146404603F08FFF01468046D8
:1033F000484603F08AFFA065B9F1000F00F0BF80D6
:10340000B8F1000F00F0BB80002800F0B880A26E79
:103410009DF83030511C0CBF4FF400724FF48022E5
:10342000002B14BF00234FF48273A26120606360FD
:10343000FFF794FFB6EB500F80F0A480B6EB900F2F
:1034400080F0A280B6EBD00F80F0A080B6EB101F0A
:1034500080F09E80B6EB501F80F09C80B6EB901FF2
:1034600080F09A80B6EBD01F2CBF30233823E36165
:10347000002D00F09380022D00F09280013D18BFD6
:10348000012501236D00C4E904530723E362B7FA61
:1034900087F300265B09DB01C4E908365149206E39
:1034A000A660A662E66003F001FF4F49E06D03F0FD
:1034B000FDFE4E49606E03F0F9FE2369B342636E70
:1034C00018BF0125C3F3031208BF0225042A8CBFCD
:1034D0003046484903F00F0398BF51F82200464A8E
:1034E000022D52F8231091FAA1F24FEA1163B2FAB9
:1034F00082F2C6584FF00F034FEA820203FA02F33A
:1035000091FAA1F2B2FA82F203EA06034FEA8202CA
:1035100023FA02F34FEA112544D0042B02D10822EA
:10352000FFF706FFC268012322EA050295FAA5F516
:10353000B5FA85F5AB401343C3602D49A06E03F087
:10354000B5FE23682D4A934235D12D4B9A6942F43A
:1035500080529A619A6902F480520092009ADA6865
:1035600042F48052DA60DA6822F48052DA6020464F
:1035700002F033FD2268136843F04003136003B088
:10358000BDE8F08F002372E7082370E710236EE791
:1035900018236CE720236AE7282368E72B4672E7A5
:1035A000002370E7042B02D10822FFF7C1FEC36895
:1035B00023EA0503C0E7134A9342D8D1104BDA69D6
:1035C00042F48042DA61DA6902F480420192019A9F
:1035D0001A6942F480421A611A6922F480421A611F
:1035E000C5E700BF18C60008E8C50008B8C5000850
:1035F00088C500080800002030C5000800300140E0
:1036000000100240003800402DE9F0410D461646FA
:103610001C4633B3076800F0B5FF8046BB689907C6
:10362000FCD5D5B115F8013B3B73BB68DA07FCD577
:103630003B7B0EB106F8013B00F0A4FFA0EB0800B5
:10364000B0F57A7F04F1FF3409D2002CE6D1204690
:10365000BB681B06FCD4BDE8F081FF23E4E7012032
:10366000F6E70220F7E7002910B51ADBB0F90C40A5
:103670008C4216DD002A14DBB0F90E40944210DDB6
:10368000847E022C0ED0032C15D0012C04D1048989
:10369000A41A013C0A4621B2012B12D0022B37D0CA
:1036A00013B310BD0489013C611A448909B2A21AFE
:1036B000013A12B2F0E74489013C641A114622B281
:1036C000EAE71346002AB0F90840B8BFD31D43F318
:1036D000CF0304FB0313C16A02F0070001228240FA
:1036E000C85C0243CA54DCE71346002AB0F908401C
:1036F000B8BFD31D43F3CF0304FB03130121C06AFA
:1037000002F007029140C25C22EA0102C254C8E7FB
:103710001346002AB0F90840B8BFD31D43F3CF03C6
:1037200004FB03110123C06A02F007029340425CCC
:1037300053404354B5E7000038B504461D46FFF733
:10374000CBFA114B114A236000239D4208BF154656
:10375000FF2284F8332084F836209DF910204FF69C
:10376000FF7184F83720059AA186A265069A204643
:10377000E265074AC4E90A5362660122A4F8682098
:10378000636284F86A3038BD08C0000880050020F4
:1037900000093D0010B50446C06A08B104F0FAFE05
:1037A000204610BD826AF8B504460D469AB190F9DC
:1037B00030101046FEF728FDA06A002103681B6840
:1037C0009847A06A294603681B689847A06ABDE825
:1037D000F840FEF7E7BD006C266D036823EA060398
:1037E0000360606A18B1BDE8F840FFF780BD0821AA
:1037F000D4E90E2380201668A76C054214BF3E430F
:10380000BE4316601E68E76C013946EA07061E6073
:103810001E68E76C4FEA500026EA07061E60EAD1F0
:10382000F8BD38B50446806A0D4678B1A16DFEF743
:10383000D1FCA5F15A012046C9B2FFF7B3FFA06A37
:1038400088B1E16DBDE83840FEF7C4BC606A18B1CC
:10385000D4E91912FFF728FD626C616D136823EA41
:1038600001031360E5E7626C616D1368606A0B43E6
:10387000136018B1BDE83840FFF738BD38BDF8B562
:103880000446806A0D468F1840B394F93010FEF755
:10389000BBFCA06A0021036801261B689847AF4261
:1038A000A06A03D1BDE8F840FEF77CBD202E0CD104
:1038B000FEF778FD94F93010A06AFEF7A5FCA06A27
:1038C0000021036801261B689847A06A15F8011BB0
:1038D000036801361B689847B6B2E0E7226C216D99
:1038E000136823EA01031360AF4200D1F8BD606A98
:1038F00015F8011B18B10022FFF7F9FCF4E70820C6
:10390000D4E90E238026D2F800C0D4F848E0314232
:1039100014BF4CEA0E0C2CEA0E0CC2F800C0D3F80F
:1039200000C0D4F84CE001384CEA0E0CC3F800C0DB
:10393000D3F800C0D4F84CE04FEA56062CEA0E0C3F
:10394000C3F800C0DFD1CFE7B0F90A300021DA1D9B
:1039500048BF03F10E02B0F90830D2105A43C06AD2
:1039600005F092BE2DE9FF411E46C36A04460F468C
:1039700015469DF82880B3B12046FFF7E5FFB4F95E
:103980000A00B4F9081020281FDC20230122CDE909
:103990000132732320387339009300EBD070B14BA0
:1039A00001EBD1711FE0B0F90A30D81D48BF03F117
:1039B0000E00B4F90830C010584304F0E3FDE06293
:1039C0000028D9D104B0BDE8F08140234FF0010CAC
:1039D000CDE9013C5223403852390093A24B00EB11
:1039E000D07001EBD17140F34F0241F34F012046FB
:1039F000FFF788F984F83170A76A002F6BD0002D8B
:103A000067D1B4F90A30202B14BF3D253C2584F83A
:103A10003050B8F1000F03D000213846FEF78AFD80
:103A2000DEB194F93700002817DB012104F0ACFC6B
:103A3000012194F9370004F005FD012004F07CFD1C
:103A4000002194F9370004F0FDFC0A2004F074FD15
:103A5000012194F9370004F0F5FCA06A002800F079
:103A60008D81A16DFEF7B6FB042220467F49FFF74A
:103A700006FF618920460139C9B2FFF793FE7C49F0
:103A800004222046FFF7FBFE94F931302046012B3B
:103A900014BF14211021FFF785FE0422204675492A
:103AA000FFF7EDFE8F23744A84F86030A3689342D9
:103AB00000F07C8102F50012934240F06C8194F991
:103AC0003130012B14BFCF239F23122584F860309F
:103AD0006DE16DB29BE7012194F9350004F054FCCF
:103AE000012194F9360004F04FFC94F8351094F954
:103AF0003520222910D8614B53F82130C3F303132A
:103B0000042B55D90C2323645C4B53F8212001234B
:103B100002F00F02934007E002F0C003C02B2AD04E
:103B20000C2323644FF4004394F8361094F93620A4
:103B30002229236545D8514B53F82130C3F3031391
:103B4000042B61D90C2363644C4B53F821200123CF
:103B500002F00F0293406365FA68656A1343FB60E5
:103B6000002D5DD0B8F1000F3FF45AAF0021284678
:103B7000FFF784FB54E7C929D2D8414B02F03F003C
:103B800053F820003D4B53F82030C3F30313042BAC
:103B90000ED90C23236402F0C003C02BC2D1384BD2
:103BA00002F03F0253F82220344B53F82220AEE7B4
:103BB0003448222950F8233003F10C032364A3D99D
:103BC000E9E702F0C003C02B10D00C23636402F0BD
:103BD000C003C02B21D1C9291FD8294B02F03F02B5
:103BE00053F82220254B53F82220B0E7C929ECD8FE
:103BF000234B02F03F0053F82000204B53F82030B5
:103C0000C3F30313042BE0D81E48222950F8237075
:103C100007F10C03636497D9D9E74FF400439AE79F
:103C2000012194F9330004F0AFFB012194F9340031
:103C300004F0AAFB94F8331094F93320222923D8F6
:103C40000E4B53F82130C3F30313042B5ED90C231E
:103C5000A3630A4B53F82120012302F00F02934083
:103C60001AE000BF7EC000085EC200087AC00008EB
:103C700076C0000872C0000880002000C4C9000897
:103C80009CC900080800002002F0C003C02B20D00F
:103C90000C23A3634FF4004394F8341094F93420B8
:103CA0002229A3643BD8614B53F82130C3F303139B
:103CB000042B57D90C23E3635C4B53F821200123D9
:103CC00002F00F029340E364EA6822EA0303EB6028
:103CD000A6E6C929DCD8564B02F03F0053F8200075
:103CE000524B53F82030C3F30313042B0ED90C238B
:103CF000A36302F0C003C02BCCD14D4B02F03F02B6
:103D000053F82220494B53F82220A5E7494822299D
:103D100050F8233003F10C03A3639AD9E9E702F0CA
:103D2000C003C02B10D00C23E36302F0C003C02BF0
:103D300021D1C9291FD83E4B02F03F0253F822205F
:103D40003A4B53F82220BAE7C929ECD8384B02F095
:103D50003F0053F82000354B53F82030C3F30313D2
:103D6000042BE0D83348222950F8235005F10C03E6
:103D7000E363A1D9D9E74FF40043A4E7606A18B11F
:103D8000D4E91912FFF790FA626C616D136823EAA7
:103D90000103136068E6284A934232D194F9313026
:103DA000012B14BFAF23102384F860300225DA21E1
:103DB0002046FFF7F7FC29462046FFF7F3FC812158
:103DC0002046FFF7EFFC204694F86010FFF7EAFC6E
:103DD000D9212046FFF7E6FC94F931302046012B2B
:103DE00014BFF1212221FFF7DDFC204606221349F2
:103DF000FFF745FDA06A70B1E16DFEF7EBF9012018
:103E0000E0E50F4A9342D1D194F93130012B14BF30
:103E1000CF23102359E6626C616D1368606A0B430F
:103E200013600028EBD0FFF761FAE8E7C4C9000887
:103E30009CC9000808000020600010006CC0000849
:103E40004000200070B5002ABDF8104022DBB0F918
:103E50000A5095421EDD0029BEBFC9180BB20021D1
:103E6000B0F908505E18AE42C4BF6B1A1BB2002BEB
:103E700010DDD61005FB0611C06A012C014402F0CA
:103E800007004FF0010202FA00F2D2B20CD0022C6D
:103E900001D094B170BD0B449942FBD011F8010BD5
:103EA000504001F8010CF7E70B449942F2D011F8A9
:103EB000010B104301F8010CF7E7D2430B44D2B2D7
:103EC0009942E7D011F8010B104001F8010CF7E717
:103ED000F0B50029BDF8145052DBB0F90860B142CA
:103EE0004EDA002ABEBF9B1800221BB2B0F90A406E
:103EF000D718A742C4BFA41A23B2002B40DDC2F3D7
:103F0000C40406FB0416C76A12F00702DBB207EB13
:103F100006041AD0C2F10802D2B2934238BF4FF061
:103F2000FF0C2D4938BFA2EB030E895C3CBF4CFA55
:103F30000EFC01EA0C01012D23D0022D2CD035B34B
:103F400093421DD3B0F908100C449B1ADBB2072B27
:103F50000ED9022D25D11A462178083AC94321707D
:103F6000B0F90810D2B2072A0C44F5D803F00703C1
:103F700033B11A4A012DD35C22D0022D28D01DB3B3
:103F8000F0BD17F806C041EA0C01B955D8E717F89B
:103F900006C02CEA0101F8E717F806C081EA0C0117
:103FA000F3E7291E18BF01211A464942C9B2217000
:103FB000083AB0F90860D2B2072A3444F7D8D5E7F6
:103FC000227813432370DBE7227822EA0303F9E720
:103FD00022785340F6E700BF64C000085CC00008C8
:103FE00030B41446827EBDF80850022A0DD0032A50
:103FF00018D0012A11D10289121B013A14B20A46C3
:104000000295214630BCFFF763BF42891944121B59
:10401000013A14B20289511A09B22246029530BC03
:10402000FFF710BF42891944511A09B2E7E730B4CB
:104030001446827EBDF80850022A0DD0032A18D0FB
:10404000012A11D102891C44141B24B20A4602958C
:10405000214630BCFFF7F6BE02891C44521A013AD1
:1040600011B24289141B24B22246029530BCFFF7DC
:104070002FBF4289521A013A11B2E7E7F8B5044658
:10408000806A00283BD0A16DFEF7A4F804222046E8
:104090005149FFF7F4FBB4F90830402B3CD1202103
:1040A0002046FFF77FFB21891F312046C9B2FFF769
:1040B00079FBD4E90A07B4F90A202589D31D48BF42
:1040C00002F10E03DB105D43ADB23D44002842D047
:1040D00094F93010FEF798F8A06A40210368012691
:1040E0001B689847AF42A06A1DD1FEF75BF9A06A32
:1040F000002864D0E16DBDE8F840FEF76BB8606A57
:1041000018B1D4E91912FFF7CFF8626C616D13682A
:1041100023EA01031360B9E700212046FFF742FBC1
:1041200021890139C1E7202E0CD1FEF73BF994F922
:104130003010A06AFEF768F8A06A402103680126E3
:104140001B689847A06A17F8011B036801361B68B3
:104150009847B6B2C6E7226C216D13680B43136013
:10416000AF42C4D0606A17F8011B18B10022FFF7F4
:10417000BEF8F5E70820D4E90E238026D2F800C067
:10418000D4F848E0314214BF4CEA0E0C2CEA0E0C75
:10419000C2F800C0D3F800C0D4F84CE001384CEAB3
:1041A0000E0CC3F800C0D3F800C0D4F84CE04FEABE
:1041B00056062CEA0E0CC3F800C0DFD1D0E7626CC3
:1041C000616D1368606A0B43136018B1BDE8F84075
:1041D000FFF78CB8F8BD00BF58C000088271054ACF
:1041E000417112680449B2FBF1F24FF47A714A430B
:1041F000C26070472400002040420F0038B50446DA
:104200000D464079022104F0BFF804F093F965747B
:10421000A0F5FA60A06038BD70B505460E460024D2
:10422000687904F049F9B04201D0204670BDEA68CF
:10423000631CA24201D91C46F2E74FF0FF34F4E7B9
:10424000F0B50D46D1B0044604F074F93DB9A36849
:10425000C31AB3F5FA6F02D2207C51B0F0BD00252D
:104260000221A06025606079257104F08DF801209D
:1042700004F062F90121607904F086F8294660793A
:1042800004F0E0F8A379394D153B012B28D8384AC2
:104290002B683849B3FBF2F340F24C425343486871
:1042A0004A68121A9342FBDC0221607904F06CF830
:1042B0002F4A2B682F49B3FBF2F3627C48685343C3
:1042C0004A68121A9342FBDC72B600212046FFF7BF
:1042D000A3FF013008D10023237462B60020BCE79D
:1042E000142004F029F9DFE701212046FFF794FFAD
:1042F0000130F0D06D466E46002700212046FFF7C2
:104300008BFF012130602046FFF786FF0237502FD8
:10431000706006F10806F0D162B60022D5E90060AF
:10432000711C01D0431C02D100232374D6E7D110A5
:10433000635C86424FEA4303DBB202F1010238BFFD
:1043400043F00103282A635405F10805E6D161789A
:10435000237822790B44A1780B44E1780B44DBB23B
:104360009A42E1D10120207477E700BF24000020A9
:1043700040420F00001000E0F8B50D461146064619
:10438000FFF75EFF38B1B379B4780C2BF77848D0DB
:1043900003D80B2B12D0384B41E0153B012BFAD838
:1043A000200200F4FE403843FCF736FCFCF71CF812
:1043B0002DA3D3E90023FCF76FF848E02046FCF773
:1043C0002BFC3906044604D501462C48FCF772FB49
:1043D000044607F00F00FBF7F5FF23A3D3E9002302
:1043E000FCF75AF8064620460F46FBF7FDFF0B4642
:1043F000024639463046FBF799FEFCF707FB0346B9
:104400006DB1FBF7F1FF1AA3D3E90023FCF744F8E1
:104410001B4B0022FBF78AFEFCF7F8FA034618460E
:10442000F8BD07F00F00FBF7CDFF0FA3D3E9002382
:10443000FCF732F8064620460F46FCF7EDFBFBF78B
:10444000D3FF02460B4630463946FBF76FFEFCF7BA
:10445000DDFA2206034644BF00F100400346002D6A
:10446000DDD01846CDE700BF9A9999999999B93F3F
:10447000CDCCCCCCCCCCFC3F0000C07F000080BFBA
:104480000000404000000000D0B50446FFF7D8FE11
:1044900020B1A3790C2B03D80A2B11D8164824E09D
:1044A000153B012BFAD8208840BA80B2FCF7B4FB48
:1044B000FBF79AFF0EA3D3E90023FBF7EDFF12E011
:1044C0006078FBF77FFF0AA3D3E90023FBF7E4FF43
:1044D000064620780F46FBF775FF02460B4630462E
:1044E0003946FBF723FEFCF791FAD0BDAFF300800D
:1044F0009A9999999999B93F0000C07F7047000037
:1045000038B50E4B05461A784FF47A73B3FBF2F3C5
:104510000B4A1068B0FBF3F000F09CF8044658B961
:104520000F2D09D8024629464FF0FF3000F042F81F
:104530002046044B1D6038BD0120FCE70000002030
:104540002400002004000020074A08B51368032057
:1045500043F01003136000F01BF80020FFF7D0FFBA
:10456000FFF7CCFF002008BD00200240034A044BA7
:1045700011681B780B441360704700BFE0060020F1
:1045800000000020014B1868704700BFE0060020C3
:1045900007490302CA6803F4E06322F4E0621204EC
:1045A000120C134343F0BF6343F40033CB607047F6
:1045B00000ED00E0154B30B5DC68C4F30224C4F113
:1045C0000703251D042B28BF0423062D4FF0FF35BC
:1045D00094BF0024033C05FA03F321EA0303A5403A
:1045E00022EA0502A340002843EA0203ACBF00F11F
:1045F0006040074A4FEA0313DBB2ABBF00F56140EE
:1046000000F00F0080F80033135430BD00ED00E0DF
:1046100014ED00E0002807DB01234109034A00F004
:104620001F00834042F82130704700BF00E100E0E6
:1046300000280CDB01220649430900F01F008240DC
:10464000203341F82320BFF34F8FBFF36F8F7047A4
:1046500000E100E00138B0F1807F0BD24FF0E023A1
:10466000F021054A586182F8231000200722986142
:104670001A6170470120704700ED00E0002808DB58
:1046800001224309034900F01F008240603341F8D2
:104690002320704700E100E0704708B5FFF7FCFFFA
:1046A00008BD704710B5044650B1437903F0FF02CE
:1046B00013B90271FFF7F5FF01230020637110BDEC
:1046C0000120FCE790F821200346022A06D00422AC
:1046D00082630120002283F8202070470268C06BAB
:1046E000116821F00E011160116821F001011160C3
:1046F00001211A6C01FA02F24260002083F82110B5
:10470000E8E7000008B590F82130022B03D004231D
:104710008363012008BD03681A6822F00E021A6044
:104720001A6822F001021A60174A93421FD014320D
:1047300093421ED0143293421DD0143293421DD0A6
:10474000143293421DD01432934214BF4FF0807341
:104750004FF480130D4A5360012380F82130002369
:1047600080F82030436B03B198470020D2E7012343
:10477000F0E71023EEE74FF48073EBE74FF480533C
:10478000E8E74FF48033E5E708000240000002400C
:1047900090F8210070470000044A08B551690142B1
:1047A00002D0506102F0CAFA08BD00BF0004014007
:1047B0002DE9F84606460F4691461D464FEA114A36
:1047C0003368BAF1010F39D15C6927EA0404A4B255
:1047D000B4FA84F46409A14501D0002024E06A1CE5
:1047E000EFD0FFF7CFFE089BC01AA84201D8002DDA
:1047F000E6D1BAF1010F336818D15B6927EA0303E8
:104800009BB2B3FA83F35B099945D9D100232022E7
:104810000120336386F83D2086F83E30326C86F8FE
:104820003C3042F020023264BDE8F8869B69DB43ED
:10483000C3F3400383F00103DBB2E5E79C69E44383
:10484000C4F3400484F00104E4B2C4E770470000FC
:1048500070B5044608B9012070BD90F83D3003F0F2
:10486000FF021BB980F83C20FFF7F0FF242384F8F7
:104870003D3023681A6822F001021A601A6842F477
:1048800000421A601A6822F400421A6001F00AFB22
:104890003F4B65689D4294BF3E4B3F4B98428CBF57
:1048A00000230123002BD6D1394E3C4BB542B0FB3F
:1048B000F3F388BF4FF496762268516821F03F01E8
:1048C00041EA030182BF73434FF47A76B3FBF6F3F8
:1048D0005160116A013321F03F010B431362D1692A
:1048E000431E2B4821F44F41854221F0FF0132D86D
:1048F0006D00B3FBF5F340F6FC700133034242D088
:10490000C3F30B031943D1611168D4E9073021F0D7
:10491000C00103430B4313609168D4E9030321F4FE
:104920000341034321F0FF010B439360D168D4E9B5
:10493000053021F0FF0103430B43D36013680020CF
:1049400043F0010313602023206484F83D3020638A
:1049500084F83E0080E7A06850B905EB4505B3FB3D
:10496000F5F30133C3F30B037BB143F40043C9E711
:1049700019206843B3FBF0F30133C3F30B0323B1F6
:1049800043F44043BEE70423BCE70123BAE700BF7A
:10499000A08601007F841E00FF083D0040420F00FA
:1049A000704710B5044698B12423026880F83D3062
:1049B000136823F001031360FFF7F2FF0020206467
:1049C00084F83C0084F83D00206384F83E0010BD6C
:1049D0000120FCE72DE9FF4704461F468946924621
:1049E000FFF7D0FD94F83D300546202B03D0022080
:1049F00004B0BDE8F0870090192301222046494900
:104A0000FFF7D6FE0028F2D194F83C30012BEED00F
:104A1000012384F83C30236800261A6809F0FE0957
:104A2000D2075EBF1A6842F001021A601A6822F4C7
:104A300000621A60242384F83D303B4B2664E36215
:104A400022684FF001111368204643F4807313600D
:104A50003B4600220095FFF7ABFE236838B11B6888
:104A60000320DB0544BF4FF400732364C0E7C3F8A1
:104A70001090FFF787FD4FF0A008054622685369A4
:104A80005269C3F34003C2F3802294F83D10A02979
:104A900001D013431DD04FF02008206884F83D80DA
:104AA000436913F0020F036843F40073036025D0D9
:104AB00000230393436901220393836919490393F4
:104AC000039B204619230095FFF772FE88B1012051
:104AD0008EE7FFF757FD401BB84200D80FB984F8A6
:104AE0003D80226853695269C3F34003C2F38022B8
:104AF000CBE784F83D8084F83C0079E76FF480636D
:104B0000012243610749192320460095FFF750FE13
:104B10000028DCD10136564592D384F83D8084F8D4
:104B20003C00D4E7020010000000FFFFF7B50025AD
:104B300004460095019594F83D500898202D02D028
:104B4000022003B0F0BD25682E68B60503D40828FE
:104B500001D001281BD146F2A817274E3668B6FBB4
:104B6000F7F619277E430196019E013E0196019EAC
:104B700056B92023266384F83D3084F83E60236CC8
:104B800043F020032364DBE7AE69B707ECD494F865
:104B90003C60012ED4D02E68F6075EBF2E6846F02A
:104BA00001062E602E6826F400662E60212684F809
:104BB0003D60102684F83E60002626646385638D80
:104BC000E06261642385236B62620093009B112B7A
:104BD00005D1B0F52A0F02D0B0F12A4F03D12B68CE
:104BE00043F480732B60002084F83C006B6843F42E
:104BF000E0636B60A5E700BF2400002037B50446E2
:104C000090F83D0000F02800282830D100292CD051
:104C1000002A2AD094F83C00012828D0256828686A
:104C2000C0075EBF286840F001002860286820F4B3
:104C300000602860292084F83D00202084F83E0090
:104C4000002020646285628DE36201906B6961627D
:104C50000193AB6984F83C000193019B6B6822854A
:104C600043F4E0636B6003B030BD0120FBE702203A
:104C7000F9E737B5044690F83D0000F028002828F1
:104C800030D100292CD0002A2AD094F83C000128E9
:104C900028D025682868C0075EBF286840F001005A
:104CA0002860286820F4006028602A2084F83D00ED
:104CB000202084F83E00002020646285628DE3623B
:104CC00001906B6961620193AB6984F83C000193C8
:104CD000019B6B68228543F4E0636B6003B030BDD9
:104CE0000120FBE70220F9E790F83D30202B14D19A
:104CF000282380F83D30036800201A68D2075EBF81
:104D00001A6842F001021A601A6842F480621A605E
:104D10005A6842F440725A607047022070477047E8
:104D20007047704790F83D2008B5036DD2B283B943
:104D3000C36C0268012B836C05D1DBB21361036D78
:104D40000233036508BDC3F307231361036D013309
:104D5000F7E7036D012B03D1836C0268DBB2F4E744
:104D6000036D022B2FD1222A05D10268136843F468
:104D700080731360EAE7438D9BB263B1212A0AD1A5
:104D8000436A026813F8011B11614362438D013BC2
:104D90009BB24385D6E7438D9BB2002BD2D1212A0B
:104DA000D0D10268516821F4E0615160116841F48A
:104DB000007111602022036380F83D2080F83E30AE
:104DC000FFF7AFFFBEE703685A69120644BF00222F
:104DD0001A61B7E770477047002337B546F2A8114C
:104DE00001932C4B406A1B6890F83D20B3FBF1F314
:104DF00023214B4301930368D2B2019941BB016C5B
:104E000041F020010164446B0CB10021A162816B6F
:104E100009B100258D621D6825F480651D6000259F
:104E2000458504B1656301B14D63196821F0010145
:104E3000196090F83D10602911D1202380F83D3091
:104E4000002380F83E300364FFF7C5FF03B030BD98
:104E500001990139019119688905CED4D3E702F08F
:104E60002802282A0ED1196841F001011960196839
:104E700041F4806119600023036380F83D20FDF751
:104E800082FDE3E7202380F83D30002380F83E30A8
:104E9000F5E700BF2400002010B590F83D2090F801
:104EA0003E300446102BD9B2D2B2036801D040295B
:104EB00013D1222A11D1196821F4006119605968AF
:104EC00011F4006106D1602A1EBF202284F83D2023
:104ED00084F83E100022226307E002F0280128290E
:104EE000EDD10022226384F83D105A6812F400626A
:104EF0004FD05A68606B22F400625A6090F82130FB
:104F0000012B374B2BD04363FFF7FCFB50B12268DA
:104F1000606B136823F001031360202384F83D3095
:104F2000436B9847236C19071FBF2268536823F40B
:104F3000E063536094F83D30226CDBB252070DD52C
:104F4000282B0BD1274B2022E3620023204623632A
:104F500084F83D2084F83E30FDF7EAFC10BDA06BDC
:104F60004363FFF7CFFB0028DCD023685A69510662
:104F700005D51A69636A1A70636A0133636222682D
:104F8000A06B136823F001031360202384F83D30E5
:104F9000C6E794F83D10602915D1202184F83D1012
:104FA00022645A69520605D51A69636A1A70636ADF
:104FB0000133636222682046136823F00103136003
:104FC000FFF709FFAEE75A69500605D51A69636A0B
:104FD0001A70636A013363622046FDF7D4FCA1E7CF
:104FE000D94D00080000FFFFF0B5044603688FB0FC
:104FF0005A68C66A90F83E0094F83D101028C5B271
:10500000C9B202D0402D40F0E5829F69586910F086
:10501000010F07D1B6F52A0F02D0B6F12A4F51D1B0
:105020000FB0F0BD96054DD5E26AB2F52A0F0CD14E
:105030000122E26294F83E20402A11D1226D52B939
:10504000626C02F0FE021A61EAE7E26AB2F12A4FEC
:10505000F0D10822EDE7626C42F00102D2B2F2E731
:105060002269B2F5804F1AD194F83D20212A626C52
:1050700011D102F0FE021A61626B0AB1926A2AB97A
:10508000A26B002ACCD0926A002AC9D05A6842F496
:1050900000625A60C4E742F00102D2B2EBE7226D2F
:1050A00032B9626CD21102F0060242F0F002CAE795
:1050B000226D012AB4D1626CD21102F0060242F0D4
:1050C000F102C0E7060703D5960501D5626CE4E757
:1050D000860740F1F080960540F1ED8094F83E108F
:1050E000E26A256B94F83D00C9B2222840F0DB80CB
:1050F000206D40B9402906D100905A6900929B6901
:105100000093009B8CE7216D89B92069B0F5404F71
:105110000DD101915A6901929A690192019A1A6816
:1051200042F480721A60236D0133236578E7618D44
:1051300089B251B902915A6902929A690292029A0D
:105140001A6842F400721A6019E0618D89B201296F
:1051500049D112F5803F1BD11A6822F480621A608F
:105160005A6812F400620CD01A6822F480621A6045
:10517000002203925A6903929B690393039B0023C5
:10518000D3E704925A6904929A690492049AD7E781
:10519000082A1CD0202A1AD0122D0DD1012A16D18E
:1051A0001A6822F480621A60002205925A690592F8
:1051B0009B690593059BE2E7102AF1D8864941FADD
:1051C00002F2D707ECD41A6842F48062EBE71A685F
:1051D00022F480621A60002206925A6906929A6945
:1051E0000692069AACE7618D89B2022938D1102A5D
:1051F00003D87A49D140CE0718D4196841F4006128
:1052000019600021079159690791996907910799D8
:10521000196821F48061196059680D05AFD5202AFD
:105220001BD8072A0ED8012AA9D111E0196841F428
:105230008061196000210891596908919969089164
:105240000899E9E7A2F10801654ACA40D00796D556
:105250005A6842F480525A6091E712F5803FE3E7C2
:10526000196841F4806119605968090510D5202A30
:1052700016D8072A06D8012A0AD15A6842F4805261
:105280005A6005E0A2F10801554ACA40D207F4D499
:10529000002209925A6909929B690993099B6EE75A
:1052A00012F5803FE8E700220A925A690A929B6948
:1052B0000A930A9BB4E67F0740F194805E68360546
:1052C0003FF5AEAE070600F004063ED550053CD5CE
:1052D000002E3DD194F83D20258D94F83E10D2B299
:1052E000E06AC9B2C5B9212A18D1082858D02028A7
:1052F00056D010F5803F53D05A6822F4E0625A60CD
:1053000011232363002384F83E302023204684F8B1
:105310003D30FFF704FD83E6212A05D040297FF4C4
:105320007FAE222A7FF47CAE628D92B21AB95A689F
:1053300022F48062ADE694F83E20402A16D1204641
:105340000FB0BDE8F040FFF7EDBC002E3FF468AEB3
:1053500097057FF565AE212939D1E16A94F83D20A2
:10536000212A7FF45DAE628D92B24AB1626A12F870
:10537000011B19616262638D013B9BB263854FE63D
:1053800008290DD020290BD011F5803F08D059688D
:1053900021F4E06159601123236384F83E20B4E7CF
:1053A0005A68204622F4E0625A601A6842F4007299
:1053B0001A6000232022236384F83D2094F83E20C5
:1053C00084F83E30402AA4D1FFF7ABFC28E6402DFC
:1053D0007FF426AEB3E700BFEBFFFEFF1400010031
:1053E0000101000159680E053FF51AAE450600F0AF
:1053F000040140F18680500540F18380002940F08F
:10540000838094F83D20222A7FF40AAEE06A628D00
:1054100092B2032A14D91A69636A1A70636A013353
:105420006362638D013B9BB26385638D9BB2032BEB
:105430007FF4F6AD2268536823F480635360EFE590
:10544000E56A022D3FF473AF012A3FF670AF0B916E
:1054500046F2A811794A1268B2FBF1F202EB82021D
:105460000B920B9A013A0B920B99D1B9226C204600
:1054700042F0200222645A6822F4E0625A601A69FB
:10548000636A1A70636A01336362638D013B9BB286
:105490006385202384F83D3084F83E10FDF773FACD
:1054A000BEE51A6812F40072DBD1196821F480613C
:1054B0001960596821F4E06159601969636A1970CB
:1054C000636A01336362638D013B9BB26385202372
:1054D00084F83D3094F83E3084F83E20402B04D1CF
:1054E00022632046FFF776FC9AE5082801D02028A1
:1054F00001D1002300E0122320462363FFF710FCB4
:105500008EE500293FF48CAD92057FF589ADE26A06
:10551000608D616A80B2042809D15A6822F48062E1
:105520005A601B690B70636A0133636223E7608D05
:1055300080B203280CD15868042A20F48060586097
:10554000EFD0022AEDD01A6822F480621A60E8E7F0
:10555000608D80B20228E4D1042A33D007D8012A12
:1055600007D0022A2ED0186840F4007004E0102AF8
:10557000F9D1186820F4806018601B690B70616AAB
:105580004B1C6362638D013B9BB2638523681B697F
:105590004B70636A216801336362638D013B9BB288
:1055A00063854B6823F440734B60202384F83D30BF
:1055B00094F83E30402B4FF0000384F83E3005D184
:1055C00023638EE7186840F48060D5E7082A90D0FE
:1055D000202A8DE7206C20B30025586987072FD536
:1055E00096052DD5226C02B19D6994F83D2002F0FC
:1055F0002802282A18D15A682F0622F480625A609D
:105600004FF0000354BFE268A269C5F3800181F046
:1056100001012046C9B284F83C3092B2FDF754F93A
:10562000FEE49D695869D9E700220C9259690C91F2
:105630009B6984F83C200C930C9BF1E4240000202F
:10564000C60640F1B180950540F1AE8094F83D501A
:105650005A68EDB222F4E0625A6000220D925A6953
:105660000D921A6842F001021A600D9A1A6822F42B
:1056700080621A605A68100520D505F0F702222AC8
:105680004AD1A06B0268526892B26285628D92B272
:105690001AB1226C42F0040222645A6822F40062B9
:1056A0005A60FFF775F8012808D0A06B794B436367
:1056B000FFF728F810B1A06B436B9847638D9BB23E
:1056C00013B323685A69510709D51A69636A1A70B6
:1056D000636A01336362638D013B9BB26385236818
:1056E0005A69520609D51A69636A1A70636A0133E6
:1056F0006362638D013B9BB26385638D9BB21BB17B
:10570000236C43F004032364236C13B320460FB0CF
:10571000BDE8F040FFF7C0BB606B0268526892B210
:105720006285628D92B21AB1226C42F00402226448
:105730005A6822F400625A60FFF72AF80128BDD0A7
:10574000606B544B4363FEF7DDFF0028B6D0606BFF
:10575000B2E72A2D06D123632823204684F83D3062
:10576000FDF7FBF894F83D30282B0CD14A4B202252
:10577000E36200232046236384F83D2084F83E3012
:10578000FDF7D6F84CE4236B222B02D0222D7FF4B8
:1057900047AC00232022236384F83D2084F83E3068
:1057A0002046FDF7DAF83BE401F0F701212900F08B
:1057B000040535D1070627D5560525D53DBB94F8F8
:1057C0003D00628DC0B292B2002A3FF429AC626AF9
:1057D00012F8015B1D616262628D013A92B26285CC
:1057E000628D92B2002A7FF41BAC29287FF418AC9A
:1057F0005A68204622F480625A602823216384F884
:105800003D30FDF7BCF80BE4002D3FF409AC9505E5
:105810007FF506AC628D92B2002A3FF401ACA5E59B
:10582000400627D5510525D53DBB94F83D20618D17
:10583000D2B289B200293FF4F3AB1969636A1970D7
:10584000636A01336362638D013B9BB26385638D41
:105850009BB2002B7FF4E4AB2A2A7FF4E1AB2268F1
:10586000536823F48063536022232363282384F83E
:105870003D3095E7002D3FF4D3AB92057FF5D0ABDB
:10588000628D92B2002A3FF4CBAB1A69636A1A7038
:1058900049E600BFD94D00080000FFFFF8B50368D6
:1058A00004465F695E6890F83E2017F48075D2B2B6
:1058B0000AD016F4807507D06FF480710125596104
:1058C000196841F400411960B80506D5F10542BFD9
:1058D0006FF4007145F002055961780536D5F10580
:1058E00034D5608D94F83D10202AD4F830C080B2B1
:1058F000C9B25FD100285DD101F0F700212804D0A2
:10590000282957D1BCF1210F54D194F83D20E16AE8
:10591000D2B2082901D020292AD1282A28D12E4AFA
:105920002046E2625A6822F4E0625A606FF48062B4
:105930005A611A6822F480621A60002320222363CD
:1059400084F83D2084F83E30FCF7F2FF3A053FD55D
:10595000F3053DD56FF40062236845F008055A61F0
:10596000236C20461D432564BDE8F840FFF794BA38
:10597000212A1BD11849E16222630021202284F8E8
:105980003D2084F83E105A6822F4E0625A606FF4B9
:1059900080625A611A6822F480621A605A6910069D
:1059A00048BF19612046FCF7EAFFCFE76FF4806239
:1059B0005A61CBE76FF48061102A596145F0040504
:1059C00001D0402AC2D11A6842F400721A60BDE7C1
:1059D000002DC5D1F8BD00BF0000FFFF90F83D00CD
:1059E0007047006C704700002DE9F341054638B35D
:1059F0000368DB0710D42B689F075ED42B68190758
:105A000000F195802B685A0700F1C180EB69002BEB
:105A100040F02C81002029E0904C636803F00C03D7
:105A2000042B07D0636803F00C03082B0AD16368CA
:105A3000DE0307D523689C03DDD56B68002BDAD124
:105A4000012013E06B68B3F5803F12D1236843F463
:105A500080332360FEF796FD064623689803CAD478
:105A6000FEF790FD801B6428F7D9032002B0BDE843
:105A7000F0819BB9236823F480332360236823F4E7
:105A800080232360FEF77EFD064623689903B2D586
:105A9000FEF778FD801B6428F7D9E6E7B3F5A02F61
:105AA000236803D143F480232360CFE723F48033BA
:105AB0002360236823F48023CBE7684C636813F0EA
:105AC0000C0F07D0636803F00C03082B10D1636838
:105AD000DA030DD423689B0702D52B69012BAFD1C4
