:020000040800F2
:1000000000500020DD96000825970008259700087D
:100010002597000825970008259700080000000094
:10002000000000000000000000000000259700080C
:100030002597000800000000259700081B7C000899
:1000400025970008259700082597000825970008A0
:100050002597000825970008097D00080F7D0008F6
:10006000157D00081B7D0008217D000825970008EC
:100070002597000825970008259700082597000870
:100080002597000825970008259700082597000860
:10009000259700082597000825970008277D000868
:1000A000259700089177000825970008A577000894
:1000B000A9770008BD770008D177000869230008F8
:1000C00075230008812300088D2300082597000868
:1000D00025970008A5880008BD880008D988000871
:1000E0004F7D0008259700082597000800000000B4
:1000F0000000000000000000000000000000000000
:0C01000000000000000000005FF808F1A3
:10011000034613F8012B002AFBD1181A0138704747
:1001200081F0004102E000BF83F0004330B54FEAA8
:1001300041044FEA430594EA050F08BF90EA020F15
:100140001FBF54EA000C55EA020C7FEA645C7FEAA8
:10015000655C00F0E2804FEA5454D4EB5555B8BFCB
:100160006D420CDD2C4480EA020281EA030382EA3C
:10017000000083EA010180EA020281EA0303362DCE
:1001800088BF30BD11F0004F4FEA01314FF4801CA1
:100190004CEA113102D0404261EB410113F0004FB3
:1001A0004FEA03334CEA133302D0524263EB43036A
:1001B00094EA050F00F0A780A4F10104D5F1200E08
:1001C0000DDB02FA0EFC22FA05F2801841F1000163
:1001D00003FA0EF2801843FA05F359410EE0A5F137
:1001E00020050EF1200E012A03FA0EFC28BF4CF068
:1001F000020C43FA05F3C01851EBE37101F000451E
:1002000007D54FF0000EDCF1000C7EEB00006EEB2A
:100210000101B1F5801F1BD3B1F5001F0CD34908B4
:100220005FEA30004FEA3C0C04F101044FEA44520B
:1002300012F5800F80F09A80BCF1004F08BF5FEA92
:10024000500C50F1000041EB045141EA050130BD72
:100250005FEA4C0C404141EB0101013C28BFB1F584
:10026000801FE9D291F0000F04BF01460020B1FACF
:1002700081F308BF2033A3F10B03B3F120020CDAA2
:100280000C3208DD02F1140CC2F10C0201FA0CF080
:1002900021FA02F10CE002F11402D8BFC2F1200CE5
:1002A00001FA02F120FA0CFCDCBF41EA0C0190409B
:1002B000E41AA2BF01EB0451294330BD6FEA0404E4
:1002C0001F3C1CDA0C340EDC04F11404C4F12002CF
:1002D00020FA04F001FA02F340EA030021FA04F3E1
:1002E00045EA030130BDC4F10C04C4F1200220FA38
:1002F00002F001FA04F340EA0300294630BD21FA76
:1003000004F0294630BD94F0000F83F4801306BF3B
:1003100081F480110134013D4EE77FEA645C18BF2F
:100320007FEA655C29D094EA050F08BF90EA020FC6
:1003300005D054EA000C04BF1946104630BD91EABE
:10034000030F1EBF0021002030BD5FEA545C05D1C1
:100350004000494128BF41F0004130BD14F5800400
:100360003CBF01F5801130BD01F0004545F0FE4174
:1003700041F470014FF0000030BD7FEA645C1ABFA9
:10038000194610467FEA655C1CBF0B46024650EAE0
:10039000013406BF52EA033591EA030F41F400210C
:1003A00030BD00BF90F0000F04BF0021704730B592
:1003B0004FF4806404F132044FF000054FF0000167
:1003C00050E700BF90F0000F04BF0021704730B528
:1003D0004FF4806404F1320410F0004548BF4042FD
:1003E0004FF000013EE700BF42004FEAE2014FEA52
:1003F00031014FEA02701FBF12F07F4393F07F4F2D
:1004000081F06051704732F07F4208BF704793F02F
:100410007F4F04BF41F40021704730B54FF4607442
:1004200001F0004521F000411CE700BF50EA010245
:1004300008BF704730B54FF000050AE050EA0102EE
:1004400008BF704730B511F0004502D5404261EB5E
:1004500041014FF4806404F132045FEA915C3FF49F
:10046000D8AE4FF003025FEADC0C18BF03325FEA3C
:10047000DC0C18BF033202EBDC02C2F1200300FAED
:1004800003FC20FA02F001FA03FE40EA0E0021FA12
:1004900002F11444BDE600BF70B54FF0FF0C4CF400
:1004A000E06C1CEA11541DBF1CEA135594EA0C0FB2
:1004B00095EA0C0F00F0DEF82C4481EA030621EAED
:1004C0004C5123EA4C5350EA013518BF52EA033528
:1004D00041F4801143F4801338D0A0FB02CE4FF0DA
:1004E0000005E1FB02E506F00042E0FB03E54FF00A
:1004F0000006E1FB03569CF0000F18BF4EF0010E02
:10050000A4F1FF04B6F5007F64F5407404D25FEAFD
:100510004E0E6D4146EB060642EAC62141EA5551B0
:100520004FEAC52040EA5E504FEACE2EB4F1FD0CF2
:1005300088BFBCF5E06F1ED8BEF1004F08BF5FEA70
:10054000500E50F1000041EB045170BD06F0004622
:1005500046EA010140EA020081EA0301B4EB5C04CF
:10056000C2BFD4EB0C0541EA045170BD41F48011C7
:100570004FF0000E013C00F3AB8014F1360FDEBFEC
:10058000002001F0004170BDC4F10004203C35DAC8
:100590000C341BDC04F11404C4F1200500FA05F34B
:1005A00020FA04F001FA05F240EA020001F00042EC
:1005B00021F0004110EBD37021FA04F642EB060162
:1005C0005EEA430E08BF20EAD37070BDC4F10C048C
:1005D000C4F1200500FA04F320FA05F001FA04F250
:1005E00040EA020001F0004110EBD37041F100013C
:1005F0005EEA430E08BF20EAD37070BDC4F1200547
:1006000000FA05F24EEA020E20FA04F301FA05F2AE
:1006100043EA020321FA04F001F0004121FA04F256
:1006200020EA020000EBD3705EEA430E08BF20EA26
:10063000D37070BD94F0000F0FD101F00046400060
:1006400041EB010111F4801F08BF013CF7D041EAE2
:10065000060195F0000F18BF704703F000465200E6
:1006600043EB030313F4801F08BF013DF7D043EAB7
:100670000603704794EA0C0F0CEA135518BF95EA6D
:100680000C0F0CD050EA410618BF52EA4306D1D1F4
:1006900081EA030101F000414FF0000070BD50EA13
:1006A000410606BF1046194652EA430619D094EA9D
:1006B0000C0F02D150EA013613D195EA0C0F05D187
:1006C00052EA03361CBF104619460AD181EA0301DB
:1006D00001F0004141F0FE4141F470014FF0000093
:1006E00070BD41F0FE4141F4780170BD70B54FF02E
:1006F000FF0C4CF4E06C1CEA11541DBF1CEA1355AE
:1007000094EA0C0F95EA0C0F00F0A7F8A4EB05048F
:1007100081EA030E52EA03354FEA013100F0888086
:100720004FEA03334FF0805545EA131343EA12634F
:100730004FEA022245EA111545EA10654FEA002604
:100740000EF000419D4208BF964244F1FD0404F5BD
:10075000407402D25B084FEA3202B61A65EB030519
:100760005B084FEA32024FF480104FF4002CB6EBD6
:10077000020E75EB030E22BFB61A754640EA0C0056
:100780005B084FEA3202B6EB020E75EB030E22BF96
:10079000B61A754640EA5C005B084FEA3202B6EBD7
:1007A000020E75EB030E22BFB61A754640EA9C0096
:1007B0005B084FEA3202B6EB020E75EB030E22BF66
:1007C000B61A754640EADC0055EA060E18D04FEA24
:1007D000051545EA16754FEA06164FEAC30343EAC4
:1007E00052734FEAC2025FEA1C1CC0D111F4801F91
:1007F0000BD141EA00014FF000004FF0004CB6E78A
:1008000011F4801F04BF01430020B4F1FD0C88BF28
:10081000BCF5E06F3FF6AFAEB5EB030C04BFB6EB33
:10082000020C5FEA500C50F1000041EB045170BD26
:100830000EF0004E4EEA113114EB5C04C2BFD4EB53
:100840000C0541EA045170BD41F480114FF0000ED7
:10085000013C90E645EA060E8DE60CEA135594EA53
:100860000C0F08BF95EA0C0F3FF43BAF94EA0C0F56
:100870000AD150EA01347FF434AF95EA0C0F7FF4CB
:1008800025AF104619462CE795EA0C0F06D152EA1F
:1008900003353FF4FDAE1046194622E750EA410603
:1008A00018BF52EA43067FF4C5AE50EA41047FF414
:1008B0000DAF52EA43057FF4EBAE12E74FF0FF3C79
:1008C00006E000BF4FF0010C02E000BF4FF0010C4A
:1008D0004DF804CD4FEA410C7FEA6C5C4FEA430CC3
:1008E00018BF7FEA6C5C1BD001B050EA410C0CBF12
:1008F00052EA430C91EA030F02BF90EA020F002074
:10090000704710F1000F91EA030F58BF994208BFDA
:1009100090422CBFD8176FEAE37040F00100704797
:100920004FEA410C7FEA6C5C02D150EA013C07D1EE
:100930004FEA430C7FEA6C5CD6D152EA033CD3D039
:100940005DF8040B704700BF8446104662468C4633
:100950001946634600E000BF01B5FFF7B7FF002866
:1009600048BF10F1000F01BD4DF808EDFFF7F4FF8F
:100970000CBF012000205DF808FB00BF4DF808ED1A
:10098000FFF7EAFF34BF012000205DF808FB00BF3D
:100990004DF808EDFFF7E0FF94BF012000205DF85F
:1009A00008FB00BF4DF808EDFFF7CEFF94BF012014
:1009B00000205DF808FB00BF4DF808EDFFF7C4FF0D
:1009C00034BF012000205DF808FB00BF4FEA410260
:1009D00012F5001215D211D56FF47873B3EB625291
:1009E00012D94FEAC12343F0004343EA505311F0B8
:1009F000004F23FA02F018BF404270474FF000004A
:100A0000704750EA013005D111F0004008BF6FF087
:100A1000004070474FF00000704700BF4A0011D2FD
:100A200012F5001211D20DD56FF47873B3EB625248
:100A30000ED44FEAC12343F0004343EA505323FA54
:100A400002F070474FF00000704750EA013002D1C9
:100A50004FF0FF3070474FF0000070474FEA4102FF
:100A6000B2F1E04324BFB3F5001CDCF1FE5C0DD90C
:100A700001F0004C4FEAC0024CEA5070B2F1004F56
:100A800040EB830008BF20F00100704711F0804F59
:100A900021D113F13872BCBF01F00040704741F41E
:100AA00080114FEA5252C2F11802C2F1200C10FA22
:100AB0000CF320FA02F018BF40F001004FEAC12306
:100AC0004FEAD32303FA0CFC40EA0C0023FA02F3AA
:100AD0004FEA4303CCE77FEA625307D150EA013380
:100AE0001EBF4FF0FE4040F44000704701F0004050
:100AF00040F0FE4040F40000704700BF80F000402E
:100B000002E000BF81F0004142001FBF5FEA4103E5
:100B100092EA030F7FEA226C7FEA236C6AD04FEAE5
:100B20001262D2EB1363C1BFD2184140484041402A
:100B3000B8BF5B42192B88BF704710F0004F40F4DC
:100B4000000020F07F4018BF404211F0004F41F4F8
:100B5000000121F07F4118BF494292EA030F3FD0C4
:100B6000A2F1010241FA03FC10EB0C00C3F12003D7
:100B700001FA03F100F0004302D5494260EB400066
:100B8000B0F5000F13D3B0F1807F06D340084FEAD1
:100B9000310102F10102FE2A51D2B1F1004F40EBC6
:100BA000C25008BF20F0010040EA0300704749002E
:100BB00040EB0000013A28BFB0F5000FEDD2B0FACB
:100BC00080FCACF1080CB2EB0C0200FA0CF0AABFEE
:100BD00000EBC25052421843BCBFD040184370478C
:100BE00092F0000F81F4000106BF80F40000013292
:100BF000013BB5E74FEA41037FEA226C18BF7FEA69
:100C0000236C21D092EA030F04D092F0000F08BFAA
:100C10000846704790EA010F1CBF0020704712F091
:100C20007F4F04D1400028BF40F00040704712F1D0
:100C300000723CBF00F50000704700F0004343F035
:100C4000FE4040F4000070477FEA226216BF08466B
:100C50007FEA23630146420206BF5FEA412390EA2E
:100C6000010F40F4800070474FF0000304E000BF24
:100C700010F0004348BF40425FEA000C08BF7047D5
:100C800043F0964301464FF000001CE050EA010299
:100C900008BF70474FF000030AE000BF50EA0102AE
:100CA00008BF704711F0004302D5404261EB41019B
:100CB0005FEA010C02BF84460146002043F0B643C0
:100CC00008BFA3F18053A3F50003BCFA8CF2083AE5
:100CD000A3EBC25310DB01FA02FC634400FA02FCEE
:100CE000C2F12002BCF1004F20FA02F243EB0200F5
:100CF00008BF20F00100704702F1200201FA02FC57
:100D0000C2F1200250EA4C0021FA02F243EB020049
:100D100008BF20EADC7070474FF0FF0C1CEAD0528D
:100D20001EBF1CEAD15392EA0C0F93EA0C0F6FD04E
:100D30001A4480EA010C400218BF5FEA41211ED02C
:100D40004FF0006343EA501043EA5111A0FB013118
:100D50000CF00040B1F5000F3EBF490041EAD371ED
:100D60005B0040EA010062F17F02FD2A1DD8B3F169
:100D7000004F40EBC25008BF20F00100704790F0D8
:100D8000000F0CF0004C08BF49024CEA502040EA2A
:100D900051207F3AC2BFD2F1FF0340EAC2507047F0
:100DA00040F400004FF00003013A5DDC12F1190F2E
:100DB000DCBF00F000407047C2F10002410021FAA0
:100DC00002F1C2F1200200FA02FC5FEA310040F1B8
:100DD000000053EA4C0308BF20EADC70704792F031
:100DE000000F00F0004C02BF400010F4000F013A69
:100DF000F9D040EA0C0093F0000F01F0004C02BF64
:100E0000490011F4000F013BF9D041EA0C018FE7D2
:100E10000CEAD15392EA0C0F18BF93EA0C0F0AD0D8
:100E200030F0004C18BF31F0004CD8D180EA0100FE
:100E300000F00040704790F0000F17BF90F0004F97
:100E4000084691F0000F91F0004F14D092EA0C0F79
:100E500001D142020FD193EA0C0F03D14B0218BF0C
:100E6000084608D180EA010000F0004040F0FE4052
:100E700040F40000704740F0FE4040F440007047EE
:100E80004FF0FF0C1CEAD0521EBF1CEAD15392EA6D
:100E90000C0F93EA0C0F69D0A2EB030280EA010C5D
:100EA00049024FEA402037D04FF0805343EA1111F6
:100EB00043EA10130CF000408B4238BF5B0042F154
:100EC0007D024FF4000C8B4224BF5B1A40EA0C00F9
:100ED000B3EB510F24BFA3EB510340EA5C00B3EB2B
:100EE000910F24BFA3EB910340EA9C00B3EBD10F19
:100EF00024BFA3EBD10340EADC001B0118BF5FEA6B
:100F00001C1CE0D1FD2A3FF650AF8B4240EBC25093
:100F100008BF20F0010070470CF0004C4CEA502054
:100F20007F32C2BFD2F1FF0340EAC250704740F4A3
:100F300000004FF00003013A37E792F0000F00F095
:100F4000004C02BF400010F4000F013AF9D040EA13
:100F50000C0093F0000F01F0004C02BF490011F4A7
:100F6000000F013BF9D041EA0C0195E70CEAD1539F
:100F700092EA0C0F08D142027FF47DAF93EA0C0F86
:100F80007FF470AF084676E793EA0C0F04D14B026A
:100F90003FF44CAF08466EE730F0004C18BF31F01C
:100FA000004CCAD130F000427FF45CAF31F0004316
:100FB0007FF43CAF5FE700BF4FF0FF3C06E000BFAF
:100FC0004FF0010C02E000BF4FF0010C4DF804CDD2
:100FD0004FEA40024FEA41037FEA226C18BF7FEAE2
:100FE000236C11D001B052EA530C18BF90EA010FE4
:100FF00058BFB2EB030088BFC81738BF6FEAE17073
:1010000018BF40F0010070477FEA226C02D15FEA0E
:10101000402C05D17FEA236CE4D15FEA412CE1D07A
:101020005DF8040B704700BF844608466146FFE741
:101030000FB5FFF7C9FF002848BF10F1000F0FBD23
:101040004DF808EDFFF7F4FF0CBF012000205DF81C
:1010500008FB00BF4DF808EDFFF7EAFF34BF0120A1
:1010600000205DF808FB00BF4DF808EDFFF7E0FF3A
:1010700094BF012000205DF808FB00BF4DF808ED8B
:10108000FFF7D2FF94BF012000205DF808FB00BFEE
:101090004DF808EDFFF7C8FF34BF012000205DF8D0
:1010A00008FB00BF4FEA40024FEA41037FEA226C8F
:1010B00002D15FEA402C08D17FEA236C02D15FEABB
:1010C000412C02D14FF0000070474FF001007047F3
:1010D00042000ED2B2F1FE4F0BD34FF09E03B3EBA2
:1010E000126209D44FEA002343F0004323FA02F0CE
:1010F00070474FF00000704712F1610F01D14202BA
:1011000002D14FF0FF3070474FF00000704700BF32
:1011100010B5054C237833B9044B13B10448AFF331
:1011200000800123237010BD8C000020000000000F
:1011300004A5000808B5034B1BB103490348AFF3EE
:10114000008008BD000000009000002004A50008F9
:101150002DE9F0430024064625461A4F85B0B368B2
:101160009C4202D305B0BDE8F0832146304608F02A
:10117000E4F82C2804F101091CD1122D05F1010815
:1011800017DC27FA05F5EB0713D5E31C4A46314671
:1011900001A808F0D5F801A808F0F8F8044601A85D
:1011A00007F090FF631E3B2B03D8074A1368132BED
:1011B00002DD45464C46D2E7591C1160034A42F80D
:1011C0002340F6E740440400B4000020B8000020AB
:1011D000074B10B5196800231846064A994200DCEF
:1011E00010BD52F8044B0133A042B8BF2046F5E7CA
:1011F000B4000020B80000202DE9F04F85B015465E
:101200001C468846FFF7F0F8064640460F46FFF7B3
:10121000EBF8824628468B46FFF7E6F8CDE9000159
:101220002046FFF7E1F86CA3D3E90023CDE90201E2
:1012300030463946FFF730F969A3D3E90023044665
:101240000D4650465946FFF727F902460B46204601
:101250002946FEF76BFF64A3D3E9002304460D463D
:10126000DDE90001FFF718F902460B462046294642
:10127000FEF75CFF5EA3D3E9002304460D46DDE9DB
:101280000201FFF709F902460B4620462946FEF700
:101290004DFF59A3D3E90023FEF748FFFFF7DEFB1C
:1012A00057A3D3E90023044639463046FFF7F4F844
:1012B00055A3D3E900238046894650465946FFF797
:1012C000EBF802460B4640464946FEF72FFF50A377
:1012D000D3E9002380468946DDE90001FFF7DCF809
:1012E00002460B4640464946FEF720FF4AA3D3E993
:1012F000002380468946DDE90201FFF7CDF802466A
:101300000B4640464946FEF711FF45A3D3E90023AB
:10131000FEF70CFFFFF7A2FB43A3D3E9002305462A
:1013200039463046FFF7B8F841A3D3E90023064613
:101330000F4650465946FFF7AFF802460B46304677
:101340003946FEF7F3FE3CA3D3E9002306460F46D9
:10135000DDE90001FFF7A0F802460B4630463946AA
:10136000FEF7E4FE36A3D3E9002306460F46DDE987
:101370000201FFF791F802460B4630463946FEF768
:10138000D5FE31A3D3E90023FEF7CEFEFFF766FBBF
:10139000294606462046FFF77BFE50B131462046DF
:1013A000FFF776FEB0FA80F04009400005B0BDE8D6
:1013B000F08F29462046FFF74DFE40B131462846C2
:1013C000FFF766FE002814BF01200220EEE702208E
:1013D000ECE700BFAFF3008094C857655310264078
:1013E00000C056AE5CC130C0388B0F9AFA941040E2
:1013F000059864AA81BC20C094B235F0DD45F53F64
:1014000050C721EA579DDB3FE423B5924E3B0E4087
:10141000FFCDCD2F3193E83F9CA7B6ABC20C08C0DF
:10142000CFF4547F6B44C03FCED6A8243EED26C0F7
:10143000073700B8E5F329406F11B5C060A713C0A6
:10144000EC415255B2BF26400B83CF626B4EF73F43
:1014500038B505461C480C4601F060FF00231A4AC7
:101460001A491046136107F0CCFC0A222946164897
:1014700007F02BFD1649144807F0C3FC154B022258
:101480001968114807F0BCFD13490F4807F0B9FC73
:10149000124B022219680C4807F0B2FD10490A48A5
:1014A00007F0AFFC44B90F49074807F0CDFCBDE891
:1014B0003840054802F0CCBA012C01D10A49F3E7C3
:1014C000022CF4D10949EFE7080200201CA500080E
:1014D00024A50008B00000202AA50008AC000020C8
:1014E0002FA5000835A500083DA5000846A5000861
:1014F0001FB5134B134A8021CDE901324FF0FF3362
:10150000202200931048114B01F000FE06230B220D
:1015100002210F4802F04CFB0023032204210D4856
:1015200002F006FF002309220A210B4802F000FF07
:101530000A490B4805B05DF804EB07F005BE00BF93
:10154000801A0600A0860100080200207402002014
:10155000F4010020840100201401002050A500089F
:1015600008010020002210B5144B86B01A60144800
:1015700002F0C7FC08B906B010BD0A22684610493F
:1015800007F088FD0F4903A807F0DEFD684603A9B0
:1015900007F0C1FE044603A807F094FD4CB169466C
:1015A00003A807F0F2FD03A8FFF7D2FD03A807F098
:1015B00089FD684607F086FDD9E700BFB40000202A
:1015C0008401002063A50008002208B511460A48DE
:1015D00002F0BEFB094B00211860074802F040FCF6
:1015E000074B1860C02008F0B1F8064B1860BDE842
:1015F0000840FFF7B7BF00BFF4010020B000002093
:10160000AC000020A800002008B5074807F05AFDEC
:10161000064802F05BFD064802F058FDBDE80840B0
:10162000044801F0A1BD00BF080100201401002002
:10163000840100200802002010B50C46014609482C
:1016400007F0F8FB204608F06FF9064802F059FC55
:1016500000B910BD034802F03DFCC1B2024807F0DA
:10166000D4F9F2E714010020080600201FB5134941
:1016700001A807F069FD4FF4FA6101A8FFF7DCFF4C
:1016800001A807F01FFD0E4901A807F05DFD4FF40A
:10169000FA6101A8FFF7D0FF01A807F013FD09497F
:1016A00001A807F051FD41F2707101A8FFF7C4FFD6
:1016B00001A807F007FD05B05DF804FB6AA5000866
:1016C0006DA5000879A5000813B5012406224FF482
:1016D0001651164807F0FAFA4FF41651144802F062
:1016E00015FF4FF41651134802F010FF372112482E
:1016F00002F06EFA0021C02008F03EF823463C229A
:10170000022100940D4801F017FE0C4801F006FE7E
:1017100021460A4801F003FA4FF00113074A5361CA
:1017200002B0BDE81040FFF7A1BF00BF08060020CF
:101730008401002014010020F40100200802002090
:10174000F0B5074691B00E4601A88A491C461546D9
:1017500007F0FAFC88490DA807F0F6FC022239468A
:101760000AA807F051FD0AA90DA807F09EFD8349BC
:1017700007F0A7FD014601A807F077FD0AA807F0CA
:10178000A1FC0DA807F09EFC7D490DA807F0DCFC2C
:10179000022231460AA807F037FD0AA90DA807F072
:1017A00084FD764907F08DFD014601A807F05DFD37
:1017B0000AA807F087FC0DA807F084FC71490DA862
:1017C00007F0C2FC0A2229460AA807F0F9FC0AA978
:1017D0000DA807F06AFD694907F073FD014601A8ED
:1017E00007F043FD0AA807F06DFC0DA807F06AFC9E
:1017F00065490DA807F0A8FC0A2221460AA807F0AF
:10180000DFFC0AA90DA807F050FD5C4907F059FD5F
:10181000014601A807F029FD0AA807F053FC0DA80E
:1018200007F050FC59490DA807F08EFC0A221699C2
:101830000AA807F0C5FC0AA90DA807F036FD014665
:1018400001A807F012FD0AA807F03CFC0DA807F05C
:1018500039FC4F4901A807F00CFD4E490AA807F0D2
:1018600073FC4D490AA807F020FD4C4907F029FDFB
:1018700001460DA807F089FC40F6B8310DA8FFF726
:10188000DBFE0DA807F01EFC0AA807F01BFC44496C
:1018900004A807F059FC43490DA807F055FC3E4940
:1018A0000DA807F002FD404907F00BFD014604A812
:1018B00007F0DBFC0DA807F005FC3C4904A807F085
:1018C000D8FC3B490DA807F03FFC0A2203990AA85F
:1018D00007F088FC0AA90DA807F0E7FC354907F0D6
:1018E000F0FC014604A807F0C0FC0AA807F0EAFBD8
:1018F0000DA807F0E7FB01A904A807F0B6FC2E49E4
:101900000AA807F021FC0A22069907A807F06AFC3A
:1019100007A90AA807F0C9FC01460DA807F035FC85
:101920004FF4FA610DA8FFF787FE0DA807F0CAFB78
:1019300007A807F0C7FB0AA807F0C4FB04A91F48C3
:1019400007F05AFA40F6B83007F0EEFF1C490DA830
:1019500007F0FAFB4FF4FA610DA8FFF76DFE0DA832
:1019600007F0B0FB04A807F0ADFB01A807F0AAFB45
:1019700011B0F0BD9EA50008A0A50008AFA5000805
:10198000B1A50008BDA50008C8A50008D7A5000896
:10199000E5A50008E7A5000808010020FBA5000850
:1019A00000A600081FA600085AA6000826A60008E0
:1019B00047A6000858A600085DA6000814010020EC
:1019C00069A600082DE9F341FFF7FEFDFFF700FCD3
:1019D000DFF84C800446D8F80000FFF749F90546C7
:1019E0002046FFF745F90F4F0F4E02462B46396848
:1019F0003068FFF701FC054601462046FFF728FD49
:101A0000009530682246D8F800303968FFF798FE14
:101A100044F6206002B0BDE8F04107F085BF00BF8A
:101A2000A8000020AC000020B0000020002070477B
:101A3000028BC08A101A70470346C28A018B9142FA
:101A400081BF0169885C0132DA8298BF4FF0FF30B4
:101A50007047028BC38A9A4286BF0269D05C4FF0FE
:101A6000FF307047806DD0F8DC302BB10023D430CC
:101A700020F8B23CC36818477047836810B5044625
:101A800013B1032201469847204610BD70B54FF4AC
:101A90007A730E460021C0E90113034615462B4A0E
:101AA000044643F8C42BC0F8C4109C22C3E90111BA
:101AB000C0E93411C0E93611C0F8E010283008F050
:101AC0000AF9F3B2222B19D8214A06F4E06652F83B
:101AD00023301E43EBB2222BC4F8846022D81C4A68
:101AE00005F4E06552F823301D4300232046C4F876
:101AF0008850E36123842361A38270BD06F0C00295
:101B0000C02A0CD1C92B0AD8124B06F03F0253F859
:101B100022200F4B06F4E06653F82230D9E74FF04D
:101B2000FF36D7E705F0C002C02A0CD1C92B0AD86E
:101B3000084B05F03F0253F82220054B05F4E06501
:101B400053F82230D0E74FF0FF35CEE7CCA600089F
:101B500060B7000838B7000838B50446283000F0F0
:101B60009FFAE06918B107F00BFF0023E36100253D
:101B70002069258410B107F003FF2561A58238BDD7
:101B800038B505460446074B45F8D43BFFF7E4FF5C
:101B90002846FFF772FF04F1C400FFF76EFF2046EE
:101BA00038BD00BFCCA6000838B5044600F12805B2
:101BB000284600F0B3FA94F8BE304BB928460549E0
:101BC00000F065FB2846BDE83840034900F058BBEB
:101BD00038BD00BF651A0008111C00080123994098
:101BE00080F82430002381764384704738B5838A97
:101BF00005468B420C4609D2202938BF20240069B3
:101C0000214607F073FF10B12861AC8238BDFEE7B2
:101C100073B5846D0546D4F8CC30866EE3B1E28AA4
:101C2000238B9A4218D331462046FFF7DFFF324616
:101C3000206905F1740108F0BBF80023E382D4F8B1
:101C4000CC30268301960BB908F058FCD4F8D0307C
:101C500001A904F1C400984702B070BDB1F5806FCE
:101C600070B505460C4610D8038C99420AD9202934
:101C70000E4638BF2026C069314607F037FF18B13D
:101C8000E8612E84204670BDFEE70024FAE713B514
:101C900090F8243004468DF807107BB1418C013157
:101CA000FFF7DCFF40B10120638C9DF80710E2696B
:101CB000D154638C0133638402B010BD01220DF155
:101CC0000701283000F052FAB0FA80F04009F3E73B
:101CD00070B590F8243004460E46154693B1418CF9
:101CE0001144FFF7BBFF10B90025284670BD638C77
:101CF000E0692A461844314608F05AF8638C2B44B0
:101D00006384F2E792B2283000F030FA0028EBD179
:101D1000EBE70346006918B100219A8A07F0DBBFA0
:101D200070470346C06918B100211A8C07F0D3BF71
:101D3000704738B50446D1B94FF42A03A36594F827
:101D4000BE30012B16D1638CE269A17E04F128001C
:101D500000F045FA042828BF0420C5B22046FFF74A
:101D6000E0FF0023638484F82430284638BD4FF018
:101D70002A43E3E70425F8E70121FFF7DABF38B586
:101D800000250446C5820583FFF7C3FF204665840E
:101D9000FFF7C7FF38BD0000F8B50446D0F884004F
:101DA00007F02AFC002107F0E7FCD4F88420C2F3F6
:101DB0000313042B48D8284D284E55F8233002F041
:101DC0000F029B6856F82220DB4303EA12239BB2E2
:101DD000002B3FD0D4F8880007F00EFC012107F05B
:101DE000CBFC1F4BD4F888001B681E4CC0F30311BA
:101DF000B3FBF4F30A24042904FB03F300F00F02FD
:101E000025D8142756F82220174CC2F30F2255F874
:101E100021C0CCF81420D4F804E06668A6EB0E06C6
:101E2000B342FADCCCF81020D4F804C06668A6EB04
:101E30000C06B342FADC013FE9D107F0DDFB39467D
:101E4000BDE8F84007F098BC00239B68FFDE002344
:101E50005B61FBE7F8BD00BF0C000020D0B10008BB
:101E60002C00002040420F00001000E02DE9F0415E
:101E700000250446C58205831F460E469046FFF79F
:101E800048FF20466584A576FFF74BFFD4F8DC3089
:101E9000C4F8804033B104F1D401032208469847C6
:101EA000C4E937550023012E84F824304FEA460355
:101EB00084F825300CBF0123002384F8BF8084F808
:101EC000BE3084F8C07002D12046FFF765FF04F1F0
:101ED0002805284694F82520084900F029F894F8A8
:101EE000BE304BB92846064900F0D1F92846BDE876
:101EF000F041044900F0C4B9BDE8F081A0860100BA
:101F0000651A0008111C00080A4600230121FFF78A
:101F1000ADBF0000032202210148FFF7B7BD00BF9B
:101F2000740200200148FFF72BBE00BF740200209E
:101F3000F7B50D4617460446002800F09F8050492B
:101F4000C06D06F09BF94F490646206E06F096F9E3
:101F50000146002E00F09280002800F08F8030466D
:101F600006F0B3F92060002800F08880464B261D5B
:101F7000984260D103F5DE33DA6942F40012DA6187
:101F8000DA6902F400120092009A1A6942F400120F
:101F90001A611A6922F400121A6142F21F03A4F8AE
:101FA00064303A4B1E603749206E06F04FF93449D1
:101FB000E06D06F04BF9364B21689D4258D9354B00
:101FC0009D4203D9344B9D4288BF00234FF4804289
:101FD0000025C4E901134FF48043C4E9053594F8A2
:101FE000973002215B1B18BF01239B01236294F8E9
:101FF0009830C4E903275B1B18BF0123DB01636230
:102000002A4694F96400E56184F8415002F050FEDC
:1020100094F9640002F07CFE2A46022194F96500DE
:1020200002F046FE94F9650002F072FE304602F0BE
:102030008DFFF8B1FEE7194B9842B4D103F5DC33BC
:10204000DA6942F48002DA61DA6902F4800201920C
:10205000019A1A6942F480021A611A6922F4800214
:102060001A6142F22123A4F86430084B5E609AE7BB
:102070000022ADE70223A06684F8953003B0F0BDDE
:102080000CB60008DCB500080054004058030020DE
:10209000A0860100801A060040420F000058004050
:1020A00010B5044690F9640002F040FE94F9650012
:1020B00002F03CFE201D02F0F2FF0321206E06F02C
:1020C00005F80321E06D06F001F82368104A9342F9
:1020D0000DD1104B1A6942F400121A611A6922F4E8
:1020E00000121A61DA6922F40012DA6110BD0A4A9C
:1020F0009342FBD1074B1A6942F480021A611A69B4
:1021000022F480021A61DA6922F48002EDE700BF4E
:10211000005400400010024000580040104B10B521
:102120009942044606D90F4B994203D90E4B994266
:1021300088BF00236068026822F001020260A36089
:10214000074B201D994294BF002101218903E160C2
:1021500002F0FCFE6268136843F00103136010BDD7
:10216000A0860100801A060040420F00202A30B5E8
:1021700014D800239CB2A24207D890F8943013449C
:10218000DBB280F89430002030BD90F89440CD5CF4
:102190001C44044484F874500133EBE70120F3E756
:1021A00010B564230446043002F092FF022810D0D8
:1021B000032806D090B194F84130202B18BF04209A
:1021C00004E094F84130202B18BF052008BF0220FE
:1021D00004E094F84130202B18BF062010BD2DE9F3
:1021E000F34704460E4691461F4602F0F5F9804635
:1021F0003FB901223146204602B0BDE8F047FFF763
:10220000CFBF0025D4F830A004343B464A463146BF
:102210002046CDF800A003F007F8022807D102F00D
:10222000DBF9A0EB0805642DEFD906201FE008BB01
:1022300002F0D2F90646204603F04EFF202809D0CE
:10224000632D07D802F0C8F9851B204603F047FF2D
:102250000028F0D0204603F042FF632D0CD8820600
:102260000AD443070AD4003818BF0120800002B006
:10227000BDE8F0870420FAE70520F8E70320F6E739
:1022800020B119B1C166043003F0ACB8704720B179
:1022900019B10167043003F0A5B8704770B590F824
:1022A00091300446012B0D46A0F1040609D1436E7E
:1022B0003BB1836E30469847022384F89130002367
:1022C00063668DB9E36E84F891501BB1304684F893
:1022D00090509847204694F8902004F170012023F4
:1022E000BDE8704003F008B800230122636684F85B
:1022F0009120616E2046743131440423BDE8704062
:1023000003F035B810B590F891300446012B04D194
:10231000436E13B1836E04389847022384F89130DA
:10232000002320466366BDE8104003F05BB8436EAF
:102330001F2BDEBF436E0133436690F89130012BB3
:10234000DAB205D1416E04237031014403F00FB8B5
:102350007047002380F89030704790F892300BB9A6
:1023600003F040B870470000014B186803F0BAB999
:1023700058030020014B186803F00EBE58030020DC
:10238000014B586803F0AEB958030020014B586860
:1023900003F002BE5803002070472DE9F04F1E469F
:1023A00085B0BDF93840A6EB0109A4EB0208B8F1ED
:1023B000000FB8BFC8F10008B9F1000FBDF83C30FC
:1023C000B8BFC9F10009C8451746154600938246B3
:1023D000A44632460B4605DC22463B4634460F46B1
:1023E00066462946A74208DC1D4613462A4635465E
:1023F0000E46294625463C462F469B1A3D1B83EA3E
:10240000E372A8B2A2EBE3722BB2C5F3C0351D4450
:102410008E42B4BF01234FF0FF33019002926D1042
:102420000393BC4202DD05B0BDE8F08FDAF800305E
:10243000C845C7BF2246314632462146D3F818B0B8
:102440005046009BD847029BED1AABB22DB2002D2F
:1024500005DA039A1644019A36B213441DB20134C8
:1024600024B2DEE7704710B404682469A44610BCA7
:10247000604730B4BDF8085004680295A46BA446C8
:1024800030BC604730B4BDF8085004680295E46B76
:10249000A44630BC604770B4BDF90C50BDF8106064
:1024A0000468CDE90356246CA44670BC60472DE94E
:1024B000F3411C46164605460F460368013CBDF82D
:1024C00020805B693444984724B22B68CDF804809F
:1024D000009428469C6A32463B463946A047284627
:1024E0002B68DB6A02B0BDE8F04118472DE9F341E3
:1024F000044617461D460E460368BDF820805B69FA
:1025000098472268CDE900786B1E33442046956ACF
:1025100031463A461BB2A84720462368DB6A02B020
:10252000BDE8F04118472DE9F3471E4603680C4605
:102530005B6905461746BDF92880BDF82C90984781
:102540002644B4422B6805DB2846DB6A02B0BDE8AE
:10255000F0471847CDF800902146D3F820A03A461E
:10256000434628460134D04724B2EAE713B5019127
:10257000B0F90E1002680091146C0022B0F90C3012
:102580001146A04702B010BD2DE9F34704460F469F
:1025900016461D460368BDF82C805B69BDF928907E
:1025A00098472368CDF80080324639462046D3F854
:1025B00024A02B46D047236809F1FF32CDF80080D4
:1025C000324439462046D3F824A012B22B46D047D5
:1025D0002368CDF80080324639462046D3F820A043
:1025E0004B46D047013D2368E919CDF800802046CD
:1025F0001D6A32464B4609B2A84720462368DB6A6B
:1026000002B0BDE8F047184770472DE9F7439942FB
:10261000154607460C469846BDF92860BDF82C9033
:10262000026810D1B542DEBF33462E461D46CDF8B6
:1026300028906B1C956B3246AC469B1B1BB203B0BB
:10264000BDE8F0436047B5420ED19942DCBF1C465D
:102650008846CDF82890D66B0134A4EB08042A46AE
:102660004146B44623B2EAE7536998473B68CDE94F
:10267000006938469E6A2A4643462146B047384696
:102680003B68DB6A03B0BDE8F043184701F0030381
:102690008376B0F90830C90758BF1946B0F90A2047
:1026A0005CBF13460A46C3818281704730B500245F
:1026B000018181814FF0FF31054D4281C281054A80
:1026C0004460C0E90512056004610477046230BD0E
:1026D000F8A60008010100012DE9F04F0026B046E0
:1026E000354687B00393BDF84830BDF94090049358
:1026F0000368CDE901125B690446BDF944A098471F
:1027000019F1070348BF09F10E03DB100093029B88
:1027100003EB08020FFA88F39A4512B221DD039BFE
:10272000002703EB060B14E059070BBFDB106D000D
:102730001BF80350EDB22B060AD5019B0592D9195F
:10274000236820469B6909B29C46049BE047059A92
:1027500001373BB24B45E7DB009B08F101081E4403
:10276000D5E720462368DB6A07B0BDE8F04F18477D
:102770002DE9F04F93B01E460392BDF87030026A07
:102780008246BDF874709DF878509DF87C400591A4
:102790000493002A40F0B980B0F90C308B4240F32A
:1027A0003881B0F90E30039A934240F33281062308
:1027B00003FB0513002B40F32C81039B03EBC403A5
:1027C000002B40F32681037F1BB9AF2E84BF013657
:1027D000F6B2DAF8003050465B69984705234FF0AF
:1027E00000080A938C4B06EB860633440E93BDF823
:1027F0000C3006930E9BBDF8146013F808304FF0B0
:10280000000907931FFA88F3089305FB03631BB2C3
:10281000099308230B932BB20C9323B20D93079AC1
:10282000DAF80030D2074ED5012D06991FFA89F249
:102830003BD1012C39D10A440899D3F818B0049B34
:102840003144504612B209B2D847079B09F1010939
:102850005B0807930B9B4FFA89F9013B13F0FF03C9
:102860000B93DCD10A9B08F10108013B13F0FF0335
:102870004FFA88F80A93BDD1049BBB420DD0012DBD
:10288000DAF8003034D1012C32D1711D00971C6A66
:1028900050460823039A09B2A0475046DAF80030A0
:1028A000DB6A13B0BDE8F04F184702FB041204992D
:1028B00001910D9950460091D3F81CB009990C9BD9
:1028C00012B2D847C1E7049ABA42BED0012D069988
:1028D0001FFA89F208D1012C06D10A440899D3F8CD
:1028E00018B031443B46ACE702FB04120197E0E725
:1028F00005EB8502E400B11801970094DC695046AD
:102900002B46039A09B2A047C7E70027137A5168FC
:10291000F61A1268F6B20C9231F8362001EBC603B3
:1029200006929A7893F905600892DA7893F906305E
:10293000B946099345EA0403012B98BF4FF0000BF9
:10294000B84603680D925B698ABF0796CDF81CB044
:10295000DDF824B09847BDF814300A93334411933E
:102960000D9B984599D2BDF80C3000260593059A29
:1029700008EB0B0303FB04232AB21BB20F9222B213
:102980000B9310923B4629E05A1CD2B25B070E9281
:1029900007D1069B06990C9A01339BB212F801905D
:1029A000069319F0800F12D0012DDAF800301FD1F4
:1029B000012C1DD10999059A9B690A441199424439
:1029C00071189C465046049B12B209B2E0474FEA88
:1029D000490901360E9B5FFA89F9F6B2089A9642C8
:1029E000D2D3174408F10108FFB25FFA88F8B7E7BD
:1029F000079A504691190A9A01FB0521049A09B2D7
:102A00000192109A0092DB690B9A9C460F9BE0475B
:102A1000DDE713B0BDE8F08F48A70008F0B5026A03
:102A200004460B4685B0002A34D10A2908D1438ACE
:102A30000282427E03EBC2036382012005B0F0BD37
:102A40000D29FAD0E17E007E657E71B10626B4F9CB
:102A5000101006FB0011B4F90C60B142C1BFB4F90B
:102A60001210228201EBC5026282CDE90205E28AE0
:102A700020460192A28A0092B4F91220B4F91010F3
:102A8000FFF776FE237E228A03EB430302EB430328
:102A90002382D2E70A2907D100230382417E127BD9
:102AA000438A01FB0233C7E70D29C6D0117A8B4256
:102AB000C3D3907A9842C0D35568591AC9B205EB6E
:102AC000C105A97829B3E87818B3E07E267E677E31
:102AD00090B195F905000844B4F9101006FB0011F7
:102AE000B4F90C00814207DD00202082B4F91210F5
:102AF000127B02FB07126282CDE90267E28A20465E
:102B00000192A28A0092B4F91220B4F91010FFF7D2
:102B10002FFE2979227E238A01FB0233B8E701299F
:102B200038BF012101764176704700002DE9F04160
:102B30001C4601231646434A0D46C0E91B230021CB
:102B40005C220746DDF8188007F0C5F8F3B2222BA7
:102B500028D83D4A06F4E06652F823301E43EBB213
:102B6000222BFE6532D8384A05F4E06552F823304E
:102B70001D43E3B2222B3D663CD8334A04F4E064A3
:102B800052F823301C435FFA88F2222A7C6645D82B
:102B90002D4908F4E06351F8222013433846BB6600
:102BA000BDE8F08106F0C002C02A0CD1C92B0AD8BA
:102BB000264B06F03F0253F82220234B06F4E06632
:102BC00053F82230CAE74FF0FF36C8E705F0C002DD
:102BD000C02A0CD1C92B0AD81C4B05F03F0253F870
:102BE0002220194B05F4E06553F82230C0E74FF07E
:102BF000FF35BEE704F0C002C02A0CD1C92B0AD8A9
:102C0000124B04F03F0253F822200F4B04F4E0640F
:102C100053F82230B6E74FF0FF34B4E708F0C003B2
:102C2000C02B0CD1C92A0AD8084B08F03F0253F830
:102C30002210054A08F4E06352F82120ADE74FF076
:102C4000FF33ABE700093D0060B7000838B7000864
:102C500037B501230D460022074980F85120C1668F
:102C600080F8703080F8712080F87250009500F084
:102C700075F803B030BD00BF00093D001FB502ABC1
:102C800083E80600C16E029A0446914205D1026FA4
:102C900003994A4032F07F4210D09A8802989B797B
:102CA000E066A4F8702084F872300093204694F80F
:102CB000703094F87120E16E00F050F804B010BD4F
:102CC000704707B5002A8DF807100DF107014FF086
:102CD00001030CBF0A46002200F080F99DF80700AE
:102CE00003B05DF804FB0000232307B5C622009360
:102CF000C721C5230248FFF719FF03B05DF804FBA5
:102D00006003002091FAA1F3B3FA83F370B50D0EBE
:102D10000F2691FAA1F1B1FA81F144599B0006FA0C
:102D200003F3890024EA03048A402243425170BD20
:102D30000346074A10684BB1064A934201D103F09B
:102D40003FBC054A934201D103F02ABC704700BF43
:102D50002C00002000300140003800402DE9F74FE2
:102D60000E4615461F460446002800F0F2809249A0
:102D7000006E05F083FA91498146E06D05F07EFA18
:102D80008F498346606E05F079FA8E498046A06EC1
:102D900005F074FA8246B9F1000F00F0DA80BBF159
:102DA000000F00F0D680B8F1000F00F0D280594635
:102DB000484605F08AFA51468146404605F085FAB4
:102DC00001468046484605F080FAA065B9F1000F3B
:102DD00000F0BF80B8F1000F00F0BB80002800F0C9
:102DE000B880A26E9DF83030511C0CBF4FF40072B9
:102DF0004FF48022002B14BF00234FF48273A26192
:102E000020606360FFF794FFB6EB500F80F0A48062
:102E1000B6EB900F80F0A280B6EBD00F80F0A080D0
:102E2000B6EB101F80F09E80B6EB501F80F09C80A8
:102E3000B6EB901F80F09A80B6EBD01F2CBF3023EA
:102E40003823E361002D00F09380022D00F0928082
:102E5000013D18BF012501236D00C4E90453072378
:102E6000E362B7FA87F300265B09DB01C4E90836A1
:102E70005149206EA660A662E66005F0E7F94F4969
:102E8000E06D05F0E3F94E49606E05F0DFF9236966
:102E9000B342636E18BF0125C3F3031208BF0225B6
:102EA000042A8CBF3046484903F00F0398BF51F8FD
:102EB0002200464A022D52F8231091FAA1F24FEA5D
:102EC0001163B2FA82F2C6584FF00F034FEA820242
:102ED00003FA02F391FAA1F2B2FA82F203EA0603CC
:102EE0004FEA820223FA02F34FEA112544D0042B61
:102EF00002D10822FFF706FFC268012322EA050279
:102F000095FAA5F5B5FA85F5AB401343C3602D4995
:102F1000A06E05F09BF923682D4A934235D12D4BC5
:102F20009A6942F480529A619A6902F4805200923E
:102F3000009ADA6842F48052DA60DA6822F4805249
:102F4000DA60204603F043FC2268136843F0400334
:102F5000136003B0BDE8F08F002372E7082370E729
:102F600010236EE718236CE720236AE7282368E71D
:102F70002B4672E7002370E7042B02D10822FFF7EB
:102F8000C1FEC36823EA0503C0E7134A9342D8D1C0
:102F9000104BDA6942F48042DA61DA6902F4804265
:102FA0000192019A1A6942F480421A611A6922F464
:102FB00080421A61C5E700BFB8B2000888B20008B5
:102FC00058B2000828B200080C000020D0B1000858
:102FD0000030014000100240003800402DE9F0416F
:102FE0000D4616461C4633B3076801F0F5FA8046D5
:102FF000BB689907FCD5D5B115F8013B3B73BB689D
:10300000DA07FCD53B7B0EB106F8013B01F0E4FA90
:10301000A0EB0800B0F57A7F04F1FF3409D2002C50
:10302000E6D12046BB681B06FCD4BDE8F081FF2337
:10303000E4E70120F6E70220F7E7002910B51ADBE4
:10304000B0F90C408C4216DD002A14DBB0F90E40BA
:10305000944210DD847E022C0ED0032C15D0012C5E
:1030600004D10489A41A013C0A4621B2012B12D0D2
:10307000022B37D013B310BD0489013C611A448977
:1030800009B2A21A013A12B2F0E74489013C641A6B
:10309000114622B2EAE71346002AB0F90840B8BF49
:1030A000D31D43F3CF0304FB0313C16A02F00700EF
:1030B00001228240C85C0243CA54DCE71346002A5E
:1030C000B0F90840B8BFD31D43F3CF0304FB03138B
:1030D0000121C06A02F007029140C25C22EA0102AB
:1030E000C254C8E71346002AB0F90840B8BFD31D40
:1030F00043F3CF0304FB03110123C06A02F007026C
:103100009340425C53404354B5E7000038B5044651
:103110001D46FFF7CBFA114B114A236000239D4255
:1031200008BF1546FF2284F8332084F836209DF925
:1031300010204FF6FF7184F83720059AA186A2650A
:10314000069A2046E265074AC4E90A5362660122EC
:10315000A4F86820636284F86A3038BD50AC000877
:103160007402002000093D0010B50446C06A08B191
:1031700006F006FC204610BD826AF8B504460D46EE
:103180009AB190F930101046FEF728FDA06A002190
:1031900003681B689847A06A294603681B6898471C
:1031A000A06ABDE8F840FEF7E7BD006C266D036835
:1031B00023EA06030360606A18B1BDE8F840FFF730
:1031C00080BD0821D4E90E2380201668A76C054233
:1031D00014BF3E43BE4316601E68E76C013946EAE1
:1031E00007061E601E68E76C4FEA500026EA0706D5
:1031F0001E60EAD1F8BD38B50446806A0D4678B144
:10320000A16DFEF7D1FCA5F15A012046C9B2FFF726
:10321000B3FFA06A88B1E16DBDE83840FEF7C4BCD9
:10322000606A18B1D4E91912FFF728FD626C616D6C
:10323000136823EA01031360E5E7626C616D1368AC
:10324000606A0B43136018B1BDE83840FFF738BD22
:1032500038BDF8B50446806A0D468F1840B394F91E
:103260003010FEF7BBFCA06A0021036801261B6832
:103270009847AF42A06A03D1BDE8F840FEF77CBD95
:10328000202E0CD1FEF778FD94F93010A06AFEF7DD
:10329000A5FCA06A0021036801261B689847A06A64
:1032A00015F8011B036801361B689847B6B2E0E7C2
:1032B000226C216D136823EA01031360AF4200D131
:1032C000F8BD606A15F8011B18B10022FFF7F9FC80
:1032D000F4E70820D4E90E238026D2F800C0D4F801
:1032E00048E0314214BF4CEA0E0C2CEA0E0CC2F836
:1032F00000C0D3F800C0D4F84CE001384CEA0E0C02
:10330000C3F800C0D3F800C0D4F84CE04FEA56062A
:103310002CEA0E0CC3F800C0DFD1CFE7B0F90A30B9
:103320000021DA1D48BF03F10E02B0F90830D210B7
:103330005A43C06A06F0CFBC2DE9FF411E46C36A5E
:1033400004460F4615469DF82880B3B12046FFF786
:10335000E5FFB4F90A00B4F9081020281FDC202387
:103360000122CDE90132732320387339009300EB39
:10337000D070B14B01EBD1711FE0B0F90A30D81D0C
:1033800048BF03F10E00B4F90830C010584306F0EE
:10339000EFFAE0620028D9D104B0BDE8F081402303
:1033A0004FF0010CCDE9013C5223403852390093D3
:1033B000A24B00EBD07001EBD17140F34F0241F30F
:1033C0004F012046FFF788F984F83170A76A002F73
:1033D0006BD0002D67D1B4F90A30202B14BF3D25E6
:1033E0003C2584F83050B8F1000F03D00021384656
:1033F000FEF78AFDDEB194F93700002817DB0121C2
:1034000006F0BAF9012194F9370006F013FA012009
:1034100006F08AFA002194F9370006F00BFA0A2028
:1034200006F082FA012194F9370006F003FAA06A47
:10343000002800F08D81A16DFEF7B6FB0422204626
:103440007F49FFF706FF618920460139C9B2FFF7BE
:1034500093FE7C4904222046FFF7FBFE94F93130AD
:103460002046012B14BF14211021FFF785FE0422F2
:1034700020467549FFF7EDFE8F23744A84F86030CB
:10348000A368934200F07C8102F50012934240F061
:103490006C8194F93130012B14BFCF239F23122567
:1034A00084F860306DE16DB29BE7012194F935003D
:1034B00006F062F9012194F9360006F05DF994F8FE
:1034C000351094F93520222910D8614B53F821305A
:1034D000C3F30313042B55D90C2323645C4B53F81B
:1034E0002120012302F00F02934007E002F0C00305
:1034F000C02B2AD00C2323644FF4004394F83610D9
:1035000094F936202229236545D8514B53F82130B0
:10351000C3F30313042B61D90C2363644C4B53F89E
:103520002120012302F00F0293406365FA68656A67
:103530001343FB60002D5DD0B8F1000F3FF45AAF8C
:1035400000212846FFF784FB54E7C929D2D8414B14
:1035500002F03F0053F820003D4B53F82030C3F3F6
:103560000313042B0ED90C23236402F0C003C02BD9
:10357000C2D1384B02F03F0253F82220344B53F8AB
:103580002220AEE73448222950F8233003F10C03FF
:103590002364A3D9E9E702F0C003C02B10D00C23A9
:1035A000636402F0C003C02B21D1C9291FD8294B65
:1035B00002F03F0253F82220254B53F82220B0E7B7
:1035C000C929ECD8234B02F03F0053F82000204BD0
:1035D00053F82030C3F30313042BE0D81E482229EC
:1035E00050F8237007F10C03636497D9D9E74FF4BF
:1035F00000439AE7012194F9330006F0BDF8012158
:1036000094F9340006F0B8F894F8331094F93320A4
:10361000222923D80E4B53F82130C3F30313042B74
:103620005ED90C23A3630A4B53F82120012302F037
:103630000F0293401AE000BFC6AC0008A6AE000817
:10364000C2AC0008BEAC0008BAAC00088000200084
:1036500060B7000838B700080C00002002F0C00373
:10366000C02B20D00C23A3634FF4004394F83410F4
:1036700094F934202229A3643BD8614B53F82130BC
:10368000C3F30313042B57D90C23E3635C4B53F8A8
:103690002120012302F00F029340E364EA6822EA4A
:1036A0000303EB60A6E6C929DCD8564B02F03F00C5
:1036B00053F82000524B53F82030C3F30313042B6C
:1036C0000ED90C23A36302F0C003C02BCCD14D4B09
:1036D00002F03F0253F82220494B53F82220A5E77D
:1036E0004948222950F8233003F10C03A3639AD9E7
:1036F000E9E702F0C003C02B10D00C23E36302F013
:10370000C003C02B21D1C9291FD83E4B02F03F0274
:1037100053F822203A4B53F82220BAE7C929ECD8B3
:10372000384B02F03F0053F82000354B53F820305F
:10373000C3F30313042BE0D83348222950F8235055
:1037400005F10C03E363A1D9D9E74FF40043A4E7E3
:10375000606A18B1D4E91912FFF790FA626C616DD2
:10376000136823EA0103136068E6284A934232D1C2
:1037700094F93130012B14BFAF23102384F860304B
:103780000225DA212046FFF7F7FC29462046FFF7FD
:10379000F3FC81212046FFF7EFFC204694F86010EF
:1037A000FFF7EAFCD9212046FFF7E6FC94F9313017
:1037B0002046012B14BFF1212221FFF7DDFC20461A
:1037C00006221349FFF745FDA06A70B1E16DFEF7CF
:1037D000EBF90120E0E50F4A9342D1D194F9313061
:1037E000012B14BFCF23102359E6626C616D13685F
:1037F000606A0B4313600028EBD0FFF761FAE8E73B
:1038000060B7000838B700080C0000206000100006
:10381000B4AC00084000200070B5002ABDF810408C
:1038200022DBB0F90A5095421EDD0029BEBFC9183F
:103830000BB20021B0F908505E18AE42C4BF6B1A3B
:103840001BB2002B10DDD61005FB0611C06A012C3F
:10385000014402F007004FF0010202FA00F2D2B276
:103860000CD0022C01D094B170BD0B449942FBD016
:1038700011F8010B504001F8010CF7E70B44994295
:10388000F2D011F8010B104301F8010CF7E7D24315
:103890000B44D2B29942E7D011F8010B104001F865
:1038A000010CF7E7F0B50029BDF8145052DBB0F970
:1038B0000860B1424EDA002ABEBF9B1800221BB23C
:1038C000B0F90A40D718A742C4BFA41A23B2002BEC
:1038D00040DDC2F3C40406FB0416C76A12F00702F7
:1038E000DBB207EB06041AD0C2F10802D2B293424F
:1038F00038BF4FF0FF0C2D4938BFA2EB030E895C97
:103900003CBF4CFA0EFC01EA0C01012D23D0022D24
:103910002CD035B393421DD3B0F908100C449B1A38
:10392000DBB2072B0ED9022D25D11A462178083A91
:10393000C9432170B0F90810D2B2072A0C44F5D857
:1039400003F0070333B11A4A012DD35C22D0022DB4
:1039500028D01DB3F0BD17F806C041EA0C01B955D7
:10396000D8E717F806C02CEA0101F8E717F806C0F7
:1039700081EA0C01F3E7291E18BF01211A464942CA
:10398000C9B22170083AB0F90860D2B2072A3444AB
:10399000F7D8D5E7227813432370DBE7227822EAB1
:1039A0000303F9E722785340F6E700BFACAC000808
:1039B000A4AC000830B41446827EBDF80850022A38
:1039C0000DD0032A18D0012A11D10289121B013A05
:1039D00014B20A460295214630BCFFF763BF428904
:1039E0001944121B013A14B20289511A09B2224633
:1039F000029530BCFFF710BF42891944511A09B231
:103A0000E7E730B41446827EBDF80850022A0DD094
:103A1000032A18D0012A11D102891C44141B24B294
:103A20000A460295214630BCFFF7F6BE02891C44C7
:103A3000521A013A11B24289141B24B2224602954D
:103A400030BCFFF72FBF4289521A013A11B2E7E7A3
:103A5000F8B50446806A00283BD0A16DFEF7A4F8B3
:103A6000042220465149FFF7F4FBB4F90830402BFB
:103A70003CD120212046FFF77FFB21891F312046C2
:103A8000C9B2FFF779FBD4E90A07B4F90A202589FE
:103A9000D31D48BF02F10E03DB105D43ADB23D44C0
:103AA000002842D094F93010FEF798F8A06A40211F
:103AB000036801261B689847AF42A06A1DD1FEF734
:103AC0005BF9A06A002864D0E16DBDE8F840FEF71C
:103AD0006BB8606A18B1D4E91912FFF7CFF8626CBD
:103AE000616D136823EA01031360B9E700212046E2
:103AF000FFF742FB21890139C1E7202E0CD1FEF7E7
:103B00003BF994F93010A06AFEF768F8A06A4021EA
:103B1000036801261B689847A06A17F8011B036811
:103B200001361B689847B6B2C6E7226C216D136850
:103B30000B431360AF42C4D0606A17F8011B18B181
:103B40000022FFF7BEF8F5E70820D4E90E2380260F
:103B5000D2F800C0D4F848E0314214BF4CEA0E0C51
:103B60002CEA0E0CC2F800C0D3F800C0D4F84CE028
:103B700001384CEA0E0CC3F800C0D3F800C0D4F8EA
:103B80004CE04FEA56062CEA0E0CC3F800C0DFD119
:103B9000D0E7626C616D1368606A0B43136018B103
:103BA000BDE8F840FFF78CB8F8BD00BFA0AC000836
:103BB0008271054A417112680449B2FBF1F24FF477
:103BC0007A714A43C26070472C00002040420F00C7
:103BD00038B504460D464079022105F0CDFD05F0CB
:103BE000A1FE6574A0F5FA60A06038BD70B5054609
:103BF0000E460024687905F057FEB04201D02046F9
:103C000070BDEA68631CA24201D91C46F2E74FF07E
:103C1000FF34F4E7F0B50D46D1B0044605F082FE5E
:103C20003DB9A368C31AB3F5FA6F02D2207C51B034
:103C3000F0BD00250221A06025606079257105F0A6
:103C40009BFD012005F070FE0121607905F094FDD7
:103C50002946607905F0EEFDA379394D153B012B1E
:103C600028D8384A2B683849B3FBF2F340F24C426B
:103C7000534348684A68121A9342FBDC0221607978
:103C800005F07AFD2F4A2B682F49B3FBF2F3627CD3
:103C9000486853434A68121A9342FBDC72B600210B
:103CA0002046FFF7A3FF013008D10023237462B63A
:103CB0000020BCE7142005F037FEDFE70121204695
:103CC000FFF794FF0130F0D06D466E4600270021CB
:103CD0002046FFF78BFF012130602046FFF786FF6B
:103CE0000237502F706006F10806F0D162B600224C
:103CF000D5E90060711C01D0431C02D1002323745C
:103D0000D6E7D110635C86424FEA4303DBB202F18F
:103D1000010238BF43F00103282A635405F1080566
:103D2000E6D16178237822790B44A1780B44E178BD
:103D30000B44DBB29A42E1D10120207477E700BF47
:103D40002C00002040420F00001000E000000000A6
:103D5000F8B50D4611460646FFF75CFF38B1B3795A
:103D6000B4780C2BF77848D003D80B2B12D0384BF3
:103D700041E0153B012BFAD8200200F4FE40384305
:103D8000FCF772FFFCF730FB2DA3D3E90023FCF70F
:103D900083FB48E02046FCF767FF3906044604D55C
:103DA00001462C48FCF7AEFE044607F00F00FCF776
:103DB00009FB23A3D3E90023FCF76EFB064620464C
:103DC0000F46FCF711FB0B46024639463046FCF71E
:103DD000ADF9FCF743FE03466DB1FCF705FB1AA3F2
:103DE000D3E90023FCF758FB1B4B0022FCF79EF99C
:103DF000FCF734FE03461846F8BD07F00F00FCF749
:103E0000E1FA0FA3D3E90023FCF746FB0646204660
:103E10000F46FCF729FFFCF7E7FA02460B4630464F
:103E20003946FCF783F9FCF719FE2206034644BF26
:103E300000F100400346002DDDD01846CDE700BF5D
:103E40009A9999999999B93FCDCCCCCCCCCCFC3FDF
:103E50000000C07F000080BF000040400000000064
:103E6000D0B50446FFF7D6FE20B1A3790C2B03D8BA
:103E70000A2B11D8164824E0153B012BFAD82088CC
:103E800040BA80B2FCF7F0FEFCF7AEFA0EA3D3E91D
:103E90000023FCF701FB12E06078FCF793FA0AA319
:103EA000D3E90023FCF7F8FA064620780F46FCF722
:103EB00089FA02460B4630463946FCF737F9FCF7DB
:103EC000CDFDD0BDAFF300809A9999999999B93FEA
:103ED0000000C07F90F86A2090F869309A420DD0B7
:103EE00090F86A30034493F8292090F86A3001333F
:103EF00003F03F0380F86A30104670474FF0FF3000
:103F0000704790F8693090F86A2003F14000801AF9
:103F1000434203F03F0300F03F0058BF5842704750
:103F200072B6002380F8693080F86A3062B6704754
:103F300090F86A2090F869309A421DBF90F86A3074
:103F4000C01890F829004FF0FF307047012A02D1C5
:103F5000016000207047022A05D0032AF9D0002A08
:103F6000F7D10260F5E70B680360F2E703681847D2
:103F70007FB5214D0C462B688B422FD01F4803F094
:103F8000D4F91E48002C33D003F090FB01214FF6EA
:103F9000FE7204EB4403B0FBF3F6964220D81748B8
:103FA00003F001FB00223146144803F0ABFB002272
:103FB0001248114603F0CCFB00230193104B6946D5
:103FC0000093104B0D4803930F4B029303F057FCE3
:103FD000029B43B9094803F092FA2C6004B070BD0B
:103FE00040084900D7E70322694668469847F1E749
:103FF00003F0ABFAF1E700BFD4030020F803002080
:104000000D4300086D3F00084D3F000890F8281050
:10401000D0E907238907C3F30F234FF00101408A3A
:104020004CBF5361136105F0A7BB90F82830008A9C
:1040300013F0020F0CBF0221032105F09DBB00000D
:1040400090F8283070B55B0704460E460ED50B4D30
:104050002B6861B1834209D0FFF7E7FF4FF0FF32D1
:10406000074B1A600222074B1A602C6070BD834216
:10407000FCD1FFF7CBFF2E60F8E700BFEC03002078
:1040800000000020E403002038B50D4D04462B68E5
:10409000834213D10B4B19680029FCD194F82830C6
:1040A0005B0702D52046FFF7CBFF0021064B2046D9
:1040B00029601960FFF75CFF012038BD0020FCE794
:1040C000F4030020F0030020EC03002010B50446A8
:1040D000024B0360FFF7D8FF204610BD70B1000807
:1040E00010B50446FFF7F2FF2046702103F01AFCDA
:1040F000204610BDF8B50446144F3868A04222D0BF
:10410000134E3368002BFCD108B1FFF7BDFF01252A
:104110004FF0FF320F4B20461D600F4B616A1A6053
:10412000FFF726FF94F828303C605B0703D40B4B65
:104130001C600120F8BD3368002BFAD129462046C7
:10414000FFF77EFFF5E70020F4E700BFF40300204F
:10415000F0030020E403002000000020EC03002016
:1041600070B5044690F82830184D43F0080380F8E5
:1041700028302B68002BFCD194F82820144B4900E0
:10418000920741F40071196048BFC9434FF000061F
:104190004FF0030248BF19600E4B20461E600E4BC5
:1041A000616A1A60FFF7E4FE94F828305B0703D5D4
:1041B00031462046FFF744FF94F82830012023F0D1
:1041C000080384F828302C6070BD00BFF003002085
:1041D000E0030020DC030020E8030020184A38B583
:1041E0001168034601390029116013DC154D296857
:1041F0004C1C09292C600EDCD3E907431248C3F399
:104200000F230168CD074CBF236163610323490875
:104210000160136038BD0121116090F82820150756
:1042200003D50022094B1A60F4E7192CF2DD52077E
:10423000F7D5074A12688242F3D1FFF701FFF0E792
:10424000E8030020DC030020E0030020F00300204E
:10425000F40300202A4A70B51368013B002B136059
:104260003EDC436981699B68264CDB4303EA1123EA
:104270009BB2B3FA83F3216890F82850B1F1FF3F65
:104280004FEA5313C5F340060AD19E4205BF0421ED
:1042900000230123116004BF1B4A236013601FE049
:1042A00007291EDD9E4216D090F8693090F86A10FA
:1042B000013303F03F0399421FBF134D90F869107B
:1042C0002D6809180BBF45F0010581F8295080F8C9
:1042D000285080F86930012313604FF0FF332360CA
:1042E00070BD094D9E42286801F101014FEA50005E
:1042F00018BF40F08000032328602160CEE700BF94
:10430000E403002000000020D803002008B5064B7D
:104310001A6812B11868FFF79DFF044B1A6812B1B2
:104320001868FFF75BFF08BDEC030020F0030020D6
:10433000F8B504460D4600204FF47A71EEB2C4E998
:1043400001016D49222E2160258262820DD86B49C0
:1043500051F82610C1F3031104293FD96061674960
:1043600051F8261001F00F0106E005F0C001C02948
:1043700018D0002161610F21614F57F82110A16110
:10438000D1B2222931D85D4850F82100C0F3031082
:10439000042875D90020E061584850F8210000F049
:1043A0000F0029E0C92EE4D8564905F03F0751F81F
:1043B0002770524951F82710C1F3031104290DD970
:1043C000606105F0C001C029D5D14E4905F03F001C
:1043D00051F82000494951F82010C3E74A48222EDD
:1043E00050F821106161BAD9EBE702F0C000C02893
:1043F00029D00020E0610F2057F82000A5EB020C27
:1044000020620020DCF1000747EB0C075B0043EA69
:10441000870394F8287003F00F0327F00F073B433E
:10442000222984F86900606284F8283084F86A00E0
:10443000E0662DD8314B53F82100C0F3031003F090
:1044400073FAB0BBFEE7C929D3D82E4802F03F0C5F
:1044500050F82CC0294850F82C00C0F30310042851
:104460000ED90020E06102F0C000C028C3D1254869
:1044700002F03F0C50F82CC0204850F82C008EE77A
:10448000DFF884C022295CF82000E06184D9EAE7E3
:1044900002F0C003C02B0AD1C92908D8194B02F079
:1044A0003F0253F82220154B53F82200C5E70F2096
:1044B000C5E794F828305B071BD4222E08D80F4B91
:1044C00053F82600C0F3031003F02EFA88B9FEE774
:1044D00005F0C003C02B0AD1C92E08D8094B05F03E
:1044E0003F0553F82520054B53F82200EAE70F203B
:1044F000EAE72046F8BD00BF70B1000860B70008C9
:10450000D0B1000838B700080C00002010B590F8B2
:10451000283004465B07416209D4FFF777FD204647
:10452000FFF783FD2046BDE81040FFF7E3BDFFF72E
:104530006DFD10BD0149024803F05AB90008004062
:10454000F8030020014803F04FB800BFF803002033
:104550007047000038B50E4B05461A784FF47A7351
:10456000B3FBF2F30B4A1068B0FBF3F000F0F0FB82
:10457000044658B90F2D09D8024629464FF0FF309E
:1045800000F096FB2046044B1D6038BD0120FCE77F
:10459000040000202C00002008000020074A08B575
:1045A0001368032043F01003136000F06FFB00203A
:1045B000FFF7D0FFFFF7CCFF002008BD002002402E
:1045C000034A044B11681B780B441360704700BF0B
:1045D000A804002004000020014B1868704700BFA9
:1045E000A8040020F7B5002604460D460196FFF703
:1045F000F3FF236807469A68D10508D50120A36A0E
:1046000084F8246043F02003A36203B0F0BD5A682D
:10461000D20503D4DB6A13F4700F3DD03D4B02206A
:104620001E6802F075F823683B4A1969B6FBF0F67C
:1046300011423A4A51D1D868394908424DD11969D5
:1046400011425BD1DA68374B1A420CBF142329237D
:104650005E43019BB34223D26A1C04D0002D53D188
:10466000019BB3420AD3019B01330193F1E76E1C16
:1046700013D065B923681B6898070DD4A36A03207B
:1046800043F00403A362002384F82430BDE7FFF75E
:10469000A3FFC01BA842EDD8226813689907E6D58E
:1046A0006FF0120322681360A36A43F40073A362DD
:1046B000936803F46023B3F5602F0CD1237B53B9C7
:1046C000A36A23F48073A362A36ADB0403D4A36AFE
:1046D00043F00103A362002097E71969114203D157
:1046E000D968104A11420BD019690F4A114209D1F9
:1046F000DB6813420CBF5423FC23A9E72923A7E757
:104700005423A5E7FC23A3E7FFF766FFC01BA842DD
:10471000A6D8A8E72C00002024499224922449120C
:104720002449920092244900499224000368D86CDD
:1047300070470000002373B5019390F824300446BD
:10474000012B6CD0012380F824304D680268062DBF
:10475000086805EB850322D81F26556B053B9E4054
:1047600025EA060500FA03F32B43536309288B68F7
:1047700000EB40054FF0070129D9D6681E3DA9403E
:1047800026EA0101AB400B43D360A0F11003012BDB
:1047900025D90020002384F8243002B070BD0C2DF0
:1047A0004FF01F0509D8166B233B9D4026EA0505EF
:1047B00000FA03F32B431363D8E7D66A413B9D40CD
:1047C00026EA050500FA03F32B43D362CEE710690E
:1047D000A94020EA0101AB400B431361D9E7114B1B
:1047E0009A4216D193681B02D3D49368102843F4DD
:1047F00000039360CDD10C4B0C4A1B68B3FBF2F362
:104800000A2253430193019B002BC2D0019B013B21
:10481000F8E7A36A012043F02003A362BAE702206D
:10482000BBE700BF002401402C00002040420F00E5
:10483000806A7047002337B50193036804469A687D
:10484000D20702D5002003B030BD9A6842F00102C1
:104850009A60144B144A1B68B3FBF2F30193019B5B
:10486000E3B9FFF7B9FE054623689B68DB07E9D487
:10487000FFF7B2FE401B0228F6D923689B6813F0AD
:104880000103F1D1A26A012042F01002A262E26AA1
:1048900084F8243042F00102E262D4E7019B013B3C
:1048A000DCE700BF2C00002040420F0010B590F85C
:1048B00024300446012B54D0012380F82430FFF724
:1048C000B9FF002849D1A36A274A23F4407323F093
:1048D000010343F48073A3622368934204D1234904
:1048E0004A6812F4702F2ED1A26A22F48012A262BA
:1048F0005A68520541BFA26A22F4405242F48052E3
:10490000A262A26A12F480521CBFE26A22F006027E
:10491000E262002284F824206FF002021A609A6892
:1049200002F46022B2F5602F13D10F4A934205D1F1
:10493000A2F58062526812F4702F0AD19A6842F48C
:10494000A0029A6010BDA26A42F48012A2624A6874
:10495000CFE79A6842F48012F3E7002384F824300A
:10496000F0E70220EEE700BF0028014000240140EC
:1049700038B5036804469A68D10701D4002038BDD1
:104980009A6822F001029A60FFF726FE0546236826
:104990009B68DB07F2D5FFF71FFE401B0228F6D904
:1049A00023689B68DA07F2D5A36A012043F010035D
:1049B000A362E36A43F00103E362E0E7F8B504466B
:1049C00000286DD0836A23B9C36280F8243003F0D5
:1049D00019F82046FFF7CCFFA36A13F0100361D14A
:1049E00000285FD1A26A616822F4885222F0020294
:1049F00042F00202E569A668A262227B2943B6F56D
:104A0000807F41EA420136D0771E7D427D412D02F2
:104A1000277D012F06D182BBA269013A45EA4232C5
:104A200042F400652268B6F5807F576827F469472D
:104A300045EA0705556097681D4D05EA070545EAF3
:104A40000105956001D0012E02D12369013B1B05B0
:104A5000D56A25F470052B43D3629268154B134039
:104A6000994213D10023E362A36A23F0030343F0C6
:104A70000103A362F8BD3546CAE7A26A42F02002EC
:104A8000A262E26A42F00102E262CBE7A36A23F08B
:104A9000120343F01003A362E36A43F00103E362ED
:104AA0000120E7E7A36A43F01003A362F8E700BF21
:104AB000FDF7E1FFFE0E1FFF38B50446002850D079
:104AC000836A43F002038362FFF752FF0546002822
:104AD00042D16FF01F02236820461A605968224AAB
:104AE0000A405A609968214A0A409A60DA6802F0DE
:104AF0007F42DA601A6902F040421A6159691C4A21
:104B000011405961996911409961D9691140D96180
:104B1000196A11401962596A11405962996A0A402A
:104B20009A62DA6A134902F07F42DA62DA6A02F0C4
:104B30007F42DA621A6B02F040421A635A6B02F04B
:104B400040425A639A6B0A409A639A6B0A409A638E
:104B500002F08AFFE562A562002384F8243028462B
:104B600038BD0125FBE700BF00003FFFF00601FF55
:104B700000F0FFFF0000C0FF10B590F8243004469D
:104B8000012B11D0012380F82430FFF7F1FE38B952
:104B9000A36A23F4885323F0010343F00103A362C3
:104BA000002384F8243010BD0220FCE7002373B5F5
:104BB000019390F824300446012B62D0012380F841
:104BC0002430FFF7D5FE2046FFF734FE05460028C7
:104BD0002FD1A36A022023F4885323F0020343F069
:104BE0000203A362284B1E6801F092FDB6FBF0F6AB
:104BF00076000196019B03BB2268936843F008038B
:104C00009360FFF7E9FC064623689A68110718D4F9
:104C10009A6842F004029A60FFF7DEFC06462368B9
:104C20009B685B0723D4A36A23F0030343F00103CB
:104C3000A362002384F8243016E0019B013B01931A
:104C4000D8E7FFF7C9FC801B0A28DDD923689B68D9
:104C50001807D9D5A36A012523F0120343F01003E6
:104C6000A362002384F82430284602B070BDFFF709
:104C7000B3FC801B0A28D2D923689B685A07CED57B
:104C8000E8E70225F0E700BF2C00002007490302F7
:104C9000CA6803F4E06322F4E0621204120C1343C6
:104CA00043F0BF6343F40033CB60704700ED00E096
:104CB000154B30B5DC68C4F30224C4F10703251D8D
:104CC000042B28BF0423062D4FF0FF3594BF00248A
:104CD000033C05FA03F321EA0303A54022EA050297
:104CE000A340002843EA0203ACBF00F16040074A3A
:104CF0004FEA0313DBB2ABBF00F5614000F00F00D9
:104D000080F80033135430BD00ED00E014ED00E0F6
:104D1000002807DB01234109034A00F01F008340FC
:104D200042F82130704700BF00E100E000280CDBB2
:104D300001220649430900F01F008240203341F858
:104D40002320BFF34F8FBFF36F8F704700E100E068
:104D50000138B0F1807F0BD24FF0E023F021054AFB
:104D6000586182F823100020072298611A61704769
:104D70000120704700ED00E0002808DB0122430914
:104D8000034900F01F008240603341F82320704740
:104D900000E100E0704708B5FFF7FCFF08BD704771
:104DA00010B5044650B1437903F0FF0213B9027104
:104DB000FFF7F5FF01230020637110BD0120FCE720
:104DC00090F821200346022A06D0042282630120A3
:104DD000002283F8202070470268C06B116821F020
:104DE0000E011160116821F00101116001211A6C9E
:104DF00001FA02F24260002083F82110E8E7000087
:104E000008B590F82130022B03D0042383630120DE
:104E100008BD03681A6822F00E021A601A6822F0B0
:104E200001021A60174A93421FD0143293421ED0D7
:104E3000143293421DD0143293421DD01432934247
:104E40001DD01432934214BF4FF080734FF480137F
:104E50000D4A5360012380F82130002380F8203070
:104E6000436B03B198470020D2E70123F0E71023FA
:104E7000EEE74FF48073EBE74FF48053E8E74FF42D
:104E80008033E5E7080002400000024090F821006E
:104E900070470000044A08B55169014202D05061D0
:104EA00002F01CFF08BD00BF000401402DE9F846D8
:104EB00006460F4691461D464FEA114A3368BAF13D
:104EC000010F39D15C6927EA0404A4B2B4FA84F46E
:104ED0006409A14501D0002024E06A1CEFD0FFF74F
:104EE0007BFB089BC01AA84201D8002DE6D1BAF17D
:104EF000010F336818D15B6927EA03039BB2B3FA49
:104F000083F35B099945D9D1002320220120336323
:104F100086F83D2086F83E30326C86F83C3042F010
:104F200020023264BDE8F8869B69DB43C3F340038B
:104F300083F00103DBB2E5E79C69E443C4F340047A
:104F400084F00104E4B2C4E77047000070B5044681
:104F500008B9012070BD90F83D3003F0FF021BB985
:104F600080F83C20FFF7F0FF242384F83D302368CD
:104F70001A6822F001021A601A6842F400421A60AC
:104F80001A6822F400421A6001F00AFB3F4B656880
:104F90009D4294BF3E4B3F4B98428CBF0023012360
:104FA000002BD6D1394E3C4BB542B0FBF3F388BF52
:104FB0004FF496762268516821F03F0141EA0301DF
:104FC00082BF73434FF47A76B3FBF6F35160116AF4
:104FD000013321F03F010B431362D169431E2B487B
:104FE00021F44F41854221F0FF0132D86D00B3FB1F
:104FF000F5F340F6FC700133034242D0C3F30B03D8
:105000001943D1611168D4E9073021F0C00103438D
:105010000B4313609168D4E9030321F40341034374
:1050200021F0FF010B439360D168D4E9053021F0F2
:10503000FF0103430B43D3601368002043F00103D7
:1050400013602023206484F83D30206384F83E0000
:1050500080E7A06850B905EB4505B3FBF5F30133D4
:10506000C3F30B037BB143F40043C9E71920684342
:10507000B3FBF0F30133C3F30B0323B143F4404319
:10508000BEE70423BCE70123BAE700BFA086010006
:105090007F841E00FF083D0040420F00704710B59E
:1050A000044698B12423026880F83D30136823F049
:1050B00001031360FFF7F2FF0020206484F83C0036
:1050C00084F83D00206384F83E0010BD0120FCE719
:1050D0002DE9FF4704461F4689469246FFF77CFAB2
:1050E00094F83D300546202B03D0022004B0BDE8E3
:1050F000F08700901923012220464949FFF7D6FE88
:105100000028F2D194F83C30012BEED0012384F832
:105110003C30236800261A6809F0FE09D2075EBFFA
:105120001A6842F001021A601A6822F400621A60DA
:10513000242384F83D303B4B2664E36222684FF021
:1051400001111368204643F4807313603B4600222C
:105150000095FFF7ABFE236838B11B680320DB0521
:1051600044BF4FF400732364C0E7C3F81090FFF707
:1051700033FA4FF0A0080546226853695269C3F319
:105180004003C2F3802294F83D10A02901D01343BC
:105190001DD04FF02008206884F83D80436913F04B
:1051A000020F036843F40073036025D000230393C8
:1051B000436901220393836919490393039B2046A2
:1051C00019230095FFF772FE88B101208EE7FFF7E3
:1051D00003FA401BB84200D80FB984F83D8022681A
:1051E00053695269C3F34003C2F38022CBE784F8CA
:1051F0003D8084F83C0079E76FF4806301224361CD
:105200000749192320460095FFF750FE0028DCD1FE
:105210000136564592D384F83D8084F83C00D4E7AB
:10522000020010000000FFFFF7B5002504460095BE
:10523000019594F83D500898202D02D0022003B02B
:10524000F0BD25682E68B60503D4082801D00128D2
:105250001BD146F2A817274E3668B6FBF7F619277A
:105260007E430196019E013E0196019E56B9202380
:10527000266384F83D3084F83E60236C43F02003BD
:105280002364DBE7AE69B707ECD494F83C60012EE9
:10529000D4D02E68F6075EBF2E6846F001062E6059
:1052A0002E6826F400662E60212684F83D601026C4
:1052B00084F83E60002626646385638DE062616445
:1052C0002385236B62620093009B112B05D1B0F5FF
:1052D0002A0F02D0B0F12A4F03D12B6843F4807318
:1052E0002B60002084F83C006B6843F4E0636B6043
:1052F000A5E700BF2C00002037B5044690F83D001C
:1053000000F02800282830D100292CD0002A2AD0EB
:1053100094F83C00012828D025682868C0075EBFA3
:10532000286840F001002860286820F400602860A8
:10533000292084F83D00202084F83E0000202064CD
:105340006285628DE36201906B6961620193AB6972
:1053500084F83C000193019B6B68228543F4E06371
:105360006B6003B030BD0120FBE70220F9E737B5E1
:10537000044690F83D0000F02800282830D100298C
:105380002CD0002A2AD094F83C00012828D0256887
:105390002868C0075EBF286840F0010028602868C0
:1053A00020F4006028602A2084F83D00202084F842
:1053B0003E00002020646285628DE36201906B698B
:1053C00061620193AB6984F83C000193019B6B68B7
:1053D000228543F4E0636B6003B030BD0120FBE73E
:1053E0000220F9E790F83D30202B14D1282380F8D3
:1053F0003D30036800201A68D2075EBF1A6842F089
:1054000001021A601A6842F480621A605A6842F413
:1054100040725A607047022070477047704770476B
:1054200090F83D2008B5036DD2B283B9C36C026811
:10543000012B836C05D1DBB21361036D023303656D
:1054400008BDC3F307231361036D0133F7E7036D51
:10545000012B03D1836C0268DBB2F4E7036D022BEE
:105460002FD1222A05D10268136843F48073136098
:10547000EAE7438D9BB263B1212A0AD1436A0268ED
:1054800013F8011B11614362438D013B9BB24385BD
:10549000D6E7438D9BB2002BD2D1212AD0D102680E
:1054A000516821F4E0615160116841F400711160AC
:1054B0002022036380F83D2080F83E30FFF7AFFFE5
:1054C000BEE703685A69120644BF00221A61B7E7B3
:1054D00070477047002337B546F2A81101932C4B53
:1054E000406A1B6890F83D20B3FBF1F323214B4346
:1054F00001930368D2B2019941BB016C41F02001D4
:105500000164446B0CB10021A162816B09B10025DB
:105510008D621D6825F480651D600025458504B1F8
:10552000656301B14D63196821F00101196090F8BC
:105530003D10602911D1202380F83D30002380F8F0
:105540003E300364FFF7C5FF03B030BD0199013958
:10555000019119688905CED4D3E702F02802282AE0
:105560000ED1196841F001011960196841F4806198
:1055700019600023036380F83D20FCF7EEFEE3E7AB
:10558000202380F83D30002380F83E30F5E700BF4F
:105590002C00002010B590F83D2090F83E300446D5
:1055A000102BD9B2D2B2036801D0402913D1222ADC
:1055B00011D1196821F400611960596811F4006172
:1055C00006D1602A1EBF202284F83D2084F83E10B8
:1055D0000022226307E002F028012829EDD10022F1
:1055E000226384F83D105A6812F400624FD05A6862
:1055F000606B22F400625A6090F82130012B374B27
:105600002BD04363FFF7FCFB50B12268606B13683B
:1056100023F001031360202384F83D30436B984747
:10562000236C19071FBF2268536823F4E06353609B
:1056300094F83D30226CDBB252070DD5282B0BD1EC
:10564000274B2022E36200232046236384F83D2079
:1056500084F83E30FCF756FE10BDA06B4363FFF7A5
:10566000CFFB0028DCD023685A69510605D51A699A
:10567000636A1A70636A013363622268A06B1368FD
:1056800023F001031360202384F83D30C6E794F82B
:105690003D10602915D1202184F83D1022645A69FB
:1056A000520605D51A69636A1A70636A0133636228
:1056B00022682046136823F001031360FFF709FFF7
:1056C000AEE75A69500605D51A69636A1A70636AAB
:1056D000013363622046FCF740FEA1E7D554000881
:1056E0000000FFFFF0B5044603688FB05A68C66A31
:1056F00090F83E0094F83D101028C5B2C9B202D00F
:10570000402D40F0E5829F69586910F0010F07D1E4
:10571000B6F52A0F02D0B6F12A4F51D10FB0F0BD25
:1057200096054DD5E26AB2F52A0F0CD10122E2624C
:1057300094F83E20402A11D1226D52B9626C02F0D9
:10574000FE021A61EAE7E26AB2F12A4FF0D10822BA
:10575000EDE7626C42F00102D2B2F2E72269B2F5E3
:10576000804F1AD194F83D20212A626C11D102F0A9
:10577000FE021A61626B0AB1926A2AB9A26B002A10
:10578000CCD0926A002AC9D05A6842F400625A60AA
:10579000C4E742F00102D2B2EBE7226D32B9626C8B
:1057A000D21102F0060242F0F002CAE7226D012A8D
:1057B000B4D1626CD21102F0060242F0F102C0E7ED
:1057C000060703D5960501D5626CE4E7860740F12C
:1057D000F080960540F1ED8094F83E10E26A256B6A
:1057E00094F83D00C9B2222840F0DB80206D40B91A
:1057F000402906D100905A6900929B690093009B52
:105800008CE7216D89B92069B0F5404F0DD1019128
:105810005A6901929A690192019A1A6842F4807257
:105820001A60236D0133236578E7618D89B251B920
:1058300002915A6902929A690292029A1A6842F493
:1058400000721A6019E0618D89B2012949D112F5FF
:10585000803F1BD11A6822F480621A605A6812F4E1
:1058600000620CD01A6822F480621A60002203924F
:105870005A6903929B690393039B0023D3E7049225
:105880005A6904929A690492049AD7E7082A1CD0AC
:10589000202A1AD0122D0DD1012A16D11A6822F40D
:1058A00080621A60002205925A6905929B690593ED
:1058B000059BE2E7102AF1D8864941FA02F2D707A0
:1058C000ECD41A6842F48062EBE71A6822F4806232
:1058D0001A60002206925A6906929A690692069AFE
:1058E000ACE7618D89B2022938D1102A03D87A49F0
:1058F000D140CE0718D4196841F400611960002125
:10590000079159690791996907910799196821F4D5
:105910008061196059680D05AFD5202A1BD8072A68
:105920000ED8012AA9D111E0196841F480611960EB
:105930000021089159690891996908910899E9E746
:10594000A2F10801654ACA40D00796D55A6842F4C8
:1059500080525A6091E712F5803FE3E7196841F4FD
:10596000806119605968090510D5202A16D8072AC0
:1059700006D8012A0AD15A6842F480525A6005E0DA
:10598000A2F10801554ACA40D207F4D40022099274
:105990005A6909929B690993099B6EE712F5803F4A
:1059A000E8E700220A925A690A929B690A930A9BC5
:1059B000B4E67F0740F194805E6836053FF5AEAEF1
:1059C000070600F004063ED550053CD5002E3DD11B
:1059D00094F83D20258D94F83E10D2B2E06AC9B209
:1059E000C5B9212A18D1082858D0202856D010F53A
:1059F000803F53D05A6822F4E0625A601123236337
:105A0000002384F83E302023204684F83D30FFF701
:105A100004FD83E6212A05D040297FF47FAE222AA7
:105A20007FF47CAE628D92B21AB95A6822F4806219
:105A3000ADE694F83E20402A16D120460FB0BDE8CE
:105A4000F040FFF7EDBC002E3FF468AE97057FF500
:105A500065AE212939D1E16A94F83D20212A7FF4ED
:105A60005DAE628D92B24AB1626A12F8011B196191
:105A70006262638D013B9BB263854FE608290DD0BE
:105A800020290BD011F5803F08D0596821F4E0613E
:105A900059601123236384F83E20B4E75A682046F6
:105AA00022F4E0625A601A6842F400721A6000231D
:105AB0002022236384F83D2094F83E2084F83E3071
:105AC000402AA4D1FFF7ABFC28E6402D7FF426AE98
:105AD000B3E700BFEBFFFEFF14000100010100016E
