:020000040800F2
:1000000000500020DDA5000825A6000825A6000850
:1000100025A6000825A6000825A600080000000067
:1000200000000000000000000000000025A60008FD
:1000300025A600080000000025A600086F8D000816
:1000400025A6000825A6000825A6000825A6000864
:1000500025A6000825A600085D8E0008638E00080E
:10006000698E00086F8E0008758E000825A60008AE
:1000700025A6000825A6000825A6000825A6000834
:1000800025A6000825A6000825A6000825A6000824
:1000900025A6000825A6000825A600087B8E0008D6
:1000A00025A60008E588000825A60008F9880008AC
:1000B000FD88000811890008258900086D420008A4
:1000C00079420008854200089142000825A60008F0
:1000D00025A60008E99A0008019B00081D9B00085E
:1000E000A38E000825A6000825A600080000000031
:1000F0000000000000000000000000000000000000
:0C01000000000000000000005FF808F1A3
:10011000034613F8012B002AFBD1181A0138704747
:1001200081F0004102E000BF83F0004330B54FEAA8
:1001300041044FEA430594EA050F08BF90EA020F15
:100140001FBF54EA000C55EA020C7FEA645C7FEAA8
:10015000655C00F0E2804FEA5454D4EB5555B8BFCB
:100160006D420CDD2C4480EA020281EA030382EA3C
:10017000000083EA010180EA020281EA0303362DCE
:1001800088BF30BD11F0004F4FEA01314FF4801CA1
:100190004CEA113102D0404261EB410113F0004FB3
:1001A0004FEA03334CEA133302D0524263EB43036A
:1001B00094EA050F00F0A780A4F10104D5F1200E08
:1001C0000DDB02FA0EFC22FA05F2801841F1000163
:1001D00003FA0EF2801843FA05F359410EE0A5F137
:1001E00020050EF1200E012A03FA0EFC28BF4CF068
:1001F000020C43FA05F3C01851EBE37101F000451E
:1002000007D54FF0000EDCF1000C7EEB00006EEB2A
:100210000101B1F5801F1BD3B1F5001F0CD34908B4
:100220005FEA30004FEA3C0C04F101044FEA44520B
:1002300012F5800F80F09A80BCF1004F08BF5FEA92
:10024000500C50F1000041EB045141EA050130BD72
:100250005FEA4C0C404141EB0101013C28BFB1F584
:10026000801FE9D291F0000F04BF01460020B1FACF
:1002700081F308BF2033A3F10B03B3F120020CDAA2
:100280000C3208DD02F1140CC2F10C0201FA0CF080
:1002900021FA02F10CE002F11402D8BFC2F1200CE5
:1002A00001FA02F120FA0CFCDCBF41EA0C0190409B
:1002B000E41AA2BF01EB0451294330BD6FEA0404E4
:1002C0001F3C1CDA0C340EDC04F11404C4F12002CF
:1002D00020FA04F001FA02F340EA030021FA04F3E1
:1002E00045EA030130BDC4F10C04C4F1200220FA38
:1002F00002F001FA04F340EA0300294630BD21FA76
:1003000004F0294630BD94F0000F83F4801306BF3B
:1003100081F480110134013D4EE77FEA645C18BF2F
:100320007FEA655C29D094EA050F08BF90EA020FC6
:1003300005D054EA000C04BF1946104630BD91EABE
:10034000030F1EBF0021002030BD5FEA545C05D1C1
:100350004000494128BF41F0004130BD14F5800400
:100360003CBF01F5801130BD01F0004545F0FE4174
:1003700041F470014FF0000030BD7FEA645C1ABFA9
:10038000194610467FEA655C1CBF0B46024650EAE0
:10039000013406BF52EA033591EA030F41F400210C
:1003A00030BD00BF90F0000F04BF0021704730B592
:1003B0004FF4806404F132044FF000054FF0000167
:1003C00050E700BF90F0000F04BF0021704730B528
:1003D0004FF4806404F1320410F0004548BF4042FD
:1003E0004FF000013EE700BF42004FEAE2014FEA52
:1003F00031014FEA02701FBF12F07F4393F07F4F2D
:1004000081F06051704732F07F4208BF704793F02F
:100410007F4F04BF41F40021704730B54FF4607442
:1004200001F0004521F000411CE700BF50EA010245
:1004300008BF704730B54FF000050AE050EA0102EE
:1004400008BF704730B511F0004502D5404261EB5E
:1004500041014FF4806404F132045FEA915C3FF49F
:10046000D8AE4FF003025FEADC0C18BF03325FEA3C
:10047000DC0C18BF033202EBDC02C2F1200300FAED
:1004800003FC20FA02F001FA03FE40EA0E0021FA12
:1004900002F11444BDE600BF70B54FF0FF0C4CF400
:1004A000E06C1CEA11541DBF1CEA135594EA0C0FB2
:1004B00095EA0C0F00F0DEF82C4481EA030621EAED
:1004C0004C5123EA4C5350EA013518BF52EA033528
:1004D00041F4801143F4801338D0A0FB02CE4FF0DA
:1004E0000005E1FB02E506F00042E0FB03E54FF00A
:1004F0000006E1FB03569CF0000F18BF4EF0010E02
:10050000A4F1FF04B6F5007F64F5407404D25FEAFD
:100510004E0E6D4146EB060642EAC62141EA5551B0
:100520004FEAC52040EA5E504FEACE2EB4F1FD0CF2
:1005300088BFBCF5E06F1ED8BEF1004F08BF5FEA70
:10054000500E50F1000041EB045170BD06F0004622
:1005500046EA010140EA020081EA0301B4EB5C04CF
:10056000C2BFD4EB0C0541EA045170BD41F48011C7
:100570004FF0000E013C00F3AB8014F1360FDEBFEC
:10058000002001F0004170BDC4F10004203C35DAC8
:100590000C341BDC04F11404C4F1200500FA05F34B
:1005A00020FA04F001FA05F240EA020001F00042EC
:1005B00021F0004110EBD37021FA04F642EB060162
:1005C0005EEA430E08BF20EAD37070BDC4F10C048C
:1005D000C4F1200500FA04F320FA05F001FA04F250
:1005E00040EA020001F0004110EBD37041F100013C
:1005F0005EEA430E08BF20EAD37070BDC4F1200547
:1006000000FA05F24EEA020E20FA04F301FA05F2AE
:1006100043EA020321FA04F001F0004121FA04F256
:1006200020EA020000EBD3705EEA430E08BF20EA26
:10063000D37070BD94F0000F0FD101F00046400060
:1006400041EB010111F4801F08BF013CF7D041EAE2
:10065000060195F0000F18BF704703F000465200E6
:1006600043EB030313F4801F08BF013DF7D043EAB7
:100670000603704794EA0C0F0CEA135518BF95EA6D
:100680000C0F0CD050EA410618BF52EA4306D1D1F4
:1006900081EA030101F000414FF0000070BD50EA13
:1006A000410606BF1046194652EA430619D094EA9D
:1006B0000C0F02D150EA013613D195EA0C0F05D187
:1006C00052EA03361CBF104619460AD181EA0301DB
:1006D00001F0004141F0FE4141F470014FF0000093
:1006E00070BD41F0FE4141F4780170BD70B54FF02E
:1006F000FF0C4CF4E06C1CEA11541DBF1CEA1355AE
:1007000094EA0C0F95EA0C0F00F0A7F8A4EB05048F
:1007100081EA030E52EA03354FEA013100F0888086
:100720004FEA03334FF0805545EA131343EA12634F
:100730004FEA022245EA111545EA10654FEA002604
:100740000EF000419D4208BF964244F1FD0404F5BD
:10075000407402D25B084FEA3202B61A65EB030519
:100760005B084FEA32024FF480104FF4002CB6EBD6
:10077000020E75EB030E22BFB61A754640EA0C0056
:100780005B084FEA3202B6EB020E75EB030E22BF96
:10079000B61A754640EA5C005B084FEA3202B6EBD7
:1007A000020E75EB030E22BFB61A754640EA9C0096
:1007B0005B084FEA3202B6EB020E75EB030E22BF66
:1007C000B61A754640EADC0055EA060E18D04FEA24
:1007D000051545EA16754FEA06164FEAC30343EAC4
:1007E00052734FEAC2025FEA1C1CC0D111F4801F91
:1007F0000BD141EA00014FF000004FF0004CB6E78A
:1008000011F4801F04BF01430020B4F1FD0C88BF28
:10081000BCF5E06F3FF6AFAEB5EB030C04BFB6EB33
:10082000020C5FEA500C50F1000041EB045170BD26
:100830000EF0004E4EEA113114EB5C04C2BFD4EB53
:100840000C0541EA045170BD41F480114FF0000ED7
:10085000013C90E645EA060E8DE60CEA135594EA53
:100860000C0F08BF95EA0C0F3FF43BAF94EA0C0F56
:100870000AD150EA01347FF434AF95EA0C0F7FF4CB
:1008800025AF104619462CE795EA0C0F06D152EA1F
:1008900003353FF4FDAE1046194622E750EA410603
:1008A00018BF52EA43067FF4C5AE50EA41047FF414
:1008B0000DAF52EA43057FF4EBAE12E74FEA410277
:1008C000B2F1E04324BFB3F5001CDCF1FE5C0DD9AE
:1008D00001F0004C4FEAC0024CEA5070B2F1004FF8
:1008E00040EB830008BF20F00100704711F0804FFB
:1008F00021D113F13872BCBF01F00040704741F4C0
:1009000080114FEA5252C2F11802C2F1200C10FAC3
:100910000CF320FA02F018BF40F001004FEAC123A7
:100920004FEAD32303FA0CFC40EA0C0023FA02F34B
:100930004FEA4303CCE77FEA625307D150EA013321
:100940001EBF4FF0FE4040F44000704701F00040F1
:1009500040F0FE4040F40000704700BF80F00040CF
:1009600002E000BF81F0004142001FBF5FEA410387
:1009700092EA030F7FEA226C7FEA236C6AD04FEA87
:100980001262D2EB1363C1BFD218414048404140CC
:10099000B8BF5B42192B88BF704710F0004F40F47E
:1009A000000020F07F4018BF404211F0004F41F49A
:1009B000000121F07F4118BF494292EA030F3FD066
:1009C000A2F1010241FA03FC10EB0C00C3F1200379
:1009D00001FA03F100F0004302D5494260EB400008
:1009E000B0F5000F13D3B0F1807F06D340084FEA73
:1009F000310102F10102FE2A51D2B1F1004F40EB68
:100A0000C25008BF20F0010040EA030070474900CF
:100A100040EB0000013A28BFB0F5000FEDD2B0FA6C
:100A200080FCACF1080CB2EB0C0200FA0CF0AABF8F
:100A300000EBC25052421843BCBFD040184370472D
:100A400092F0000F81F4000106BF80F40000013233
:100A5000013BB5E74FEA41037FEA226C18BF7FEA0A
:100A6000236C21D092EA030F04D092F0000F08BF4C
:100A70000846704790EA010F1CBF0020704712F033
:100A80007F4F04D1400028BF40F00040704712F172
:100A900000723CBF00F50000704700F0004343F0D7
:100AA000FE4040F4000070477FEA226216BF08460D
:100AB0007FEA23630146420206BF5FEA412390EAD0
:100AC000010F40F4800070474FF0000304E000BFC6
:100AD00010F0004348BF40425FEA000C08BF704777
:100AE00043F0964301464FF000001CE050EA01023B
:100AF00008BF70474FF000030AE000BF50EA010250
:100B000008BF704711F0004302D5404261EB41013C
:100B10005FEA010C02BF84460146002043F0B64361
:100B200008BFA3F18053A3F50003BCFA8CF2083A86
:100B3000A3EBC25310DB01FA02FC634400FA02FC8F
:100B4000C2F12002BCF1004F20FA02F243EB020096
:100B500008BF20F00100704702F1200201FA02FCF8
:100B6000C2F1200250EA4C0021FA02F243EB0200EB
:100B700008BF20EADC7070474FF0FF0C1CEAD0522F
:100B80001EBF1CEAD15392EA0C0F93EA0C0F6FD0F0
:100B90001A4480EA010C400218BF5FEA41211ED0CE
:100BA0004FF0006343EA501043EA5111A0FB0131BA
:100BB0000CF00040B1F5000F3EBF490041EAD3718F
:100BC0005B0040EA010062F17F02FD2A1DD8B3F10B
:100BD000004F40EBC25008BF20F00100704790F07A
:100BE000000F0CF0004C08BF49024CEA502040EACC
:100BF00051207F3AC2BFD2F1FF0340EAC250704792
:100C000040F400004FF00003013A5DDC12F1190FCF
:100C1000DCBF00F000407047C2F10002410021FA41
:100C200002F1C2F1200200FA02FC5FEA310040F159
:100C3000000053EA4C0308BF20EADC70704792F0D2
:100C4000000F00F0004C02BF400010F4000F013A0A
:100C5000F9D040EA0C0093F0000F01F0004C02BF05
:100C6000490011F4000F013BF9D041EA0C018FE774
:100C70000CEAD15392EA0C0F18BF93EA0C0F0AD07A
:100C800030F0004C18BF31F0004CD8D180EA0100A0
:100C900000F00040704790F0000F17BF90F0004F39
:100CA000084691F0000F91F0004F14D092EA0C0F1B
:100CB00001D142020FD193EA0C0F03D14B0218BFAE
:100CC000084608D180EA010000F0004040F0FE40F4
:100CD00040F40000704740F0FE4040F44000704790
:100CE0004FF0FF0C1CEAD0521EBF1CEAD15392EA0F
:100CF0000C0F93EA0C0F69D0A2EB030280EA010CFF
:100D000049024FEA402037D04FF0805343EA111197
:100D100043EA10130CF000408B4238BF5B0042F1F5
:100D20007D024FF4000C8B4224BF5B1A40EA0C009A
:100D3000B3EB510F24BFA3EB510340EA5C00B3EBCC
:100D4000910F24BFA3EB910340EA9C00B3EBD10FBA
:100D500024BFA3EBD10340EADC001B0118BF5FEA0C
:100D60001C1CE0D1FD2A3FF650AF8B4240EBC25035
:100D700008BF20F0010070470CF0004C4CEA5020F6
:100D80007F32C2BFD2F1FF0340EAC250704740F445
:100D900000004FF00003013A37E792F0000F00F037
:100DA000004C02BF400010F4000F013AF9D040EAB5
:100DB0000C0093F0000F01F0004C02BF490011F449
:100DC000000F013BF9D041EA0C0195E70CEAD15341
:100DD00092EA0C0F08D142027FF47DAF93EA0C0F28
:100DE0007FF470AF084676E793EA0C0F04D14B020C
:100DF0003FF44CAF08466EE730F0004C18BF31F0BE
:100E0000004CCAD130F000427FF45CAF31F00043B7
:100E10007FF43CAF5FE700BF4FF0FF3C06E000BF50
:100E20004FF0010C02E000BF4FF0010C4DF804CD73
:100E30004FEA40024FEA41037FEA226C18BF7FEA83
:100E4000236C11D001B052EA530C18BF90EA010F85
:100E500058BFB2EB030088BFC81738BF6FEAE17014
:100E600018BF40F0010070477FEA226C02D15FEAB0
:100E7000402C05D17FEA236CE4D15FEA412CE1D01C
:100E80005DF8040B704700BF844608466146FFE7E3
:100E90000FB5FFF7C9FF002848BF10F1000F0FBDC5
:100EA0004DF808EDFFF7F4FF0CBF012000205DF8BE
:100EB00008FB00BF4DF808EDFFF7EAFF34BF012043
:100EC00000205DF808FB00BF4DF808EDFFF7E0FFDC
:100ED00094BF012000205DF808FB00BF4DF808ED2D
:100EE000FFF7D2FF94BF012000205DF808FB00BF90
:100EF0004DF808EDFFF7C8FF34BF012000205DF872
:100F000008FB00BF4FEA40024FEA41037FEA226C30
:100F100002D15FEA402C08D17FEA236C02D15FEA5C
:100F2000412C02D14FF0000070474FF00100704794
:100F300042000ED2B2F1FE4F0BD34FF09E03B3EB43
:100F4000126209D44FEA002343F0004323FA02F06F
:100F500070474FF00000704712F1610F01D142025B
:100F600002D14FF0FF3070474FF00000704700BFD4
:100F700010B5054C237833B9044B13B10448AFF3D3
:100F800000800123237010BD20010020000000001C
:100F9000BCBA000808B5034B1BB103490348AFF3C3
:100FA000008008BD0000000024010020BCBA000839
:100FB00010B501248CB006224FF41651334808F0C6
:100FC000B5FF4FF41651324800F0B2FD37213148D9
:100FD00002F030FB0021062009F04EFB23463C22A4
:100FE00002212D48009403F0A1FE20B92B49274887
:100FF00009F05AF8FEE7284803F08AFE2146264801
:1010000003F00FFD0023244A254913614FF001131B
:101010001046536109F048F81F4804F013FA4FF4E2
:10102000FA6009F001FC0A211E4801F07DF920B99F
:101030001D49164809F038F8FEE71C49194801F027
:1010400071FAE0B9174903A81723184A01F0FAF911
:10105000174903A809F005F8164903A809F001F893
:1010600021460A2203A8013409F070F8102CF3D1AC
:10107000114903A809F018F803A801F0A9F80F49CD
:1010800002480CB0BDE8104009F00EB8A8080020D6
:10109000C0010020AC01002030020020D4BA0008BA
:1010A000E0BA0008E4030020F0BA0008FFBA000824
:1010B00008BB000827BB00082CBB00083EBB00088B
:1010C00030B50446A7B02149684609F06CF9694675
:1010D000204609F0DEF90546684609F022F95DB1BF
:1010E000002396226946204609F0DCF96846184933
:1010F00009F088FE002308B927B030BD5D1C042D1F
:101100001DDD13F003041AD11149204609F07AFEBF
:101110000F49204609F076FE20460D4909F072FE7F
:1011200068B109F0A0FB431E3B2B08D8094A13689D
:101130000E2BDFBF591C1160074A42F82300002024
:10114000034909F05FFE2B46D5E700BF4BBB000803
:1011500052BB00084C010020500100200022154B1A
:1011600070B411461E681346134C144D22608E4213
:101170000ADCEAB1A3F12802142A23600DD8104931
:10118000104870BC09F03AB955F8040B0131984287
:10119000D4BF184601220346E9E7A3F11E02092A3B
:1011A00001D80949ECE7013B1C2B01D80749E7E7C7
:1011B0000749E5E74C0100204801002050010020CC
:1011C00054BB00083C0100205CBB000865BB000864
:1011D0006FBB000810B51F4803F09AFD00231D4C9B
:1011E0001D492046236108F03CFF1C4B0222196870
:1011F000204609F053F82046194908F032FF2046EE
:10120000184908F02EFF184B02221968204609F0F1
:1012100045F82046154908F047FF4FF44023204683
:101220001349236108F01DFF124B0A22196820465A
:1012300008F08EFF4FF4B01320460F49236108F0E9
:1012400010FF20460D4908F025FF2046BDE810405C
:1012500004F0F8B83002002077BB000898010020A5
:101260007CBB00087FBB00089401002089BB0008FC
:101270008BBB00084801002093BB00083C01002004
:1012800030B58BB001A817232E4A2F4901F0DAF8A8
:1012900001A800F0A9FF002852D009F0C3FA0A22E1
:1012A000014601A808F05EFF284901A808F0D9FE10
:1012B000274B0222196801A808F0F0FF234901A872
:1012C00008F0CFFE234B0222196801A808F0E6FFC0
:1012D0001E4901A808F0C5FE1F4B0A22196801A883
:1012E00008F034FF194901A808F0BBFE1B4B0A2285
:1012F000196801A808F02AFF0024194D134901A814
:1013000008F0AFFE01340A2255F8041B01A808F0CA
:101310001DFF0F2CF2D10D4901A808F0A2FE114BC0
:101320000A22196801A808F011FF084901A808F06D
:1013300098FE0D4901A808F0ADFE01A800F048FF95
:101340000BB030BDFFBA0008E403002052BB000818
:101350009801002094010020900100208C010020C1
:1013600050010020480100203C0100203C2208B52B
:101370000021034809F00CFD0022024B1A6008BD51
:10138000500100204C0100201FB5124B124A802151
:10139000CDE901324FF0FF33202200930F48104B6C
:1013A00003F0AEFB0023032204210E4800F0D2FA22
:1013B00006230B2205210C4802F02CF90B490C489E
:1013C00008F0F1FF0B490C4805B05DF804EB08F09C
:1013D000EABF00BF801A0600A0860100300200208C
:1013E0005C060020C0010020AC010020B2BB000858
:1013F000A001002099BB00083C01002030B585B059
:10140000274800F090F8044660BB09F00BFA254D20
:101410002B68C01AB0F5FA6F3FD309F003FA2246E1
:1014200021462860204802F0C3F9204B214618606D
:101430001D4802F045FA1E4B1860C02009F006F95D
:101440001C4B1860062009F0AFF91B4B1860FFF722
:1014500085FEFFF7BFFEFFF713FF05B0BDE8304084
:10146000FFF784BF0E4800F047F8C1B20A290ED139
:10147000124901A808F0B8FF01A8FFF721FE01A852
:1014800008F04FFF0E490D4808F0B8FFB8E70D29E6
:10149000B6D00A4808F0DAFFB2E705B030BD00BFA9
:1014A000C00100209C010020AC0100209801002018
:1014B00094010020900100208C010020A001002058
:1014C000B2BB000808B5074808F02BFF064808F033
:1014D00028FF064800F00CF9BDE80840044803F076
:1014E0003DBB00BF3C010020A0010020C001002046
:1014F000300200200020704790F86A2090F8693090
:101500009A420DD090F86A30034493F8292090F85D
:101510006A30013303F03F0380F86A3010467047A9
:101520004FF0FF30704790F8693090F86A2003F16F
:101530004000801A434203F03F0300F03F0058BFD1
:101540005842704772B6002380F8693080F86A30DC
:1015500062B6704790F86A2090F869309A421DBFD1
:1015600090F86A30C01890F829004FF0FF307047AB
:10157000012A02D1016000207047022A05D0032A07
:10158000F9D0002AF7D10260F5E70B680360F2E7B3
:10159000036818477FB5214D0C462B688B422FD02E
:1015A0001F4806F06CFF1E48002C33D007F028F9C6
:1015B00001214FF6FE7204EB4403B0FBF3F69642B2
:1015C00020D8174807F099F800223146144807F050
:1015D00043F900221248114607F064F900230193F1
:1015E000104B69460093104B0D4803930F4B029329
:1015F00007F0EFF9029B43B9094807F02AF82C607D
:1016000004B070BD40084900D7E703226946684628
:101610009847F1E707F043F8F1E700BF9C0200208C
:10162000C00200203119000891150008711500084A
:1016300090F82810D0E907238907C3F30F234FF050
:101640000101408A4CBF5361136109F015B890F84D
:101650002830008A13F0020F0CBF0221032109F089
:101660000BB8000090F8283070B55B0704460E46B2
:101670000ED50B4D2B6861B1834209D0FFF7E7FF10
:101680004FF0FF32074B1A600222074B1A602C60A2
:1016900070BD8342FCD1FFF7CBFF2E60F8E700BF9F
:1016A000B402002000000020AC02002038B50D4D2F
:1016B00004462B68834213D10B4B19680029FCD1D7
:1016C00094F828305B0702D52046FFF7CBFF0021B6
:1016D000064B204629601960FFF75CFF012038BDEA
:1016E0000020FCE7BC020020B8020020B402002069
:1016F00010B50446024B0360FFF7D8FF204610BD2B
:10170000D4BC000810B50446FFF7F2FF2046702154
:1017100007F0B2F9204610BDF8B50446144F3868FA
:10172000A04222D0134E3368002BFCD108B1FFF742
:10173000BDFF01254FF0FF320F4B20461D600F4BC0
:10174000616A1A60FFF726FF94F828303C605B0757
:1017500003D40B4B1C600120F8BD3368002BFAD179
:1017600029462046FFF77EFFF5E70020F4E700BF9B
:10177000BC020020B8020020AC02002000000020C3
:10178000B402002070B5044690F82830184D43F09C
:10179000080380F828302B68002BFCD194F828200F
:1017A000144B4900920741F40071196048BFC943C6
:1017B0004FF000064FF0030248BF19600E4B204661
:1017C0001E600E4B616A1A60FFF7E4FE94F8283041
:1017D0005B0703D531462046FFF744FF94F82830D5
:1017E000012023F0080384F828302C6070BD00BF6E
:1017F000B8020020A8020020A4020020B0020020AD
:10180000184A38B51168034601390029116013DC04
:10181000154D29684C1C09292C600EDCD3E90743BF
:101820001248C3F30F230168CD074CBF23616361E6
:10183000032349080160136038BD0121116090F84D
:101840002820150703D50022094B1A60F4E7192C4C
:10185000F2DD5207F7D5074A12688242F3D1FFF74B
:1018600001FFF0E7B0020020A4020020A80200203F
:10187000B8020020BC0200202A4A70B51368013B60
:10188000002B13603EDC436981699B68264CDB4377
:1018900003EA11239BB2B3FA83F3216890F828502E
:1018A000B1F1FF3F4FEA5313C5F340060AD19E4200
:1018B00005BF042100230123116004BF1B4A2360DC
:1018C00013601FE007291EDD9E4216D090F8693094
:1018D00090F86A10013303F03F0399421FBF134D84
:1018E00090F869102D6809180BBF45F0010581F8C3
:1018F000295080F8285080F86930012313604FF098
:10190000FF33236070BD094D9E42286801F101013B
:101910004FEA500018BF40F0800003232860216088
:10192000CEE700BFAC02002000000020A002002093
:1019300008B5064B1A6812B11868FFF79DFF044BF3
:101940001A6812B11868FFF75BFF08BDB4020020E7
:10195000B8020020F8B504460D4600204FF47A7115
:10196000EEB2C4E901016D49222E21602582628216
:101970000DD86B4951F82610C1F3031104293FD942
:101980006061674951F8261001F00F0106E005F08B
:10199000C001C02918D0002161610F21614F57F8A3
:1019A0002110A161D1B2222931D85D4850F821001F
:1019B000C0F30310042875D90020E061584850F89E
:1019C000210000F00F0029E0C92EE4D8564905F0A7
:1019D0003F0751F82770524951F82710C1F30311FE
:1019E00004290DD9606105F0C001C029D5D14E4947
:1019F00005F03F0051F82000494951F82010C3E795
:101A00004A48222E50F821106161BAD9EBE702F062
:101A1000C000C02829D00020E0610F2057F8200026
:101A2000A5EB020C20620020DCF1000747EB0C075D
:101A30005B0043EA870394F8287003F00F0327F054
:101A40000F073B43222984F86900606284F828303C
:101A500084F86A00E0662DD8314B53F82100C0F3BA
:101A6000031007F00BF8B0BBFEE7C929D3D82E4806
:101A700002F03F0C50F82CC0294850F82C00C0F35D
:101A8000031004280ED90020E06102F0C000C02835
:101A9000C3D1254802F03F0C50F82CC0204850F824
:101AA0002C008EE7DFF884C022295CF82000E0617A
:101AB00084D9EAE702F0C003C02B0AD1C92908D8AB
:101AC000194B02F03F0253F82220154B53F8220025
:101AD000C5E70F20C5E794F828305B071BD4222EFA
:101AE00008D80F4B53F82600C0F3031006F0C6FFCA
:101AF00088B9FEE705F0C003C02B0AD1C92E08D86B
:101B0000094B05F03F0553F82520054B53F82200FB
:101B1000EAE70F20EAE72046F8BD00BFD4BC000882
:101B2000A8CD000818C8000880CD000818000020C3
:101B300010B590F8283004465B07416209D4FFF7DE
:101B400077FD2046FFF783FD2046BDE81040FFF7F4
:101B5000E3BDFFF76DFD10BD0149024806F0F2BE7E
:101B600000080040C0020020014806F0E7BD00BFA9
:101B7000C00200202DE9F0411C4601231646434ACD
:101B80000D46C0E91B2300215C220746DDF81880C2
:101B900009F0FEF8F3B2222B28D83D4A06F4E0669D
:101BA00052F823301E43EBB2222BFE6532D8384A5E
:101BB00005F4E06552F823301D43E3B2222B3D6665
:101BC0003CD8334A04F4E06452F823301C435FFAF3
:101BD00088F2222A7C6645D82D4908F4E06351F842
:101BE000222013433846BB66BDE8F08106F0C002F0
:101BF000C02A0CD1C92B0AD8264B06F03F0253F855
:101C00002220234B06F4E06653F82230CAE74FF057
:101C1000FF36C8E705F0C002C02A0CD1C92B0AD88C
:101C20001C4B05F03F0253F82220194B05F4E065E8
:101C300053F82230C0E74FF0FF35BEE704F0C00292
:101C4000C02A0CD1C92B0AD8124B04F03F0253F81A
:101C500022200F4B04F4E06453F82230B6E74FF033
:101C6000FF34B4E708F0C003C02B0CD1C92A0AD84E
:101C7000084B08F03F0253F82210054A08F4E063CD
:101C800052F82120ADE74FF0FF33ABE700093D00EC
:101C9000A8CD000880CD000837B501230D460022ED
:101CA000074980F85120C16680F8703080F87120B3
:101CB00080F87250009500F075F803B030BD00BF99
:101CC00000093D001FB502AB83E80600C16E029A11
:101CD0000446914205D1026F03994A4032F07F4297
:101CE00010D09A8802989B79E066A4F8702084F856
:101CF00072300093204694F8703094F87120E16EB1
:101D000000F050F804B010BD704707B5002A8DF8F8
:101D100007100DF107014FF001030CBF0A46002226
:101D200000F080F99DF8070003B05DF804FB0000A7
:101D3000232307B5C6220093C721C5230248FFF716
:101D400019FF03B05DF804FB7003002091FAA1F3C2
:101D5000B3FA83F370B50D0E0F2691FAA1F1B1FA23
:101D600081F144599B0006FA03F3890024EA030435
:101D70008A402243425170BD0346074A10684BB166
:101D8000064A934201D105F045BC054A934201D170
:101D900005F030BC704700BF380000200030014023
:101DA000003800402DE9F74F0E4615461F46044601
:101DB000002800F0F2809249006E07F009FB91497B
:101DC0008146E06D07F004FB8F498346606E07F0A3
:101DD000FFFA8E498046A06E07F0FAFA8246B9F102
:101DE000000F00F0DA80BBF1000F00F0D680B8F1F0
:101DF000000F00F0D2805946484607F010FB5146CC
:101E00008146404607F00BFB01468046484607F0F6
:101E100006FBA065B9F1000F00F0BF80B8F1000F1C
:101E200000F0BB80002800F0B880A26E9DF8303032
:101E3000511C0CBF4FF400724FF48022002B14BFD2
:101E400000234FF48273A26120606360FFF794FF68
:101E5000B6EB500F80F0A480B6EB900F80F0A2801C
:101E6000B6EBD00F80F0A080B6EB101F80F09E8004
:101E7000B6EB501F80F09C80B6EB901F80F09A80EC
:101E8000B6EBD01F2CBF30233823E361002D00F0C8
:101E90009380022D00F09280013D18BF012501239F
:101EA0006D00C4E904530723E362B7FA87F3002601
:101EB0005B09DB01C4E908365149206EA660A662C1
:101EC000E66007F06DFA4F49E06D07F069FA4E4998
:101ED000606E07F065FA2369B342636E18BF01258F
:101EE000C3F3031208BF0225042A8CBF30464849B9
:101EF00003F00F0398BF51F82200464A022D52F812
:101F0000231091FAA1F24FEA1163B2FA82F2C65895
:101F10004FF00F034FEA820203FA02F391FAA1F2A3
:101F2000B2FA82F203EA06034FEA820223FA02F3CC
:101F30004FEA112544D0042B02D10822FFF706FFF7
:101F4000C268012322EA050295FAA5F5B5FA85F5DE
:101F5000AB401343C3602D49A06E07F021FA2368FC
:101F60002D4A934235D12D4B9A6942F480529A61A1
:101F70009A6902F480520092009ADA6842F4805220
:101F8000DA60DA6822F48052DA60204605F049FC13
:101F90002268136843F04003136003B0BDE8F08F7C
:101FA000002372E7082370E710236EE718236CE71D
:101FB00020236AE7282368E72B4672E7002370E7AF
:101FC000042B02D10822FFF7C1FEC36823EA0503F0
:101FD000C0E7134A9342D8D1104BDA6942F48042E9
:101FE000DA61DA6902F480420192019A1A6942F4D4
:101FF00080421A611A6922F480421A61C5E700BF63
:1020000000C90008D0C80008A0C8000870C80008AF
:102010001800002018C800080030014000100240DD
:10202000003800402DE9F0410D4616461C4633B3FA
:10203000076803F0FBFA8046BB689907FCD5D5B169
:1020400015F8013B3B73BB68DA07FCD53B7B0EB14F
:1020500006F8013B03F0EAFAA0EB0800B0F57A7F3E
:1020600004F1FF3409D2002CE6D12046BB681B06E0
:10207000FCD4BDE8F081FF23E4E70120F6E702206D
:10208000F7E707B503688DF8071001225B680DF1CB
:102090000701984703B05DF804FB006A10B10368BC
:1020A0009B681847704710B50446006A18B90123A9
:1020B0000020636010BD002392B2436000F0BCFFBB
:1020C000236A5B68002BF5D0F1E7006A10B10121AB
:1020D00000F01ABE704707B501220DF1070100F0AC
:1020E00043FD012814BF4FF0FF309DF8070003B0F7
:1020F0005DF804FB006A08B510B1FFF7ECFF08BDFE
:102100004FF0FF30FBE738B50546006A58B1FFF7DE
:10211000E2FF431C044604D0286A0169013900F03B
:10212000C5FD204638BD0446FBE70000F8B54FF476
:102130007A7317460022C0E901230F4B054603605E
:1021400028200C4608F094FB286298B123460446E8
:1021500003F12802264618685968083303C69342DB
:102160003446F7D10C22394605F1100008F037FE4D
:1021700000232B772846F8BD08BD000800224FF445
:102180007A71C0E90121024902620160027470475C
:1021900008BD0008036A0BB1186970474FF0FF30A3
:1021A0007047006A00B1C069704708B5036A01460C
:1021B00063B1FFF7F6FF02460846FFF7EBFF47F66D
:1021C000FF73101A984228BF184608BD1846FCE74E
:1021D00010B50446006A30B100F0C8FD206A08F06E
:1021E0004FFB0023236210BD006A18B1407A00380B
:1021F00018BF012070470000002310B50A460B49A4
:102200008AB0019300918DF8093001460123684698
:1022100000F084FE002814BF0124002402D0684688
:1022200000F0A4FD20460AB010BD00BF34BD000878
:1022300038B5012204460D4601F070F9024628B96E
:1022400029462046BDE8384001F068B9012038BD74
:1022500030B50B68C45C2F2C4FF0000408BF01336D
:10226000C55C2F2D06D02DB1155501340C2C03F172
:102270000103F5D100251555C25C2F2A08BF013393
:102280000B60C05C003818BF012030BD2DE9F04F55
:102290009B46002381460D460C469246214A9BB040
:1022A000CDE91023079306928DF821308DF849303F
:1022B00001930DF1180802AA01A94846FFF7C8FFCB
:1022C00080F0010207465B462046D2B202A9D04701
:1022D000064650B9AC4204D1002630461BB0BDE8DA
:1022E000F08F204600F042FDF6E76FB10123214652
:1022F000404602AA00F012FEAC4206460AD0204632
:1023000000F034FD4EB9E7E7AC42E6D0204600F0DD
:102310002DFDE2E70028DFD010AC23464446984666
:10232000C9E700BF34BD000838B590F84130044615
:102330000D4613B1383000F019FD2A460121204620
:1023400000F0D6F908B9002038BD04F11005214687
:102350002846FFF76DFF0028F5D0294604F1380024
:1023600000F0DAFB003818BF0120EDE72DE9F04F4F
:102370004FF0000993469BB0DFF8C4A0054610312A
:1023800006A8CDE910A90193CDF81C90CDF818A0AE
:102390008DF821908DF849905F4600F0BDFB0DF15E
:1023A000400806AC2F21384608F0FAFCB8B9019B6A
:1023B000A7EB0B071F606368C5E900A323892B8186
:1023C000E368EB6023692B6163696B61237E2B7685
:1023D000E369EB61236A2B62636A6B6226E03B78F8
:1023E0002F2B07D14346A0461C46013723464446BF
:1023F0009846D7E7C61BF6B20C2E28BF0C263946E6
:10240000324602A808F0EBFC06F168036B44404634
:1024100003F8609C00F0AAFC01232146404602AA72
:1024200000F07CFD30B9C5E900A0687228461BB0F9
:10243000BDE8F08F2046374400F098FCD6E700BF97
:1024400034BD00082DE9F04100271646A0B004462F
:102450001D4602A801AB0197FFF788FF019A9DF87E
:10246000113006EB0208B25C2C4EF2B98DF86130E7
:10247000059B039A1993069BCDE916621A93079B55
:102480009DF810201B939DF820308DF860208DF86A
:102490007030099B224A1D930A9B1E930B9B1F932E
:1024A000204616A9FFF742FE07E0CDE90C678DF83C
:1024B000397033B92046FFF761FE204620B0BDE8F1
:1024C000F0812B46424602A90CA800F027FD002807
:1024D000F0D002A805F0060500F048FC062D03D157
:1024E00013990CA800F0E2FB0D9B4246CDE9166360
:1024F000BDF83830ADF860300F9B1993109B1A93DC
:10250000119B1B939DF848308DF87030139B1D93E1
:10251000149B1E93159B1F93C2E700BF34BD000898
:102520009EBB000810B4044600230846024A04F18A
:10253000380110BCFFF7AABEF921000802210022D1
:10254000064B19610649C3E901221A7383F830204A
:10255000DA63996383F84120704700BFE4030020E9
:1025600034BD0008014600220148FFF7CEBB00BF82
:10257000700300200022FF210148FFF7C6BB00BF07
:102580007003002008B50121007908F0D3F8054B4D
:102590001A7832B100221A700348BDE80840FFF7EC
:1025A000B3BB08BD480400207003002010B5094BE0
:1025B00004461A783AB901221A70074B074893E883
:1025C0000600FFF77FFB20790021BDE8104008F0EE
:1025D000B1B800BF480400200400002070030020B0
:1025E00038B5837904465BB140F2012523895A1C32
:1025F000AB42228105D92046FFF7C4FF0023A37117
:1026000038BDFFF7B7FFF1E7062903D91623437159
:102610000020704701220D4B052915D8DFE801F095
:10262000030A0C0E10120A499A8000220120196038
:102630009A7170470749F7E70749F5E70749F3E754
:102640000749F1E70749EFE70749EDE704000020F4
:1026500040787D0100093D0080841E0040420F004B
:1026600020A1070090D0030048E8010038B50C46CF
:1026700008F0D8F80546FFF77DFFFF2806D008F0E0
:10268000D1F8431BA342F6D3002038BD0120FCE75C
:10269000F8B504460D461746FFF7A2FF2046FFF7A0
:1026A00085FF4FF496712046FFF7E0FF45F04000AC
:1026B000FFF758FF182627FA06F0C0B2083EFFF7CA
:1026C00051FF16F1080FF6D185B1082D0CBF8720F8
:1026D000FF20FFF747FF0025FFF74CFF0306E072DE
:1026E00003D50135B5F5807FF6D1F8BD9520F0E72B
:1026F000F8B5002502710573857285714571044630
:102700000F4608F08FF801210646207907F0B4FF44
:102710000121207908F00EF829464148FFF7BCFA5C
:10272000404B414A9D711A6001229A803C4893E8CF
:102730000600FFF7C7FA0A25FF20013DFFF712FF49
:1027400015F0FF05F8D13648FFF7DEFA2046FFF70F
:102750002DFF002220461146FFF79AFF012805466B
:10276000E07243D14FF4D57208212046FFF790FF65
:1027700042070AD40425FFF7FDFE013D15F0FF05D1
:10278000E072F8D1AA2846D10225AB1E25735D421E
:102790005D41AD07002237212046FFF779FF2A4629
:1027A00029212046FFF774FF0246E07258BB237BC5
:1027B000022B12D13A212046FFF76AFF68BBFFF7D0
:1027C000D9FE00F0C000C02804BF03232373FFF725
:1027D000D1FEFFF7CFFEFFF7CDFE2046FFF7D2FE7A
:1027E00039462046BDE8F840FFF70EBF08F01AF85A
:1027F000801BB0F5FA6FACD9012320466371FFF757
:10280000C1FE0020F8BD08F00DF8801BB0F5FA6F8E
:10281000C0D90823F1E70223EFE70623EDE700BF65
:10282000700300200400002090D0030038B5044657
:1028300007F0F8FF0546FFF79DFEFF28E07208D07D
:10284000FE280ED00D2320466371FFF79BFE00206B
:1028500038BD07F0E7FF401BB0F5967FEBD90F239B
:10286000F1E70120F4E7F8B5044617461E46002BB1
:102870003DD01344B3F5007F15DC83792BB1036899
:102880008B4202D1008990421BD9237B2160032B0C
:1028900018BF49020A4620461121FFF7F9FE0546F6
:1028A00030B1032363712046FFF76CFE00201FE068
:1028B0002046FFF7BBFF0028F5D0012328462581DD
:1028C000A371B84215D3069DAF19FFF753FE05F863
:1028D000010BBD42F9D123891E44A37AB6B22681E9
:1028E00013B1B6F5007F02D32046FFF779FE012031
:1028F000F8BDFFF73FFE2089013080B22081E0E77C
:1029000007B54FF4007300920022FFF7ACFF03B04D
:102910005DF804FB70B5144605460846FFF722FE35
:10292000661E04F2FF1416F8010FFFF71BFEA64205
:10293000F9D1FF20FFF716FEFF20FFF713FEFFF788
:1029400019FE00F01F03052BE87206D0112328465C
:102950006B71FFF717FE002070BD0120FCE7F8B592
:10296000154604461F460A4631B9122363712046B4
:10297000FFF708FE00252AE0037B032B18BF4A025D
:102980001821FFF785FE064608B10423EEE72A4624
:10299000FE212046FFF7BEFF05460028E7D09FB185
:1029A0004FF416712046FFF761FE08B91523DDE7E5
:1029B00032460D212046FFF76BFE08B11423D5E700
:1029C000FFF7D8FD0028F9D12046FFF7DBFD2846A8
:1029D000F8BD38B50546FFF7E9FDFFF7CBFD044626
:1029E0002846FFF7CFFDB4F1FF0018BF012038BD26
:1029F000704710B500F10C0204460121406A00F056
:102A00000FFD60B1236A2BB9237AE26863F07F037C
:102A1000226223720120237A43F02003237210BD27
:102A2000F8B50546FFF7E5FF074610B90027384619
:102A3000F8BD6B6AEC681A7C023C94405A691E79B6
:102A400014442644B44208D14FF400726B6A1B7CD4
:102A50009A40EB691344EB61E9E7013E304600F030
:102A600029FC0028EED1E1E710B50446406900F0EA
:102A7000FDFB18B1237E024800EB431010BD00BFE0
:102A80005C0400204FF020332DE9F0430A4606464F
:102A900000254FF0070885B04B600B60C1F8073088
:102AA00016F8013B23B91078203818BF01202DE01B
:102AB0002E2B06D1B8F10A0F27D008254FF00A08AF
:102AC000EEE7EC466F46134C04F11009E646206829
:102AD00061680834AEE803004C45F446F6D1394647
:102AE00011F8010B78B9A8450FD3A3F121015D2995
:102AF0000BD8A3F1610119299CBF203BDBB2691CF3
:102B00005355CDB2CCE78342EAD1002005B0BDE8F1
:102B1000F08300BFA0BB000838B5427A04460D46DA
:102B20000AB1002038BD91F82030102B0ED10223BD
:102B300043724B8C02625B01C36100230120C4E934
:102B400003336562207263612376EBE7202BE8D1C3
:102B500003234372496A00F11C020162284600F017
:102B6000F7FB0028E9D1DCE72DE9F74F437A04466B
:102B70000F46164623B94FF0FF3003B0BDE8F08F83
:102B8000037ADA07F7D5C3690269DFF8DCA09B1A7C
:102B90009E4288BF9EB2B046DFF8D0B0B8F1000FB9
:102BA00001D130B2E9E7637A2269022B606AC2F38D
:102BB00008054FEA522122D1406A0844C5F5007346
:102BC000227A9845D4BFC1461FFA83F9530602D42E
:102BD000B9F5007F03D1DAF8002082422CD1002120
:102BE00000F044FB0028C6D0214B39461D442A463C
:102BF00005EB0900824232D17D1B571927E003798A
:102C0000013B0B405FFA83F92DB9B9F1000F02D1F6
:102C100052B9226AE260626AE068117C0238526945
:102C2000884010444844C9E7E16804F10C0200F010
:102C30005DFB0028EFD19EE7009701464B462A46F0
:102C4000DBF80000FFF70FFE002894D04F44226904
:102C5000A8EB09034A4422611FFA83F89EE712F8A1
:102C600001CB01F801CBC5E70C000020580400207F
:102C70005C04002037B5437A0446012B09D9036967
:102C800001220DF10701C3F34315FFF76DFF012882
:102C900002D0002003B030BD236903481F332361F5
:102CA00000EB4510F6E700BF5C040020F8B5437A5E
:102CB00004460E460BB90020F8BDC2698A42FAD319
:102CC000022B01D019B9E16001202661F4E7436AC3
:102CD00001691A7C751E09324B1ED340D540AB42A8
:102CE00000D871B9236AE36004F10C07002DEBD022
:102CF0003A46E168606A00F0F9FA013D0028F5D132
:102D0000D9E7ED1AF0E7000070B5437A04460E46A5
:102D100043B390F90830002B1ADA0121FFF7A4FE23
:102D20000546F8B1637A012B9CBFE369C361236A4E
:102D300043831B0C83820C4B1B682BB100F11601E3
:102D4000183098472B8B6B82237A03F07F03237212
:102D50001EB9237A23F0100323723046BDE8704079
:102D600000F060BA002070BD4C04002010B50121B5
:102D70000446FFF7C9FF10B100230120637210BDA4
:102D800010B5437A0446012B0AD1037A9A0707D576
:102D9000590707D4154B1868FFF71BFE014650B1C1
:102DA000002010BDC16903698B42F3D0FFF77EFF9D
:102DB0000028EFD1F4E7237A9A0607D52046FFF7DB
:102DC000A3FF237A23F020032372E9E7084A12685D
:102DD00012B100F00FFAE3E7206943F01003C0F3EB
:102DE0000800C0F50070237280B2DAE758040020B2
:102DF00050040020F7B5437A0446012B0D4603D05A
:102E00000023184603B0F0BD027A9207F8D5C269D4
:102E10008A42F5D3002AF4D00669FFF747FF00285D
:102E2000EED0606AD5B9216A00F056FB0028E7D0E1
:102E30002562237A012163F07F032046E561237236
:102E4000FFF762FF0028DBD0AE423146204628BFA4
:102E5000294603B0BDE8F040FFF728BFE16801AAAA
:102E600000F044FA0028CBD04FF6F873606A0B4AA2
:102E700090F820700199102F18BF13469942D8D2AC
:102E800000F02AFB0028BBD06FF07042E168606A56
:102E900000F082FA0028CCD1B2E700BFF8FFFF0FA4
:102EA00038B51C4B154603EB4113DA7A044612F091
:102EB000110F04D015F0420F01D0002038BD164A82
:102EC00021761268598B62619A8A41EA0241216235
:102ED000DA7A12F0180210D1DB69E36101230021D4
:102EE000637205F00F0323726B06C4E903110FD55B
:102EF0002046BDE83840FFF77DBF102ADDD1606A6B
:102F000004F11C0200F024FA0028D6D00423E6E7DE
:102F10000120D3E75C0400200C0000202DE9FF47CE
:102F200005466E7A0C4610461F4676BB01A9FFF790
:102F3000A9FD824648B3636ADFF8F0906B62C4E98A
:102F400003662369E269934214D22046C3F343180F
:102F5000FFF790FE0146C0B10378002B62D0E52B4D
:102F600017D146BBD9F8003085F818806B610B7813
:102F70000BBB564607F01203122B06D1EEB101210E
:102F80002846FFF771FD044608BB002004B0BDE8E9
:102F9000F0870B2201A807F0EBFE0028D1D107F043
:102FA0003003302BF1D03A464146284604B0BDE804
:102FB000F047FFF775BF5646C3E7637A022BE4D0AC
:102FC0002046FFF72DFD0028DFD0194C2E76152264
:102FD000002104F10B0007F0DBFE01AB03CB1A88E4
:102FE0009B782060A372134B61601B6822818BB1B8
:102FF00004F10E0104F110009847238A0120638236
:103000002383E389E38200F00DF90028BDD03A461E
:10301000297ECAE72122A373227408232822E3739E
:103020006274EAE7002E9DD0A3E700BF0C000020E9
:103030005C0400204C0400202DE9F04F437A044644
:10304000012B8846174685B023D1057AA90720D5DC
:103050006A0716D4BA46C5F3001585F00105EBB230
:10306000DFF860B101932569BAF1000F15D1E2696B
:10307000237AAA4280F09280E56163F07F03237295
:1030800092E0C16903699942E4D0FFF70FFE00287E
:10309000E0D10123636000208AE0606A0679013E86
:1030A00006EA552616F0FF06C5F308050BD155B9FB
:1030B000E168002935D1236A23B92046FFF799FC3E
:1030C00008B9E6E7E360C5F500791FFA89F9D1454B
:1030D00028BFD146626AE368117C023B52698B408B
:1030E0001344B9F5007F1E442ED1DBF8003036487A
:1030F000B34208BF4FF0FF33424608BFCBF8003061
:103100003146019B0068FFF72AFC0028C1D008F572
:1031100000782369AAEB090A4B441FFA8AFA236153
:10312000A1E703AA00F0E2F80028B4D0636A2748B8
:1031300093F820104FF6F873102918BF0346039A2E
:103140009A42BAD2E260BEE7E5B92269E3699A42DF
:1031500018D3012000F066F800289AD01C4ACBF85A
:103160000060137843F0010313701A4B42461D446C
:103170002B4605EB09018B420BD1A8EB050503EBB0
:103180000508C6E70121304600F070F80028ECD1B0
:103190007FE712F8010B03F8010BECE70E4A126807
:1031A00012B1002F7FF469AF237A1B0703D438468E
:1031B00005B0BDE8F08F01212046FFF7A5FD0028EE
:1031C000F5D166E70C00002058040020F8FFFF0F3F
:1031D000540400205C0400204C04002007B50122A8
:1031E0008DF807100DF10701FFF726FF03B05DF81A
:1031F00004FB000010B5084C0346216809B9012002
:1032000010BD0648064A0068FFF7A9FB0028F7D062
:1032100000232360F3E700BF50040020580400207F
:103220005C04002038B50D4D04462B780BB9012005
:1032300038BD03460A490B480B4A09680068FFF786
:103240008EFB08B90020F3E7002CF0D02046FFF7F2
:10325000D1FF0028F6D000232B70E8E754040020AB
:103260000C000020580400205C04002070B50D4EB6
:10327000054633680C4683420ED00120FFF7D2FF8B
:1032800008B9002070BD084B2946084A1868FFF7A6
:1032900037FB0028F5D03560054B01201A78144320
:1032A0001C70EFE70C000020580400205C04002094
:1032B0005404002038B505460120FFF7B3FF04464B
:1032C00060B14FF400720021054807F061FD054B25
:1032D000054A1D60137843F001031370204638BD82
:1032E0005C0400200C00002054040020C36870B56A
:1032F00001338B4205460C46164601D2002070BDB4
:1033000090F82020C369102A0CBF080AC809184485
:103310000D4B1B6883420AD195F82030102B0B4BC4
:103320000BD1E4B233F8143001203360E7E7002119
:10333000FFF79CFF0028EFD1E0E704F07F0453F88B
:10334000243023F07043EFE70C0000205C040020E1
:103350002DE9F3410446154600274FF400780D4E41
:1033600001912046019901AAFFF7C0FF70B1237CAB
:1033700094F8202008FA03F31F444FF6F873102A3C
:1033800018BF3346019A9A42EBD32F6002B0BDE8D2
:10339000F08100BFF8FFFF0F0129F8B505460C4684
:1033A000174601D80020F8BDC36801338B42F9D31A
:1033B00090F82020C369102A0CBF0E0ACE091E44C3
:1033C000134B1B68B34211D195F82030102B114BD1
:1033D00013D1E4B223F814700F4A137843F00103B9
:1033E00013702B7E012B0DD80120DCE70021304625
:1033F000FFF73CFF0028E7D1D4E704F07F0443F84F
:103400002470E9E7AB68054A33441360ECE700BF7A
:103410000C0000205C040020540400205004002014
:103420002DE9F74F146806460F4690464CB34FF00F
:103430000009013425464FF0000AF36803F1010B3F
:10344000F368534518D95D4588BF022530462946A3
:1034500001AA88BF2C46FFF749FF68B1019A6B1C8F
:10346000B2B91A1BBA4214D16FF0704229463046E5
:10347000FFF792FF0746D0B90027384603B0BDE8F2
:10348000F08F4B1ED3F10009046849EB0309D1E723
:103490001C461D460AF1010AD2E705F1FF3A2A4609
:1034A00051463046FFF778FF0028E5D05546AC423C
:1034B000F3D3D8F8001039B9C8F80040B9F1000FBB
:1034C000DBD001343460D8E722463046FFF764FF92
:1034D0000028F1D1D0E70000022373B505460C4661
:1034E0000D4E03602146284601AAFFF7FFFE88B172
:1034F000002221462846FFF74FFF58B14FF6F873D8
:1035000095F82020019C102A18BF33469C42E9D32D
:1035100002B070BD0020FBE7F8FFFF0FF8B53B4B92
:10352000054614461960DAB1042A01D90020F8BD15
:1035300000210846FFF79AFE0028F7D0344B03EB32
:10354000041292F8AE215206F0D11B3403EB04139F
:10355000D3F80A20632AE9D9D3F80640002CE5D035
:1035600000212046FFF782FE0028DFD0284BB3F869
:103570000B20B2F5007FD9D11A7C002AD6D0D98988
:103580000029D3D0597B0029D0D02A7600220127E8
:1035900029712A7407FA02F6B14227D1DE8A06B9E8
:1035A0005E6AD989AE602144E961B3F811C01FFA9F
:1035B0008CF7A5F822C093F810C006FB0C117E0111
:1035C00006F2FF16696201EB56216961B3F81360D8
:1035D00006B91E6A641A3444D44040F6F472944228
:1035E000EC600AD80C2385F82030A0E70132092AC4
:1035F0002A74CFD19AE71023F5E74FF6F47294427C
:10360000F9D9DB6A6B622023EDE700BF5804002084
:103610005C0400208271054A417112680449B2FBC2
:10362000F1F24FF47A714A43C260704738000020CB
:1036300040420F0038B504460D464079022107F09C
:103640001BF807F0EFF86574A0F5FA60A06038BDCC
:1036500070B505460E460024687907F0A5F8B0421B
:1036600001D0204670BDEA68631CA24201D91C4605
:10367000F2E74FF0FF34F4E7F0B50D46D1B0044661
:1036800007F0D0F83DB9A368C31AB3F5FA6F02D2B8
:10369000207C51B0F0BD00250221A060256060793A
:1036A000257106F0E9FF012007F0BEF801216079DD
:1036B00006F0E2FF2946607907F03CF8A379394D1E
:1036C000153B012B28D8384A2B683849B3FBF2F355
:1036D00040F24C42534348684A68121A9342FBDC5A
:1036E0000221607906F0C8FF2F4A2B682F49B3FBEF
:1036F000F2F3627C486853434A68121A9342FBDC37
:1037000072B600212046FFF7A3FF013008D1002345
:10371000237462B60020BCE7142007F085F8DFE7C9
:1037200001212046FFF794FF0130F0D06D466E4630
:10373000002700212046FFF78BFF01213060204643
:10374000FFF786FF0237502F706006F10806F0D1B0
:1037500062B60022D5E90060711C01D0431C02D181
:1037600000232374D6E7D110635C86424FEA4303FB
:10377000DBB202F1010238BF43F00103282A63548F
:1037800005F10805E6D16178237822790B44A17808
:103790000B44E1780B44DBB29A42E1D10120207462
:1037A00077E700BF3800002040420F00001000E023
:1037B000F8B50D4611460646FFF75EFF38B1B379FE
:1037C000B4780C2BF77848D003D80B2B12D0384B99
:1037D00041E0153B012BFAD8200200F4FE403843AB
:1037E000FDF772F9FCF700FE2DA3D3E90023FCF7E7
:1037F00053FE48E02046FDF767F93906044604D534
:1038000001462C48FDF7AEF8044607F00F00FCF720
:10381000D9FD23A3D3E90023FCF73EFE064620464C
:103820000F46FCF7E1FD0B46024639463046FCF7F1
:103830007DFCFDF743F803466DB1FCF7D5FD1AA3F7
:10384000D3E90023FCF728FE1B4B0022FCF76EFC9B
:10385000FDF734F803461846F8BD07F00F00FCF7F3
:10386000B1FD0FA3D3E90023FCF716FE0646204660
:103870000F46FDF729F9FCF7B7FD02460B46304627
:103880003946FCF753FCFDF719F82206034644BFFE
:1038900000F100400346002DDDD01846CDE700BF03
:1038A0009A9999999999B93FCDCCCCCCCCCCFC3F85
:1038B0000000C07F000080BF00004040000000000A
:1038C000D0B50446FFF7D8FE20B1A3790C2B03D85E
:1038D0000A2B11D8164824E0153B012BFAD8208872
:1038E00040BA80B2FDF7F0F8FCF77EFD0EA3D3E9F5
:1038F0000023FCF7D1FD12E06078FCF763FD0AA31A
:10390000D3E90023FCF7C8FD064620780F46FCF7F4
:1039100059FD02460B4630463946FCF707FCFCF7DA
:10392000CDFFD0BDAFF300809A9999999999B93F8D
:103930000000C07F028BC08A101A70470346C28AFB
:10394000018B914281BF0169885C0132DA8298BFA4
:103950004FF0FF307047028BC38A9A4286BF0269DC
:10396000D05C4FF0FF307047806DD0F8DC302BB169
:103970000023D43020F8B23CC368184770478368EE
:1039800010B5044613B1032201469847204610BDE6
:1039900070B54FF47A730E460021C0E90113034657
:1039A00015462B4A044643F8C42BC0F8C4109C2289
:1039B000C3E90111C0E93411C0E93611C0F8E010C3
:1039C000283007F0E5F9F3B2222B19D8214A06F482
:1039D000E06652F823301E43EBB2222BC4F8846019
:1039E00022D81C4A05F4E06552F823301D43002319
:1039F0002046C4F88850E36123842361A38270BD0C
:103A000006F0C002C02A0CD1C92B0AD8124B06F00E
:103A10003F0253F822200F4B06F4E06653F82230A1
:103A2000D9E74FF0FF36D7E705F0C002C02A0CD126
:103A3000C92B0AD8084B05F03F0253F82220054B4A
:103A400005F4E06553F82230D0E74FF0FF35CEE7BC
:103A50004CBD0008A8CD000880CD000838B504464C
:103A6000283000F09FFAE06918B106F009FF002342
:103A7000E36100252069258410B106F001FF25616E
:103A8000A58238BD38B505460446074B45F8D43BFA
:103A9000FFF7E4FF2846FFF772FF04F1C400FFF7C9
:103AA0006EFF204638BD00BF4CBD000838B5044647
:103AB00000F12805284600F0B3FA94F8BE304BB95F
:103AC0002846054900F065FB2846BDE83840034913
:103AD00000F058BB38BD00BF69390008153B00082D
:103AE0000123994080F82430002381764384704775
:103AF00038B5838A05468B420C4609D2202938BF47
:103B000020240069214606F071FF10B12861AC82C3
:103B100038BDFEE773B5846D0546D4F8CC30866EAB
:103B2000E3B1E28A238B9A4218D331462046FFF74D
:103B3000DFFF3246206905F1740107F04AFA0023DD
:103B4000E382D4F8CC30268301960BB907F0B2FF9C
:103B5000D4F8D03001A904F1C400984702B070BD78
:103B6000B1F5806F70B505460C4610D8038C9942AC
:103B70000AD920290E4638BF2026C069314606F0F2
:103B800035FF18B1E8612E84204670BDFEE70024A1
:103B9000FAE713B590F8243004468DF807107BB18E
:103BA000418C0131FFF7DCFF40B10120638C9DF8AF
:103BB0000710E269D154638C0133638402B010BDF5
:103BC00001220DF10701283000F052FAB0FA80F01E
:103BD0004009F3E770B590F8243004460E461546C8
:103BE00093B1418C1144FFF7BBFF10B90025284663
:103BF00070BD638CE0692A461844314607F0E9F944
:103C0000638C2B446384F2E792B2283000F030FAE0
:103C10000028EBD1EBE70346006918B100219A8A2E
:103C200007F0B6B870470346C06918B100211A8C76
:103C300007F0AEB8704738B50446D1B94FF42A033F
:103C4000A36594F8BE30012B16D1638CE269A17E86
:103C500004F1280000F045FA042828BF0420C5B26A
:103C60002046FFF7E0FF0023638484F824302846D1
:103C700038BD4FF02A43E3E70425F8E70121FFF7B9
:103C8000DABF38B500250446C5820583FFF7C3FFB8
:103C900020466584FFF7C7FF38BD0000F8B504462D
:103CA000D0F8840006F028FC002106F0E5FCD4F8EA
:103CB0008420C2F30313042B48D8284D284E55F80E
:103CC000233002F00F029B6856F82220DB4303EA00
:103CD00012239BB2002B3FD0D4F8880006F00CFCD6
:103CE000012106F0C9FC1F4BD4F888001B681E4C4C
:103CF000C0F30311B3FBF4F30A24042904FB03F318
:103D000000F00F0225D8142756F82220174CC2F3D2
:103D10000F2255F821C0CCF81420D4F804E06668CE
:103D2000A6EB0E06B342FADCCCF81020D4F804C09F
:103D30006668A6EB0C06B342FADC013FE9D106F057
:103D4000DBFB3946BDE8F84006F096BC00239B68D3
:103D5000FFDE00235B61FBE7F8BD00BF1800002019
:103D600018C800083800002040420F00001000E092
:103D70002DE9F04100250446C58205831F460E4605
:103D80009046FFF748FF20466584A576FFF74BFF76
:103D9000D4F8DC30C4F8804033B104F1D4010322FC
:103DA00008469847C4E937550023012E84F824308B
:103DB0004FEA460384F825300CBF0123002384F822
:103DC000BF8084F8BE3084F8C07002D12046FFF76F
:103DD00065FF04F12805284694F82520084900F0DD
:103DE00029F894F8BE304BB92846064900F0D1F9BD
:103DF0002846BDE8F041044900F0C4B9BDE8F081AF
:103E0000A086010069390008153B00080A46002316
:103E10000121FFF7ADBF0000032202210148FFF797
:103E2000B7BD00BF5C0600200148FFF72BBE00BFF6
:103E30005C060020F7B50D4617460446002800F042
:103E40009F805049C06D05F0C3FA4F490646206E69
:103E500005F0BEFA0146002E00F09280002800F026
:103E60008F80304605F0DBFA2060002800F0888063
:103E7000464B261D984260D103F5DE33DA6942F4E1
:103E80000012DA61DA6902F400120092009A1A69EB
:103E900042F400121A611A6922F400121A6142F205
:103EA0001F03A4F864303A4B1E603749206E05F0BA
:103EB00077FA3449E06D05F073FA364B21689D427C
:103EC00058D9354B9D4203D9344B9D4288BF0023BE
:103ED0004FF480420025C4E901134FF48043C4E944
:103EE000053594F8973002215B1B18BF01239B0115
:103EF000236294F89830C4E903275B1B18BF0123A1
:103F0000DB0163622A4694F96400E56184F841505C
:103F100001F0F8FE94F9640001F024FF2A46022122
:103F200094F9650001F0EEFE94F9650001F01AFFC6
:103F3000304602F035F8F8B1FEE7194B9842B4D19B
:103F400003F5DC33DA6942F48002DA61DA6902F4FB
:103F500080020192019A1A6942F480021A611A6978
:103F600022F480021A6142F22123A4F86430084B43
:103F70005E609AE70022ADE70223A06684F89530E0
:103F800003B0F0BD54CC000824CC0008005400401D
:103F900040070020A0860100801A060040420F0062
:103FA0000058004010B5044690F9640001F0E8FEA6
:103FB00094F9650001F0E4FE201D02F09AF8032157
:103FC000206E05F02DF90321E06D05F029F9236835
:103FD000104A93420DD1104B1A6942F400121A6133
:103FE0001A6922F400121A61DA6922F40012DA6105
:103FF00010BD0A4A9342FBD1074B1A6942F4800272
:104000001A611A6922F480021A61DA6922F48002C4
:10401000EDE700BF0054004000100240005800408F
:10402000104B10B59942044606D90F4B994203D95B
:104030000E4B994288BF00236068026822F001029B
:104040000260A360074B201D994294BF002101210B
:104050008903E16001F0A4FF6268136843F0010383
:10406000136010BDA0860100801A060040420F00B8
:10407000202A30B514D800239CB2A24207D890F869
:1040800094301344DBB280F89430002030BD90F8B7
:104090009440CD5C1C44044484F874500133EBE735
:1040A0000120F3E710B564230446043002F03AF827
:1040B000022810D0032806D090B194F84130202B6C
:1040C00018BF042004E094F84130202B18BF0520CD
:1040D00008BF022004E094F84130202B18BF0620CE
:1040E00010BD2DE9F34704460E4691461F4601F0E8
:1040F0009DFA80463FB901223146204602B0BDE814
:10410000F047FFF7CFBF0025D4F830A004343B467A
:104110004A4631462046CDF800A002F0AFF802280A
:1041200007D101F083FAA0EB0805642DEFD9062032
:104130001FE008BB01F07AFA0646204602F0F6FFBF
:10414000202809D0632D07D801F070FA851B20467E
:1041500002F0EFFF0028F0D0204602F0EAFF632DC6
:104160000CD882060AD443070AD4003818BF0120AD
:10417000800002B0BDE8F0870420FAE70520F8E7E8
:104180000320F6E720B119B1C166043002F054B93A
:10419000704720B119B10167043002F04DB9704782
:1041A00070B590F891300446012B0D46A0F104063D
:1041B00009D1436E3BB1836E30469847022384F8A1
:1041C0009130002363668DB9E36E84F891501BB182
:1041D000304684F890509847204694F8902004F197
:1041E00070012023BDE8704002F0B0B80023012226
:1041F000636684F89120616E204674313144042353
:10420000BDE8704002F0DDB810B590F8913004467A
:10421000012B04D1436E13B1836E043898470223F7
:1042200084F89130002320466366BDE8104002F018
:1042300003B9436E1F2BDEBF436E0133436690F814
:104240009130012BDAB205D1416E04237031014463
:1042500002F0B7B87047002380F89030704790F8AC
:1042600092300BB902F0E8B870470000014B1868B3
:1042700002F062BA40070020014B186802F0B6BE97
:1042800040070020014B586802F056BA4007002052
:10429000014B586802F0AABE400700202DE9F04FFC
:1042A0001E4685B0BDF93840A6EB0109A4EB020813
:1042B000B8F1000FB8BFC8F10008B9F1000FBDF8A0
:1042C0003C30B8BFC9F10009C845174615460093F0
:1042D0008246A44632460B4605DC22463B4634461F
:1042E0000F4666462946A74208DC1D4613462A4665
:1042F00035460E46294625463C462F469B1A3D1B11
:1043000083EAE372A8B2A2EBE3722BB2C5F3C03525
:104310001D448E42B4BF01234FF0FF33019002923F
:104320006D100393BC4202DD05B0BDE8F08FDAF8F2
:104330000030C845C7BF2246314632462146D3F831
:1043400018B05046009BD847029BED1AABB22DB275
:10435000002D05DA039A1644019A36B213441DB2B1
:10436000013424B2DEE7704710B404682469A4461F
:1043700010BC604730B4BDF8085004680295A46BC7
:10438000A44630BC604730B4BDF8085004680295BC
:10439000E46BA44630BC604770B4BDF90C50BDF866
:1043A00010600468CDE90356246CA44670BC6047D5
:1043B0002DE9F3411C46164605460F460368013CAD
:1043C000BDF820805B693444984724B22B68CDF84F
:1043D0000480009428469C6A32463B463946A047F2
:1043E00028462B68DB6A02B0BDE8F04118472DE98A
:1043F000F341044617461D460E460368BDF820806B
:104400005B6998472268CDE900786B1E33442046EB
:10441000956A31463A461BB2A84720462368DB6AB4
:1044200002B0BDE8F04118472DE9F3471E46036886
:104430000C465B6905461746BDF92880BDF82C90EF
:1044400098472644B4422B6805DB2846DB6A02B055
:10445000BDE8F0471847CDF800902146D3F820A0DA
:104460003A46434628460134D04724B2EAE713B51A
:104470000191B0F90E1002680091146C0022B0F99D
:104480000C301146A04702B010BD2DE9F347044699
:104490000F4616461D460368BDF82C805B69BDF9C2
:1044A000289098472368CDF8008032463946204648
:1044B000D3F824A02B46D047236809F1FF32CDF86A
:1044C0000080324439462046D3F824A012B22B464D
:1044D000D0472368CDF80080324639462046D3F8CD
:1044E00020A04B46D047013D2368E919CDF8008054
:1044F00020461D6A32464B4609B2A847204623682B
:10450000DB6A02B0BDE8F047184770472DE9F74372
:104510009942154607460C469846BDF92860BDF8F5
:104520002C90026810D1B542DEBF33462E461D46A0
:10453000CDF828906B1C956B3246AC469B1B1BB28A
:1045400003B0BDE8F0436047B5420ED19942DCBFED
:104550001C468846CDF82890D66B0134A4EB08049D
:104560002A464146B44623B2EAE7536998473B6876
:10457000CDE9006938469E6A2A4643462146B0473F
:1045800038463B68DB6A03B0BDE8F043184701F0EA
:1045900003038376B0F90830C90758BF1946B0F94C
:1045A0000A205CBF13460A46C3818281704700001F
:1045B00030B50024018181814FF0FF31054D4281EA
:1045C000C281054A4460C0E90512056004610477B0
:1045D000046230BD78BD0008010100012DE9F04FF3
:1045E0000026B046354687B00393BDF84830BDF984
:1045F000409004930368CDE901125B690446BDF95C
:1046000044A0984719F1070348BF09F10E03DB10D6
:104610000093029B03EB08020FFA88F39A4512B24B
:1046200021DD039B002703EB060B14E059070BBFAA
:10463000DB106D001BF80350EDB22B060AD5019B71
:104640000592D919236820469B6909B29C46049BB0
:10465000E047059A01373BB24B45E7DB009B08F189
:1046600001081E44D5E720462368DB6A07B0BDE891
:10467000F04F18472DE9F04F93B01E460392BDF856
:104680007030026A8246BDF874709DF878509DF8CB
:104690007C4005910493002A40F0B980B0F90C30B9
:1046A0008B4240F33881B0F90E30039A934240F3C5
:1046B0003281062303FB0513002B40F32C81039B5F
:1046C00003EBC403002B40F32681037F1BB9AF2EFD
:1046D00084BF0136F6B2DAF8003050465B6998477D
:1046E00005234FF000080A938C4B06EB86063344F3
:1046F0000E93BDF80C3006930E9BBDF8146013F8B2
:1047000008304FF0000907931FFA88F3089305FB60
:1047100003631BB2099308230B932BB20C9323B2B0
:104720000D93079ADAF80030D2074ED5012D06997D
:104730001FFA89F23BD1012C39D10A440899D3F8E8
:1047400018B0049B3144504612B209B2D847079BB7
:1047500009F101095B0807930B9B4FFA89F9013BAB
:1047600013F0FF030B93DCD10A9B08F10108013B16
:1047700013F0FF034FFA88F80A93BDD1049BBB42A4
:104780000DD0012DDAF8003034D1012C32D1711D59
:1047900000971C6A50460823039A09B2A047504666
:1047A000DAF80030DB6A13B0BDE8F04F184702FBBF
:1047B0000412049901910D9950460091D3F81CB050
:1047C00009990C9B12B2D847C1E7049ABA42BED0ED
:1047D000012D06991FFA89F208D1012C06D10A444D
:1047E0000899D3F818B031443B46ACE702FB0412F9
:1047F0000197E0E705EB8502E400B118019700940A
:10480000DC6950462B46039A09B2A047C7E7002748
:10481000137A5168F61A1268F6B20C9231F8362003
:1048200001EBC60306929A7893F905600892DA784C
:1048300093F90630B946099345EA0403012B98BF62
:104840004FF0000BB84603680D925B698ABF07966C
:10485000CDF81CB0DDF824B09847BDF814300A93A9
:10486000334411930D9B984599D2BDF80C30002626
:104870000593059A08EB0B0303FB04232AB21BB232
:104880000F9222B20B9310923B4629E05A1CD2B2EF
:104890005B070E9207D1069B06990C9A01339BB2D7
:1048A00012F80190069319F0800F12D0012DDAF85A
:1048B00000301FD1012C1DD10999059A9B690A442A
:1048C0001199424471189C465046049B12B209B299
:1048D000E0474FEA490901360E9B5FFA89F9F6B2C3
:1048E000089A9642D2D3174408F10108FFB25FFA42
:1048F00088F8B7E7079A504691190A9A01FB0521F3
:10490000049A09B20192109A0092DB690B9A9C46B4
:104910000F9BE047DDE713B0BDE8F08FC8BD00088E
:10492000F0B5026A04460B4685B0002A34D10A2944
:1049300008D1438A0282427E03EBC20363820120D4
:1049400005B0F0BD0D29FAD0E17E007E657E71B123
:104950000626B4F9101006FB0011B4F90C60B14240
:10496000C1BFB4F91210228201EBC5026282CDE907
:104970000205E28A20460192A28A0092B4F912202E
:10498000B4F91010FFF776FE237E228A03EB43036F
:1049900002EB43032382D2E70A2907D100230382D3
:1049A000417E127B438A01FB0233C7E70D29C6D043
:1049B000117A8B42C3D3907A9842C0D35568591A62
:1049C000C9B205EBC105A97829B3E87818B3E07E30
:1049D000267E677E90B195F905000844B4F9101061
:1049E00006FB0011B4F90C00814207DD0020208293
:1049F000B4F91210127B02FB07126282CDE9026742
:104A0000E28A20460192A28A0092B4F91220B4F9F7
:104A10001010FFF72FFE2979227E238A01FB023333
:104A2000B8E7012938BF0121017641767047002996
:104A300010B51ADBB0F90C408C4216DD002A14DBED
:104A4000B0F90E40944210DD847E022C0ED0032C6F
:104A500015D0012C04D10489A41A013C0A4621B2C4
:104A6000012B12D0022B37D013B310BD0489013CA7
:104A7000611A448909B2A21A013A12B2F0E74489D4
:104A8000013C641A114622B2EAE71346002AB0F943
:104A90000840B8BFD31D43F3CF0304FB0313C16A1F
:104AA00002F0070001228240C85C0243CA54DCE7DE
:104AB0001346002AB0F90840B8BFD31D43F3CF0313
:104AC00004FB03130121C06A02F007029140C25C9B
:104AD00022EA0102C254C8E71346002AB0F908408E
:104AE000B8BFD31D43F3CF0304FB03110123C06AF6
:104AF00002F007029340425C53404354B5E7000084
:104B000038B504461D46FFF753FD114B114A23608B
:104B100000239D4208BF1546FF2284F8332084F805
:104B200036209DF910204FF6FF7184F83720059A42
:104B3000A186A265069A2046E265074AC4E90A539F
:104B400062660122A4F86820636284F86A3038BD86
:104B5000D0C200085C06002000093D0010B50446E4
:104B6000C06A08B105F08CFE204610BD826AF8B517
:104B700004460D469AB190F930101046FEF7B0FF8A
:104B8000A06A002103681B689847A06A2946036849
:104B90001B689847A06ABDE8F840FFF76FB8006C43
:104BA000266D036823EA06030360606A18B1BDE856
:104BB000F840FDF7AAB80821D4E90E238020166832
:104BC000A76C054214BF3E43BE4316601E68E76CE7
:104BD000013946EA07061E601E68E76C4FEA50007E
:104BE00026EA07061E60EAD1F8BD38B50446806A99
:104BF0000D4678B1A16DFEF759FFA5F15A01204687
:104C0000C9B2FFF7B3FFA06A88B1E16DBDE83840D3
:104C1000FEF74CBF606A18B1D4E91912FDF752F8DB
:104C2000626C616D136823EA01031360E5E7626C4F
:104C3000616D1368606A0B43136018B1BDE83840BA
:104C4000FDF762B838BDF8B50446806A0D468F1886
:104C500040B394F93010FEF743FFA06A00210368C7
:104C600001261B689847AF42A06A03D1BDE8F8400F
:104C7000FFF704B8202E0CD1FFF700F894F930109C
:104C8000A06AFEF72DFFA06A0021036801261B68B9
:104C90009847A06A15F8011B036801361B689847FE
:104CA000B6B2E0E7226C216D136823EA01031360BA
:104CB000AF4200D1F8BD606A15F8011B18B100229F
:104CC000FDF723F8F4E70820D4E90E238026D2F874
:104CD00000C0D4F848E0314214BF4CEA0E0C2CEA74
:104CE0000E0CC2F800C0D3F800C0D4F84CE0013874
:104CF0004CEA0E0CC3F800C0D3F800C0D4F84CE066
:104D00004FEA56062CEA0E0CC3F800C0DFD1CFE7FD
:104D1000B0F90A300021DA1D48BF03F10E02B0F9E4
:104D20000830D2105A43C06A06F032B82DE9FF416C
:104D30001E46C36A04460F4615469DF82880B3B147
:104D40002046FFF7E5FFB4F90A00B4F9081020285F
:104D50001FDC20230122CDE901327323203873396F
:104D6000009300EBD070B14B01EBD1711FE0B0F9B3
:104D70000A30D81D48BF03F10E00B4F90830C01046
:104D8000584305F075FDE0620028D9D104B0BDE8B4
:104D9000F08140234FF0010CCDE9013C5223403813
:104DA00052390093A24B00EBD07001EBD17140F36C
:104DB0004F0241F34F012046FFF710FC84F8317099
:104DC000A76A002F6BD0002D67D1B4F90A30202BD1
:104DD00014BF3D253C2584F83050B8F1000F03D0B6
:104DE00000213846FFF712F8DEB194F937000028A9
:104DF00017DB012105F040FC012194F9370005F093
:104E000099FC012005F010FD002194F9370005F010
:104E100091FC0A2005F008FD012194F9370005F006
:104E200089FCA06A002800F08D81A16DFEF73EFE8E
:104E3000042220467F49FFF706FF61892046013999
:104E4000C9B2FFF793FE7C4904222046FFF7FBFE20
:104E500094F931302046012B14BF14211021FFF7A3
:104E600085FE042220467549FFF7EDFE8F23744A24
:104E700084F86030A368934200F07C8102F5001250
:104E8000934240F06C8194F93130012B14BFCF2351
:104E90009F23122584F860306DE16DB29BE70121FC
:104EA00094F9350005F0E8FB012194F9360005F08E
:104EB000E3FB94F8351094F93520222910D8614B82
:104EC00053F82130C3F30313042B55D90C23236467
:104ED0005C4B53F82120012302F00F02934007E0BE
:104EE00002F0C003C02B2AD00C2323644FF40043EC
:104EF00094F8361094F936202229236545D8514B71
:104F000053F82130C3F30313042B61D90C236364DA
:104F10004C4B53F82120012302F00F0293406365AC
:104F2000FA68656A1343FB60002D5DD0B8F1000F8D
:104F30003FF45AAF00212846FCF7AEFE54E7C929DA
:104F4000D2D8414B02F03F0053F820003D4B53F8BC
:104F50002030C3F30313042B0ED90C23236402F077
:104F6000C003C02BC2D1384B02F03F0253F82220BD
:104F7000344B53F82220AEE73448222950F823302E
:104F800003F10C032364A3D9E9E702F0C003C02BAB
:104F900010D00C23636402F0C003C02B21D1C929B7
:104FA0001FD8294B02F03F0253F82220254B53F81B
:104FB0002220B0E7C929ECD8234B02F03F0053F878
:104FC0002000204B53F82030C3F30313042BE0D808
:104FD0001E48222950F8237007F10C03636497D907
:104FE000D9E74FF400439AE7012194F9330005F023
:104FF00043FB012194F9340005F03EFB94F8331093
:1050000094F93320222923D80E4B53F82130C3F3CF
:105010000313042B5ED90C23A3630A4B53F82120FE
:10502000012302F00F0293401AE000BF46C30008BC
:1050300026C5000842C300083EC300083AC3000862
:1050400080002000A8CD000880CD000818000020B6
:1050500002F0C003C02B20D00C23A3634FF4004305
:1050600094F8341094F934202229A3643BD8614B7E
:1050700053F82130C3F30313042B57D90C23E363F4
:105080005C4B53F82120012302F00F029340E364AC
:10509000EA6822EA0303EB60A6E6C929DCD8564B8E
:1050A00002F03F0053F82000524B53F82030C3F376
:1050B0000313042B0ED90C23A36302F0C003C02BEF
:1050C000CCD14D4B02F03F0253F82220494B53F80C
:1050D0002220A5E74948222950F8233003F10C0388
:1050E000A3639AD9E9E702F0C003C02B10D00C23C8
:1050F000E36302F0C003C02B21D1C9291FD83E4B66
:1051000002F03F0253F822203A4B53F82220BAE72C
:10511000C929ECD8384B02F03F0053F82000354B3A
:1051200053F82030C3F30313042BE0D8334822296B
:1051300050F8235005F10C03E363A1D9D9E74FF4EC
:105140000043A4E7606A18B1D4E91912FCF7BAFD6C
:10515000626C616D136823EA0103136068E6284AF4
:10516000934232D194F93130012B14BFAF23102375
:1051700084F860300225DA212046FFF7F7FC294643
:105180002046FFF7F3FC81212046FFF7EFFC204685
:1051900094F86010FFF7EAFCD9212046FFF7E6FCFF
:1051A00094F931302046012B14BFF1212221FFF761
:1051B000DDFC204606221349FFF745FDA06A70B1C9
:1051C000E16DFEF773FC0120E0E50F4A9342D1D177
:1051D00094F93130012B14BFCF23102359E6626CB0
:1051E000616D1368606A0B4313600028EBD0FCF715
:1051F0008BFDE8E7A8CD000880CD0008180000204E
:105200006000100034C300084000200070B5002A80
:10521000BDF8104022DBB0F90A5095421EDD00298E
:10522000BEBFC9180BB20021B0F908505E18AE42DB
:10523000C4BF6B1A1BB2002B10DDD61005FB061184
:10524000C06A012C014402F007004FF0010202FA8B
:1052500000F2D2B20CD0022C01D094B170BD0B443C
:105260009942FBD011F8010B504001F8010CF7E70F
:105270000B449942F2D011F8010B104301F8010CD4
:10528000F7E7D2430B44D2B29942E7D011F8010BB1
:10529000104001F8010CF7E7F0B50029BDF81450F3
:1052A00052DBB0F90860B1424EDA002ABEBF9B184B
:1052B00000221BB2B0F90A40D718A742C4BFA41AF3
:1052C00023B2002B40DDC2F3C40406FB0416C76AF8
:1052D00012F00702DBB207EB06041AD0C2F1080293
:1052E000D2B2934238BF4FF0FF0C2D4938BFA2EB2A
:1052F000030E895C3CBF4CFA0EFC01EA0C01012D47
:1053000023D0022D2CD035B393421DD3B0F9081011
:105310000C449B1ADBB2072B0ED9022D25D11A465D
:105320002178083AC9432170B0F90810D2B2072A8F
:105330000C44F5D803F0070333B11A4A012DD35CAE
:1053400022D0022D28D01DB3F0BD17F806C041EAC7
:105350000C01B955D8E717F806C02CEA0101F8E7A7
:1053600017F806C081EA0C01F3E7291E18BF0121D6
:105370001A464942C9B22170083AB0F90860D2B25F
:10538000072A3444F7D8D5E7227813432370DBE7A4
:10539000227822EA0303F9E722785340F6E700BFB8
:1053A0002CC3000824C3000830B41446827EBDF824
:1053B0000850022A0DD0032A18D0012A11D10289DF
:1053C000121B013A14B20A460295214630BCFFF77F
:1053D00063BF42891944121B013A14B20289511A5F
:1053E00009B22246029530BCFFF710BF428919442A
:1053F000511A09B2E7E730B41446827EBDF808506E
:10540000022A0DD0032A18D0012A11D102891C4486
:10541000141B24B20A460295214630BCFFF7F6BEA3
:1054200002891C44521A013A11B24289141B24B257
:105430002246029530BCFFF72FBF4289521A013A2B
:1054400011B2E7E7F8B50446806A00283BD0A16DA9
:10545000FEF72CFB042220465149FFF7F4FBB4F978
:105460000830402B3CD120212046FFF77FFB2189CB
:105470001F312046C9B2FFF779FBD4E90A07B4F916
:105480000A202589D31D48BF02F10E03DB105D43BE
:10549000ADB23D44002842D094F93010FEF720FB15
:1054A000A06A4021036801261B689847AF42A06AA2
:1054B0001DD1FEF7E3FBA06A002864D0E16DBDE8D2
:1054C000F840FEF7F3BA606A18B1D4E91912FCF794
:1054D000F9FB626C616D136823EA01031360B9E79D
:1054E00000212046FFF742FB21890139C1E7202E28
:1054F0000CD1FEF7C3FB94F93010A06AFEF7F0FA66
:10550000A06A4021036801261B689847A06A17F823
:10551000011B036801361B689847B6B2C6E7226CC8
:10552000216D13680B431360AF42C4D0606A17F853
:10553000011B18B10022FCF7E8FBF5E70820D4E9CD
:105540000E238026D2F800C0D4F848E0314214BFC0
:105550004CEA0E0C2CEA0E0CC2F800C0D3F800C0C6
:10556000D4F84CE001384CEA0E0CC3F800C0D3F874
:1055700000C0D4F84CE04FEA56062CEA0E0CC3F8F3
:1055800000C0DFD1D0E7626C616D1368606A0B43C5
:10559000136018B1BDE8F840FCF7B6BBF8BD00BF1A
:1055A00020C300087047000038B50E4B05461A7836
:1055B0004FF47A73B3FBF2F30B4A1068B0FBF3F0CD
:1055C00000F0F0FB044658B90F2D09D802462946D1
:1055D0004FF0FF3000F096FB2046044B1D6038BDB5
:1055E0000120FCE7100000203800002014000020FB
:1055F000074A08B51368032043F01003136000F056
:105600006FFB0020FFF7D0FFFFF7CCFF002008BDA5
:1056100000200240034A044B11681B780B441360BE
:10562000704700BF4807002010000020014B186899
:10563000704700BF48070020F7B5002604460D4616
:105640000196FFF7F3FF236807469A68D10508D54E
:105650000120A36A84F8246043F02003A36203B00E
:10566000F0BD5A68D20503D4DB6A13F4700F3DD045
:105670003D4B02201E6802F075F823683B4A196909
:10568000B6FBF0F611423A4A51D1D868394908427E
:105690004DD1196911425BD1DA68374B1A420CBF00
:1056A000142329235E43019BB34223D26A1C04D0F6
:1056B000002D53D1019BB3420AD3019B01330193C7
:1056C000F1E76E1C13D065B923681B6898070DD4E9
:1056D000A36A032043F00403A362002384F8243068
:1056E000BDE7FFF7A3FFC01BA842EDD822681368EF
:1056F0009907E6D56FF0120322681360A36A43F49A
:105700000073A362936803F46023B3F5602F0CD198
:10571000237B53B9A36A23F48073A362A36ADB04D7
:1057200003D4A36A43F00103A362002097E7196939
:10573000114203D1D968104A11420BD019690F4A9E
:10574000114209D1DB6813420CBF5423FC23A9E7A3
:105750002923A7E75423A5E7FC23A3E7FFF766FF68
:10576000C01BA842A6D8A8E73800002024499224EC
:10577000922449122449920092244900499224001B
:105780000368D86C70470000002373B5019390F84C
:1057900024300446012B6CD0012380F824304D685E
:1057A0000268062D086805EB850322D81F26556B75
:1057B000053B9E4025EA060500FA03F32B4353639D
:1057C00009288B6800EB40054FF0070129D9D668FE
:1057D0001E3DA94026EA0101AB400B43D360A0F176
:1057E0001003012B25D90020002384F8243002B0B7
:1057F00070BD0C2D4FF01F0509D8166B233B9D4043
:1058000026EA050500FA03F32B431363D8E7D66AAB
:10581000413B9D4026EA050500FA03F32B43D36282
:10582000CEE71069A94020EA0101AB400B431361A8
:10583000D9E7114B9A4216D193681B02D3D49368CF
:10584000102843F400039360CDD10C4B0C4A1B6825
:10585000B3FBF2F30A2253430193019B002BC2D006
:10586000019B013BF8E7A36A012043F02003A362F8
:10587000BAE70220BBE700BF002401403800002047
:1058800040420F00806A7047002337B501930368D8
:1058900004469A68D20702D5002003B030BD9A684A
:1058A00042F001029A60144B144A1B68B3FBF2F3F6
:1058B0000193019BE3B9FFF7B9FE054623689B6896
:1058C000DB07E9D4FFF7B2FE401B0228F6D92368B4
:1058D0009B6813F00103F1D1A26A012042F010028B
:1058E000A262E26A84F8243042F00102E262D4E764
:1058F000019B013BDCE700BF3800002040420F0065
:1059000010B590F824300446012B54D0012380F8C0
:105910002430FFF7B9FF002849D1A36A274A23F4AE
:10592000407323F0010343F48073A362236893421E
:1059300004D123494A6812F4702F2ED1A26A22F4AE
:105940008012A2625A68520541BFA26A22F44052F4
:1059500042F48052A262A26A12F480521CBFE26A30
:1059600022F00602E262002284F824206FF0020294
:105970001A609A6802F46022B2F5602F13D10F4AC0
:10598000934205D1A2F58062526812F4702F0AD1B9
:105990009A6842F4A0029A6010BDA26A42F4801292
:1059A000A2624A68CFE79A6842F48012F3E70023C4
:1059B00084F82430F0E70220EEE700BF0028014021
:1059C0000024014038B5036804469A68D10701D421
:1059D000002038BD9A6822F001029A60FFF726FE87
:1059E000054623689B68DB07F2D5FFF71FFE401BC7
:1059F0000228F6D923689B68DA07F2D5A36A01204A
:105A000043F01003A362E36A43F00103E362E0E7BB
:105A1000F8B5044600286DD0836A23B9C36280F8C4
:105A2000243003F099F82046FFF7CCFFA36A13F067
:105A3000100361D100285FD1A26A616822F4885204
:105A400022F0020242F00202E569A668A262227B0D
:105A50002943B6F5807F41EA420136D0771E7D4268
:105A60007D412D02277D012F06D182BBA269013A1B
:105A700045EA423242F400652268B6F5807F5768F5
:105A800027F4694745EA0705556097681D4D05EA03
:105A9000070545EA0105956001D0012E02D1236971
:105AA000013B1B05D56A25F470052B43D362926830
:105AB000154B1340994213D10023E362A36A23F0EC
:105AC000030343F00103A362F8BD3546CAE7A26AA7
:105AD00042F02002A262E26A42F00102E262CBE7F7
